{"abi":[{"type":"constructor","inputs":[],"stateMutability":"nonpayable"},{"type":"function","name":"BASE_WATER_REWARD","inputs":[],"outputs":[{"name":"","type":"uint256","internalType":"uint256"}],"stateMutability":"view"},{"type":"function","name":"MAX_DAILY_REWARDS","inputs":[],"outputs":[{"name":"","type":"uint256","internalType":"uint256"}],"stateMutability":"view"},{"type":"function","name":"TOTAL_SUPPLY","inputs":[],"outputs":[{"name":"","type":"uint256","internalType":"uint256"}],"stateMutability":"view"},{"type":"function","name":"addGameContract","inputs":[{"name":"gameContract","type":"address","internalType":"address"}],"outputs":[],"stateMutability":"nonpayable"},{"type":"function","name":"allowance","inputs":[{"name":"owner","type":"address","internalType":"address"},{"name":"spender","type":"address","internalType":"address"}],"outputs":[{"name":"","type":"uint256","internalType":"uint256"}],"stateMutability":"view"},{"type":"function","name":"approve","inputs":[{"name":"spender","type":"address","internalType":"address"},{"name":"value","type":"uint256","internalType":"uint256"}],"outputs":[{"name":"","type":"bool","internalType":"bool"}],"stateMutability":"nonpayable"},{"type":"function","name":"balanceOf","inputs":[{"name":"account","type":"address","internalType":"address"}],"outputs":[{"name":"","type":"uint256","internalType":"uint256"}],"stateMutability":"view"},{"type":"function","name":"claimStakingRewards","inputs":[],"outputs":[],"stateMutability":"nonpayable"},{"type":"function","name":"decimals","inputs":[],"outputs":[{"name":"","type":"uint8","internalType":"uint8"}],"stateMutability":"view"},{"type":"function","name":"emergencyWithdraw","inputs":[{"name":"amount","type":"uint256","internalType":"uint256"}],"outputs":[],"stateMutability":"nonpayable"},{"type":"function","name":"gameContracts","inputs":[{"name":"","type":"address","internalType":"address"}],"outputs":[{"name":"","type":"bool","internalType":"bool"}],"stateMutability":"view"},{"type":"function","name":"getStreakMultiplier","inputs":[{"name":"streak","type":"uint256","internalType":"uint256"}],"outputs":[{"name":"","type":"uint256","internalType":"uint256"}],"stateMutability":"view"},{"type":"function","name":"getUserStakingInfo","inputs":[{"name":"user","type":"address","internalType":"address"}],"outputs":[{"name":"stakedAmount","type":"uint256","internalType":"uint256"},{"name":"pendingRewards","type":"uint256","internalType":"uint256"},{"name":"totalEarned","type":"uint256","internalType":"uint256"}],"stateMutability":"view"},{"type":"function","name":"name","inputs":[],"outputs":[{"name":"","type":"string","internalType":"string"}],"stateMutability":"view"},{"type":"function","name":"owner","inputs":[],"outputs":[{"name":"","type":"address","internalType":"address"}],"stateMutability":"view"},{"type":"function","name":"removeGameContract","inputs":[{"name":"gameContract","type":"address","internalType":"address"}],"outputs":[],"stateMutability":"nonpayable"},{"type":"function","name":"renounceOwnership","inputs":[],"outputs":[],"stateMutability":"nonpayable"},{"type":"function","name":"rewardTreePlanting","inputs":[{"name":"user","type":"address","internalType":"address"},{"name":"donationAmountUSD","type":"uint256","internalType":"uint256"}],"outputs":[],"stateMutability":"nonpayable"},{"type":"function","name":"rewardWaterAction","inputs":[{"name":"user","type":"address","internalType":"address"},{"name":"waterStreak","type":"uint256","internalType":"uint256"},{"name":"weatherMultiplierBPS","type":"uint256","internalType":"uint256"}],"outputs":[],"stateMutability":"nonpayable"},{"type":"function","name":"stakeTokens","inputs":[{"name":"amount","type":"uint256","internalType":"uint256"}],"outputs":[],"stateMutability":"nonpayable"},{"type":"function","name":"stakingRewardRate","inputs":[],"outputs":[{"name":"","type":"uint256","internalType":"uint256"}],"stateMutability":"view"},{"type":"function","name":"streakMultipliers","inputs":[{"name":"","type":"uint256","internalType":"uint256"}],"outputs":[{"name":"minStreak","type":"uint256","internalType":"uint256"},{"name":"multiplierBPS","type":"uint256","internalType":"uint256"}],"stateMutability":"view"},{"type":"function","name":"symbol","inputs":[],"outputs":[{"name":"","type":"string","internalType":"string"}],"stateMutability":"view"},{"type":"function","name":"totalStaked","inputs":[],"outputs":[{"name":"","type":"uint256","internalType":"uint256"}],"stateMutability":"view"},{"type":"function","name":"totalSupply","inputs":[],"outputs":[{"name":"","type":"uint256","internalType":"uint256"}],"stateMutability":"view"},{"type":"function","name":"transfer","inputs":[{"name":"to","type":"address","internalType":"address"},{"name":"value","type":"uint256","internalType":"uint256"}],"outputs":[{"name":"","type":"bool","internalType":"bool"}],"stateMutability":"nonpayable"},{"type":"function","name":"transferFrom","inputs":[{"name":"from","type":"address","internalType":"address"},{"name":"to","type":"address","internalType":"address"},{"name":"value","type":"uint256","internalType":"uint256"}],"outputs":[{"name":"","type":"bool","internalType":"bool"}],"stateMutability":"nonpayable"},{"type":"function","name":"transferOwnership","inputs":[{"name":"newOwner","type":"address","internalType":"address"}],"outputs":[],"stateMutability":"nonpayable"},{"type":"function","name":"unstakeTokens","inputs":[{"name":"amount","type":"uint256","internalType":"uint256"}],"outputs":[],"stateMutability":"nonpayable"},{"type":"function","name":"updateStakingRate","inputs":[{"name":"newRate","type":"uint256","internalType":"uint256"}],"outputs":[],"stateMutability":"nonpayable"},{"type":"function","name":"userRewards","inputs":[{"name":"","type":"address","internalType":"address"}],"outputs":[{"name":"dailyEarned","type":"uint256","internalType":"uint256"},{"name":"lastClaimDay","type":"uint256","internalType":"uint256"},{"name":"totalEarned","type":"uint256","internalType":"uint256"},{"name":"stakedAmount","type":"uint256","internalType":"uint256"},{"name":"stakeStartTime","type":"uint256","internalType":"uint256"}],"stateMutability":"view"},{"type":"event","name":"Approval","inputs":[{"name":"owner","type":"address","indexed":true,"internalType":"address"},{"name":"spender","type":"address","indexed":true,"internalType":"address"},{"name":"value","type":"uint256","indexed":false,"internalType":"uint256"}],"anonymous":false},{"type":"event","name":"OwnershipTransferred","inputs":[{"name":"previousOwner","type":"address","indexed":true,"internalType":"address"},{"name":"newOwner","type":"address","indexed":true,"internalType":"address"}],"anonymous":false},{"type":"event","name":"RewardsClaimed","inputs":[{"name":"user","type":"address","indexed":true,"internalType":"address"},{"name":"amount","type":"uint256","indexed":false,"internalType":"uint256"},{"name":"action","type":"string","indexed":false,"internalType":"string"}],"anonymous":false},{"type":"event","name":"StreakBonus","inputs":[{"name":"user","type":"address","indexed":true,"internalType":"address"},{"name":"streak","type":"uint256","indexed":false,"internalType":"uint256"},{"name":"bonus","type":"uint256","indexed":false,"internalType":"uint256"}],"anonymous":false},{"type":"event","name":"TokensStaked","inputs":[{"name":"user","type":"address","indexed":true,"internalType":"address"},{"name":"amount","type":"uint256","indexed":false,"internalType":"uint256"}],"anonymous":false},{"type":"event","name":"TokensUnstaked","inputs":[{"name":"user","type":"address","indexed":true,"internalType":"address"},{"name":"amount","type":"uint256","indexed":false,"internalType":"uint256"}],"anonymous":false},{"type":"event","name":"Transfer","inputs":[{"name":"from","type":"address","indexed":true,"internalType":"address"},{"name":"to","type":"address","indexed":true,"internalType":"address"},{"name":"value","type":"uint256","indexed":false,"internalType":"uint256"}],"anonymous":false},{"type":"error","name":"ERC20InsufficientAllowance","inputs":[{"name":"spender","type":"address","internalType":"address"},{"name":"allowance","type":"uint256","internalType":"uint256"},{"name":"needed","type":"uint256","internalType":"uint256"}]},{"type":"error","name":"ERC20InsufficientBalance","inputs":[{"name":"sender","type":"address","internalType":"address"},{"name":"balance","type":"uint256","internalType":"uint256"},{"name":"needed","type":"uint256","internalType":"uint256"}]},{"type":"error","name":"ERC20InvalidApprover","inputs":[{"name":"approver","type":"address","internalType":"address"}]},{"type":"error","name":"ERC20InvalidReceiver","inputs":[{"name":"receiver","type":"address","internalType":"address"}]},{"type":"error","name":"ERC20InvalidSender","inputs":[{"name":"sender","type":"address","internalType":"address"}]},{"type":"error","name":"ERC20InvalidSpender","inputs":[{"name":"spender","type":"address","internalType":"address"}]},{"type":"error","name":"OwnableInvalidOwner","inputs":[{"name":"owner","type":"address","internalType":"address"}]},{"type":"error","name":"OwnableUnauthorizedAccount","inputs":[{"name":"account","type":"address","internalType":"address"}]},{"type":"error","name":"ReentrancyGuardReentrantCall","inputs":[]}],"bytecode":{"object":"0x60806040526101f4600a5534801562000016575f80fd5b50336040518060400160405280600f81526020016e263ab6b0a937b7ba39902a37b5b2b760891b81525060405180604001604052806005815260200164524f4f545360d81b81525081600390816200006f9190620004d4565b5060046200007e8282620004d4565b5050506001600160a01b038116620000b057604051631e4fbdf760e01b81525f60048201526024015b60405180910390fd5b620000bb8162000213565b5060017f9b779b17422d0df92223018b32b4d1fa46e071723d6817e2486d003becc55f005560408051808201825260078152613a98602080830191825260088054600181810183555f838152955160029283027ff3f7a9fe364faab93b216da50a3214154f22a0a2b415b23a84c8169e8b636ee38181019290925595517ff3f7a9fe364faab93b216da50a3214154f22a0a2b415b23a84c8169e8b636ee49687015587518089018952600e815261445c81870190815285548085018755868a5291519185028084019290925551908701558751808901909852601e8852614e209488019485528354918201845592909552945193909402938401929092559051910155620001d6306b033b2e3c9fd0803ce800000062000264565b6200020d30620001ee6005546001600160a01b031690565b62000207600a6b033b2e3c9fd0803ce8000000620005a0565b620002a0565b620005e6565b600580546001600160a01b038381166001600160a01b0319831681179093556040519116919082907f8be0079c531659141344cd1fd0a4f28419497f9722a3daafe3b4186f6b6457e0905f90a35050565b6001600160a01b0382166200028f5760405163ec442f0560e01b81525f6004820152602401620000a7565b6200029c5f838362000308565b5050565b6001600160a01b038316620002cb57604051634b637e8f60e11b81525f6004820152602401620000a7565b6001600160a01b038216620002f65760405163ec442f0560e01b81525f6004820152602401620000a7565b6200030383838362000308565b505050565b6001600160a01b03831662000336578060025f8282546200032a9190620005c0565b90915550620003a89050565b6001600160a01b0383165f90815260208190526040902054818110156200038a5760405163391434e360e21b81526001600160a01b03851660048201526024810182905260448101839052606401620000a7565b6001600160a01b0384165f9081526020819052604090209082900390555b6001600160a01b038216620003c657600280548290039055620003e4565b6001600160a01b0382165f9081526020819052604090208054820190555b816001600160a01b0316836001600160a01b03167fddf252ad1be2c89b69c2b068fc378daa952ba7f163c4a11628f55a4df523b3ef836040516200042a91815260200190565b60405180910390a3505050565b634e487b7160e01b5f52604160045260245ffd5b600181811c908216806200046057607f821691505b6020821081036200047f57634e487b7160e01b5f52602260045260245ffd5b50919050565b601f8211156200030357805f5260205f20601f840160051c81016020851015620004ac5750805b601f840160051c820191505b81811015620004cd575f8155600101620004b8565b5050505050565b81516001600160401b03811115620004f057620004f062000437565b62000508816200050184546200044b565b8462000485565b602080601f8311600181146200053e575f8415620005265750858301515b5f19600386901b1c1916600185901b17855562000598565b5f85815260208120601f198616915b828110156200056e578886015182559484019460019091019084016200054d565b50858210156200058c57878501515f19600388901b60f8161c191681555b505060018460011b0185555b505050505050565b5f82620005bb57634e487b7160e01b5f52601260045260245ffd5b500490565b80820180821115620005e057634e487b7160e01b5f52601160045260245ffd5b92915050565b61162a80620005f45f395ff3fe608060405234801561000f575f80fd5b50600436106101dc575f3560e01c806370a0823111610109578063902d55a51161009e578063cf889fbf1161006e578063cf889fbf14610469578063d136a94d1461047c578063dd62ed3e1461048c578063f2fde38b146104c4575f80fd5b8063902d55a514610413578063907650e41461042657806395d89b411461044e578063a9059cbb14610456575f80fd5b806380933608116100d957806380933608146103ae578063817b1cd2146103dc57806381cd08ee146103e55780638da5cb5b146103f8575f80fd5b806370a0823114610358578063715018a6146103805780637547c7a314610388578063765679021461039b575f80fd5b806339baa44e1161017f578063608e4dd01161014f578063608e4dd01461030857806367becdeb1461031b5780636b69e05b1461032e5780636ddd474d14610336575f80fd5b806339baa44e146102ca5780634f3fc2df146102d95780635312ea8e146102e25780635c74e025146102f5575f80fd5b80631787e892116101ba5780631787e8921461028157806318160ddd1461029657806323b872dd146102a8578063313ce567146102bb575f80fd5b80630660f1e8146101e057806306fdde0314610249578063095ea7b31461025e575b5f80fd5b61021c6101ee3660046113be565b60066020525f9081526040902080546001820154600283015460038401546004909401549293919290919085565b604080519586526020860194909452928401919091526060830152608082015260a0015b60405180910390f35b6102516104d7565b60405161024091906113de565b61027161026c36600461142a565b610567565b6040519015158152602001610240565b61029461028f36600461142a565b610580565b005b6002545b604051908152602001610240565b6102716102b6366004611452565b610718565b60405160128152602001610240565b61029a678ac7230489e8000081565b61029a600a5481565b6102946102f036600461148b565b61073b565b6102946103033660046113be565b6107cd565b61029461031636600461148b565b6107f5565b61029461032936600461148b565b6108f0565b61029461093f565b6102716103443660046113be565b60076020525f908152604090205460ff1681565b61029a6103663660046113be565b6001600160a01b03165f9081526020819052604090205490565b610294610a47565b61029461039636600461148b565b610a58565b6102946103a93660046114a2565b610b90565b6103c16103bc3660046113be565b610e19565b60408051938452602084019290925290820152606001610240565b61029a60095481565b6102946103f33660046113be565b610ec1565b6005546040516001600160a01b039091168152602001610240565b61029a6b033b2e3c9fd0803ce800000081565b61043961043436600461148b565b610eec565b60408051928352602083019190915201610240565b610251610f18565b61027161046436600461142a565b610f27565b61029a61047736600461148b565b610f34565b61029a683635c9adc5dea0000081565b61029a61049a3660046114d2565b6001600160a01b039182165f90815260016020908152604080832093909416825291909152205490565b6102946104d23660046113be565b610fc3565b6060600380546104e690611503565b80601f016020809104026020016040519081016040528092919081815260200182805461051290611503565b801561055d5780601f106105345761010080835404028352916020019161055d565b820191905f5260205f20905b81548152906001019060200180831161054057829003601f168201915b5050505050905090565b5f33610574818585610ffd565b60019150505b92915050565b335f9081526007602052604090205460ff166105e35760405162461bcd60e51b815260206004820152601c60248201527f4e6f7420617574686f72697a65642067616d6520636f6e74726163740000000060448201526064015b60405180910390fd5b6105eb61100a565b6001600160a01b0382166106385760405162461bcd60e51b8152602060048201526014602482015273496e76616c69642075736572206164647265737360601b60448201526064016105da565b5f61064482606461154f565b61065690670de0b6b3a764000061154f565b6001600160a01b0384165f9081526006602052604081206002810180549394509092849290610686908490611566565b909155506106979050308584611025565b836001600160a01b03167fecf8d409d1fc30fa851e04b6428fc62fa61b820d142192c69142a9d185d72710836040516106f4918152604060208201819052600a9082015269706c616e745f7472656560b01b606082015260800190565b60405180910390a2505061071460015f805160206115d583398151915255565b5050565b5f33610725858285611082565b610730858585611025565b506001949350505050565b6107436110fe565b600954305f9081526020819052604090205461075f9190611579565b8111156107ae5760405162461bcd60e51b815260206004820152601d60248201527f43616e6e6f74207769746864726177207374616b656420746f6b656e7300000060448201526064016105da565b6107ca306107c46005546001600160a01b031690565b83611025565b50565b6107d56110fe565b6001600160a01b03165f908152600760205260409020805460ff19169055565b6107fd61100a565b335f908152600660205260409020600381015482111561085f5760405162461bcd60e51b815260206004820152601a60248201527f496e73756666696369656e74207374616b656420616d6f756e7400000000000060448201526064016105da565b61086761093f565b81816003015f82825461087a9190611579565b925050819055508160095f8282546108929190611579565b909155506108a39050303384611025565b60405182815233907f9845e367b683334e5c0b12d7b81721ac518e649376fa65e3d68324e8f34f2679906020015b60405180910390a2506107ca60015f805160206115d583398151915255565b6108f86110fe565b6107d081111561093a5760405162461bcd60e51b815260206004820152600d60248201526c0a4c2e8ca40e8dede40d0d2ced609b1b60448201526064016105da565b600a55565b61094761100a565b335f90815260066020526040812060038101549091036109675750610a2f565b5f8160040154426109789190611579565b90505f64496cebb80082600a548560030154610994919061154f565b61099e919061154f565b6109a8919061158c565b90508015610a2b574260048401556109c1303383611025565b336001600160a01b03167fecf8d409d1fc30fa851e04b6428fc62fa61b820d142192c69142a9d185d7271082604051610a22918152604060208201819052600e908201526d1cdd185ada5b99d7dc995dd85c9960921b606082015260800190565b60405180910390a25b5050505b610a4560015f805160206115d583398151915255565b565b610a4f6110fe565b610a455f61112b565b610a6061100a565b5f8111610aa75760405162461bcd60e51b815260206004820152601560248201527443616e6e6f74207374616b65203020746f6b656e7360581b60448201526064016105da565b335f90815260208190526040902054811115610afc5760405162461bcd60e51b8152602060048201526014602482015273496e73756666696369656e742062616c616e636560601b60448201526064016105da565b335f908152600660205260409020600381015415610b1c57610b1c61093f565b610b27333084611025565b81816003015f828254610b3a9190611566565b9091555050426004820155600980548391905f90610b59908490611566565b909155505060405182815233907fb539ca1e5c8d398ddf1c41c30166f33404941683be4683319b57669a93dad4ef906020016108d1565b335f9081526007602052604090205460ff16610bee5760405162461bcd60e51b815260206004820152601c60248201527f4e6f7420617574686f72697a65642067616d6520636f6e74726163740000000060448201526064016105da565b610bf661100a565b6001600160a01b038316610c435760405162461bcd60e51b8152602060048201526014602482015273496e76616c69642075736572206164647265737360601b60448201526064016105da565b6001600160a01b0383165f90815260066020526040812090610c68620151804261158c565b905080826001015414610c80575f8255600182018190555b678ac7230489e800005f610c9386610f34565b90505f612710610ca3838561154f565b610cad919061158c565b90505f612710610cbd888461154f565b610cc7919061158c565b9050683635c9adc5dea0000081875f0154610ce29190611566565b1115610d00578554610cfd90683635c9adc5dea00000611579565b90505b8015610df85780865f015f828254610d189190611566565b9250508190555080866002015f828254610d329190611566565b90915550610d439050308a83611025565b886001600160a01b03167fecf8d409d1fc30fa851e04b6428fc62fa61b820d142192c69142a9d185d7271082604051610da1918152604060208201819052600b908201526a1dd85d195c97dc1b185b9d60aa1b606082015260800190565b60405180910390a2612710831115610df85760408051898152602081018590526001600160a01b038b16917f1f7ced502914e916794069209edc9bb5a0a25fe3cd8c8dfbcd6039d7eee4f25f910160405180910390a25b505050505050610e1460015f805160206115d583398151915255565b505050565b6001600160a01b0381165f908152600660209081526040808320815160a081018352815481526001820154938101939093526002810154918301829052600381015460608401819052600490910154608084015292918315610eb9575f816080015142610e869190611579565b905064496cebb80081600a548460600151610ea1919061154f565b610eab919061154f565b610eb5919061158c565b9350505b509193909250565b610ec96110fe565b6001600160a01b03165f908152600760205260409020805460ff19166001179055565b60088181548110610efb575f80fd5b5f9182526020909120600290910201805460019091015490915082565b6060600480546104e690611503565b5f33610574818585611025565b6008545f90612710905b8015610fbc576008610f51600183611579565b81548110610f6157610f616115ab565b905f5260205f2090600202015f01548410610faa576008610f83600183611579565b81548110610f9357610f936115ab565b905f5260205f209060020201600101549150610fbc565b80610fb4816115bf565b915050610f3e565b5092915050565b610fcb6110fe565b6001600160a01b038116610ff457604051631e4fbdf760e01b81525f60048201526024016105da565b6107ca8161112b565b610e14838383600161117c565b61101261124e565b60025f805160206115d583398151915255565b6001600160a01b03831661104e57604051634b637e8f60e11b81525f60048201526024016105da565b6001600160a01b0382166110775760405163ec442f0560e01b81525f60048201526024016105da565b610e1483838361127d565b6001600160a01b038381165f908152600160209081526040808320938616835292905220545f198110156110f857818110156110ea57604051637dc7a0d960e11b81526001600160a01b038416600482015260248101829052604481018390526064016105da565b6110f884848484035f61117c565b50505050565b6005546001600160a01b03163314610a455760405163118cdaa760e01b81523360048201526024016105da565b600580546001600160a01b038381166001600160a01b0319831681179093556040519116919082907f8be0079c531659141344cd1fd0a4f28419497f9722a3daafe3b4186f6b6457e0905f90a35050565b6001600160a01b0384166111a55760405163e602df0560e01b81525f60048201526024016105da565b6001600160a01b0383166111ce57604051634a1406b160e11b81525f60048201526024016105da565b6001600160a01b038085165f90815260016020908152604080832093871683529290522082905580156110f857826001600160a01b0316846001600160a01b03167f8c5be1e5ebec7d5bd14f71427d1e84f3dd0314c0f7b2291e5b200ac8c7c3b9258460405161124091815260200190565b60405180910390a350505050565b5f805160206115d583398151915254600203610a4557604051633ee5aeb560e01b815260040160405180910390fd5b6001600160a01b0383166112a7578060025f82825461129c9190611566565b909155506113179050565b6001600160a01b0383165f90815260208190526040902054818110156112f95760405163391434e360e21b81526001600160a01b038516600482015260248101829052604481018390526064016105da565b6001600160a01b0384165f9081526020819052604090209082900390555b6001600160a01b03821661133357600280548290039055611351565b6001600160a01b0382165f9081526020819052604090208054820190555b816001600160a01b0316836001600160a01b03167fddf252ad1be2c89b69c2b068fc378daa952ba7f163c4a11628f55a4df523b3ef8360405161139691815260200190565b60405180910390a3505050565b80356001600160a01b03811681146113b9575f80fd5b919050565b5f602082840312156113ce575f80fd5b6113d7826113a3565b9392505050565b5f602080835283518060208501525f5b8181101561140a578581018301518582016040015282016113ee565b505f604082860101526040601f19601f8301168501019250505092915050565b5f806040838503121561143b575f80fd5b611444836113a3565b946020939093013593505050565b5f805f60608486031215611464575f80fd5b61146d846113a3565b925061147b602085016113a3565b9150604084013590509250925092565b5f6020828403121561149b575f80fd5b5035919050565b5f805f606084860312156114b4575f80fd5b6114bd846113a3565b95602085013595506040909401359392505050565b5f80604083850312156114e3575f80fd5b6114ec836113a3565b91506114fa602084016113a3565b90509250929050565b600181811c9082168061151757607f821691505b60208210810361153557634e487b7160e01b5f52602260045260245ffd5b50919050565b634e487b7160e01b5f52601160045260245ffd5b808202811582820484141761057a5761057a61153b565b8082018082111561057a5761057a61153b565b8181038181111561057a5761057a61153b565b5f826115a657634e487b7160e01b5f52601260045260245ffd5b500490565b634e487b7160e01b5f52603260045260245ffd5b5f816115cd576115cd61153b565b505f19019056fe9b779b17422d0df92223018b32b4d1fa46e071723d6817e2486d003becc55f00a2646970667358221220ad02f56bc7cf8dda2d58d8f0cf4fa7cb10aeb1bdc63a20f4b77aa05b6d3fecb264736f6c63430008180033","linkReferences":{}},"methodIdentifiers":{"BASE_WATER_REWARD()":"39baa44e","MAX_DAILY_REWARDS()":"d136a94d","TOTAL_SUPPLY()":"902d55a5","addGameContract(address)":"81cd08ee","allowance(address,address)":"dd62ed3e","approve(address,uint256)":"095ea7b3","balanceOf(address)":"70a08231","claimStakingRewards()":"6b69e05b","decimals()":"313ce567","emergencyWithdraw(uint256)":"5312ea8e","gameContracts(address)":"6ddd474d","getStreakMultiplier(uint256)":"cf889fbf","getUserStakingInfo(address)":"80933608","name()":"06fdde03","owner()":"8da5cb5b","removeGameContract(address)":"5c74e025","renounceOwnership()":"715018a6","rewardTreePlanting(address,uint256)":"1787e892","rewardWaterAction(address,uint256,uint256)":"76567902","stakeTokens(uint256)":"7547c7a3","stakingRewardRate()":"4f3fc2df","streakMultipliers(uint256)":"907650e4","symbol()":"95d89b41","totalStaked()":"817b1cd2","totalSupply()":"18160ddd","transfer(address,uint256)":"a9059cbb","transferFrom(address,address,uint256)":"23b872dd","transferOwnership(address)":"f2fde38b","unstakeTokens(uint256)":"608e4dd0","updateStakingRate(uint256)":"67becdeb","userRewards(address)":"0660f1e8"},"id":43}