{"abi":[{"type":"constructor","inputs":[],"stateMutability":"nonpayable"},{"type":"function","name":"UPGRADE_INTERFACE_VERSION","inputs":[],"outputs":[{"name":"","type":"string","internalType":"string"}],"stateMutability":"view"},{"type":"function","name":"VERSION","inputs":[],"outputs":[{"name":"","type":"string","internalType":"string"}],"stateMutability":"view"},{"type":"function","name":"approve","inputs":[{"name":"to","type":"address","internalType":"address"},{"name":"tokenId","type":"uint256","internalType":"uint256"}],"outputs":[],"stateMutability":"nonpayable"},{"type":"function","name":"awardPoints","inputs":[{"name":"user","type":"address","internalType":"address"},{"name":"amount","type":"uint256","internalType":"uint256"}],"outputs":[],"stateMutability":"nonpayable"},{"type":"function","name":"balanceOf","inputs":[{"name":"owner","type":"address","internalType":"address"}],"outputs":[{"name":"","type":"uint256","internalType":"uint256"}],"stateMutability":"view"},{"type":"function","name":"calculateWaterPoints","inputs":[{"name":"user","type":"address","internalType":"address"}],"outputs":[{"name":"basePoints","type":"uint256","internalType":"uint256"},{"name":"streakBonus","type":"uint256","internalType":"uint256"},{"name":"totalPoints","type":"uint256","internalType":"uint256"}],"stateMutability":"view"},{"type":"function","name":"canWaterNow","inputs":[{"name":"user","type":"address","internalType":"address"}],"outputs":[{"name":"canWater","type":"bool","internalType":"bool"},{"name":"timeRemaining","type":"uint256","internalType":"uint256"}],"stateMutability":"view"},{"type":"function","name":"claimFreeTree","inputs":[],"outputs":[],"stateMutability":"nonpayable"},{"type":"function","name":"cooldownTime","inputs":[],"outputs":[{"name":"","type":"uint256","internalType":"uint256"}],"stateMutability":"view"},{"type":"function","name":"emergencyWithdraw","inputs":[],"outputs":[],"stateMutability":"nonpayable"},{"type":"function","name":"getApproved","inputs":[{"name":"tokenId","type":"uint256","internalType":"uint256"}],"outputs":[{"name":"","type":"address","internalType":"address"}],"stateMutability":"view"},{"type":"function","name":"getImplementation","inputs":[],"outputs":[{"name":"","type":"address","internalType":"address"}],"stateMutability":"view"},{"type":"function","name":"getPointsSettings","inputs":[],"outputs":[{"name":"_pointsPerWater","type":"uint256","internalType":"uint256"},{"name":"_streakBonusPoints","type":"uint256","internalType":"uint256"},{"name":"_maxStreakBonus","type":"uint256","internalType":"uint256"},{"name":"_pointsPerVirtualTree","type":"uint256","internalType":"uint256"}],"stateMutability":"view"},{"type":"function","name":"getPurchase","inputs":[{"name":"purchaseId","type":"uint256","internalType":"uint256"}],"outputs":[{"name":"buyer","type":"address","internalType":"address"},{"name":"speciesId","type":"uint256","internalType":"uint256"},{"name":"projectId","type":"uint256","internalType":"uint256"},{"name":"amountPaid","type":"uint256","internalType":"uint256"},{"name":"priceEUR","type":"uint256","internalType":"uint256"},{"name":"timestamp","type":"uint256","internalType":"uint256"},{"name":"processed","type":"bool","internalType":"bool"},{"name":"nftMinted","type":"bool","internalType":"bool"}],"stateMutability":"view"},{"type":"function","name":"getTotalTreeCount","inputs":[{"name":"user","type":"address","internalType":"address"}],"outputs":[{"name":"","type":"uint256","internalType":"uint256"}],"stateMutability":"view"},{"type":"function","name":"getUserForest","inputs":[{"name":"user","type":"address","internalType":"address"}],"outputs":[{"name":"virtualTrees","type":"uint256","internalType":"uint256"},{"name":"realTrees","type":"uint256","internalType":"uint256"},{"name":"totalTrees","type":"uint256","internalType":"uint256"},{"name":"points","type":"uint256","internalType":"uint256"},{"name":"hasFreeTree","type":"bool","internalType":"bool"}],"stateMutability":"view"},{"type":"function","name":"getUserPlant","inputs":[{"name":"user","type":"address","internalType":"address"}],"outputs":[{"name":"lastWaterTime","type":"uint256","internalType":"uint256"},{"name":"waterStreak","type":"uint256","internalType":"uint256"},{"name":"totalWaterCount","type":"uint256","internalType":"uint256"}],"stateMutability":"view"},{"type":"function","name":"getUserPurchaseCount","inputs":[{"name":"user","type":"address","internalType":"address"}],"outputs":[{"name":"","type":"uint256","internalType":"uint256"}],"stateMutability":"view"},{"type":"function","name":"getUserPurchases","inputs":[{"name":"user","type":"address","internalType":"address"}],"outputs":[{"name":"","type":"uint256[]","internalType":"uint256[]"}],"stateMutability":"view"},{"type":"function","name":"hasClaimedFreeTree","inputs":[{"name":"","type":"address","internalType":"address"}],"outputs":[{"name":"","type":"bool","internalType":"bool"}],"stateMutability":"view"},{"type":"function","name":"initialize","inputs":[{"name":"initialOwner","type":"address","internalType":"address"}],"outputs":[],"stateMutability":"nonpayable"},{"type":"function","name":"isApprovedForAll","inputs":[{"name":"owner","type":"address","internalType":"address"},{"name":"operator","type":"address","internalType":"address"}],"outputs":[{"name":"","type":"bool","internalType":"bool"}],"stateMutability":"view"},{"type":"function","name":"markPurchaseProcessed","inputs":[{"name":"purchaseId","type":"uint256","internalType":"uint256"}],"outputs":[],"stateMutability":"nonpayable"},{"type":"function","name":"maxStreakBonus","inputs":[],"outputs":[{"name":"","type":"uint256","internalType":"uint256"}],"stateMutability":"view"},{"type":"function","name":"minPurchaseAmount","inputs":[],"outputs":[{"name":"","type":"uint256","internalType":"uint256"}],"stateMutability":"view"},{"type":"function","name":"mintCertificate","inputs":[{"name":"purchaseId","type":"uint256","internalType":"uint256"},{"name":"tokenURI","type":"string","internalType":"string"},{"name":"treeNationId","type":"string","internalType":"string"}],"outputs":[],"stateMutability":"nonpayable"},{"type":"function","name":"name","inputs":[],"outputs":[{"name":"","type":"string","internalType":"string"}],"stateMutability":"view"},{"type":"function","name":"owner","inputs":[],"outputs":[{"name":"","type":"address","internalType":"address"}],"stateMutability":"view"},{"type":"function","name":"ownerOf","inputs":[{"name":"tokenId","type":"uint256","internalType":"uint256"}],"outputs":[{"name":"","type":"address","internalType":"address"}],"stateMutability":"view"},{"type":"function","name":"pause","inputs":[],"outputs":[],"stateMutability":"nonpayable"},{"type":"function","name":"paused","inputs":[],"outputs":[{"name":"","type":"bool","internalType":"bool"}],"stateMutability":"view"},{"type":"function","name":"pointsPerVirtualTree","inputs":[],"outputs":[{"name":"","type":"uint256","internalType":"uint256"}],"stateMutability":"view"},{"type":"function","name":"pointsPerWater","inputs":[],"outputs":[{"name":"","type":"uint256","internalType":"uint256"}],"stateMutability":"view"},{"type":"function","name":"proxiableUUID","inputs":[],"outputs":[{"name":"","type":"bytes32","internalType":"bytes32"}],"stateMutability":"view"},{"type":"function","name":"purchaseTree","inputs":[{"name":"speciesId","type":"uint256","internalType":"uint256"},{"name":"projectId","type":"uint256","internalType":"uint256"},{"name":"priceEUR","type":"uint256","internalType":"uint256"}],"outputs":[],"stateMutability":"payable"},{"type":"function","name":"purchases","inputs":[{"name":"","type":"uint256","internalType":"uint256"}],"outputs":[{"name":"buyer","type":"address","internalType":"address"},{"name":"speciesId","type":"uint256","internalType":"uint256"},{"name":"projectId","type":"uint256","internalType":"uint256"},{"name":"amountPaid","type":"uint256","internalType":"uint256"},{"name":"priceEUR","type":"uint256","internalType":"uint256"},{"name":"timestamp","type":"uint256","internalType":"uint256"},{"name":"processed","type":"bool","internalType":"bool"},{"name":"nftMinted","type":"bool","internalType":"bool"}],"stateMutability":"view"},{"type":"function","name":"redeemPointsForTree","inputs":[{"name":"numberOfTrees","type":"uint256","internalType":"uint256"}],"outputs":[],"stateMutability":"nonpayable"},{"type":"function","name":"renounceOwnership","inputs":[],"outputs":[],"stateMutability":"nonpayable"},{"type":"function","name":"safeTransferFrom","inputs":[{"name":"from","type":"address","internalType":"address"},{"name":"to","type":"address","internalType":"address"},{"name":"tokenId","type":"uint256","internalType":"uint256"}],"outputs":[],"stateMutability":"nonpayable"},{"type":"function","name":"safeTransferFrom","inputs":[{"name":"from","type":"address","internalType":"address"},{"name":"to","type":"address","internalType":"address"},{"name":"tokenId","type":"uint256","internalType":"uint256"},{"name":"data","type":"bytes","internalType":"bytes"}],"outputs":[],"stateMutability":"nonpayable"},{"type":"function","name":"setApprovalForAll","inputs":[{"name":"operator","type":"address","internalType":"address"},{"name":"approved","type":"bool","internalType":"bool"}],"outputs":[],"stateMutability":"nonpayable"},{"type":"function","name":"setCooldownTime","inputs":[{"name":"_seconds","type":"uint256","internalType":"uint256"}],"outputs":[],"stateMutability":"nonpayable"},{"type":"function","name":"setMinPurchaseAmount","inputs":[{"name":"_amount","type":"uint256","internalType":"uint256"}],"outputs":[],"stateMutability":"nonpayable"},{"type":"function","name":"setPointsSettings","inputs":[{"name":"_pointsPerWater","type":"uint256","internalType":"uint256"},{"name":"_streakBonusPoints","type":"uint256","internalType":"uint256"},{"name":"_maxStreakBonus","type":"uint256","internalType":"uint256"},{"name":"_pointsPerVirtualTree","type":"uint256","internalType":"uint256"}],"outputs":[],"stateMutability":"nonpayable"},{"type":"function","name":"streakBonusPoints","inputs":[],"outputs":[{"name":"","type":"uint256","internalType":"uint256"}],"stateMutability":"view"},{"type":"function","name":"supportsInterface","inputs":[{"name":"interfaceId","type":"bytes4","internalType":"bytes4"}],"outputs":[{"name":"","type":"bool","internalType":"bool"}],"stateMutability":"view"},{"type":"function","name":"symbol","inputs":[],"outputs":[{"name":"","type":"string","internalType":"string"}],"stateMutability":"view"},{"type":"function","name":"tokenIdToPurchaseId","inputs":[{"name":"","type":"uint256","internalType":"uint256"}],"outputs":[{"name":"","type":"uint256","internalType":"uint256"}],"stateMutability":"view"},{"type":"function","name":"tokenURI","inputs":[{"name":"tokenId","type":"uint256","internalType":"uint256"}],"outputs":[{"name":"","type":"string","internalType":"string"}],"stateMutability":"view"},{"type":"function","name":"totalPurchases","inputs":[],"outputs":[{"name":"","type":"uint256","internalType":"uint256"}],"stateMutability":"view"},{"type":"function","name":"totalSupply","inputs":[],"outputs":[{"name":"","type":"uint256","internalType":"uint256"}],"stateMutability":"view"},{"type":"function","name":"transferFrom","inputs":[{"name":"from","type":"address","internalType":"address"},{"name":"to","type":"address","internalType":"address"},{"name":"tokenId","type":"uint256","internalType":"uint256"}],"outputs":[],"stateMutability":"nonpayable"},{"type":"function","name":"transferOwnership","inputs":[{"name":"newOwner","type":"address","internalType":"address"}],"outputs":[],"stateMutability":"nonpayable"},{"type":"function","name":"unpause","inputs":[],"outputs":[],"stateMutability":"nonpayable"},{"type":"function","name":"upgradeToAndCall","inputs":[{"name":"newImplementation","type":"address","internalType":"address"},{"name":"data","type":"bytes","internalType":"bytes"}],"outputs":[],"stateMutability":"payable"},{"type":"function","name":"userPlants","inputs":[{"name":"","type":"address","internalType":"address"}],"outputs":[{"name":"lastWaterTime","type":"uint256","internalType":"uint256"},{"name":"waterStreak","type":"uint256","internalType":"uint256"},{"name":"totalWaterCount","type":"uint256","internalType":"uint256"}],"stateMutability":"view"},{"type":"function","name":"userPoints","inputs":[{"name":"","type":"address","internalType":"address"}],"outputs":[{"name":"","type":"uint256","internalType":"uint256"}],"stateMutability":"view"},{"type":"function","name":"userPurchaseIds","inputs":[{"name":"","type":"address","internalType":"address"},{"name":"","type":"uint256","internalType":"uint256"}],"outputs":[{"name":"","type":"uint256","internalType":"uint256"}],"stateMutability":"view"},{"type":"function","name":"virtualTreeCount","inputs":[{"name":"","type":"address","internalType":"address"}],"outputs":[{"name":"","type":"uint256","internalType":"uint256"}],"stateMutability":"view"},{"type":"function","name":"waterPlant","inputs":[],"outputs":[],"stateMutability":"nonpayable"},{"type":"event","name":"Approval","inputs":[{"name":"owner","type":"address","indexed":true,"internalType":"address"},{"name":"approved","type":"address","indexed":true,"internalType":"address"},{"name":"tokenId","type":"uint256","indexed":true,"internalType":"uint256"}],"anonymous":false},{"type":"event","name":"ApprovalForAll","inputs":[{"name":"owner","type":"address","indexed":true,"internalType":"address"},{"name":"operator","type":"address","indexed":true,"internalType":"address"},{"name":"approved","type":"bool","indexed":false,"internalType":"bool"}],"anonymous":false},{"type":"event","name":"BatchMetadataUpdate","inputs":[{"name":"_fromTokenId","type":"uint256","indexed":false,"internalType":"uint256"},{"name":"_toTokenId","type":"uint256","indexed":false,"internalType":"uint256"}],"anonymous":false},{"type":"event","name":"CertificateMinted","inputs":[{"name":"tokenId","type":"uint256","indexed":true,"internalType":"uint256"},{"name":"owner","type":"address","indexed":true,"internalType":"address"},{"name":"purchaseId","type":"uint256","indexed":true,"internalType":"uint256"},{"name":"treeNationId","type":"string","indexed":false,"internalType":"string"}],"anonymous":false},{"type":"event","name":"ContractPaused","inputs":[{"name":"by","type":"address","indexed":true,"internalType":"address"},{"name":"timestamp","type":"uint256","indexed":false,"internalType":"uint256"}],"anonymous":false},{"type":"event","name":"ContractUnpaused","inputs":[{"name":"by","type":"address","indexed":true,"internalType":"address"},{"name":"timestamp","type":"uint256","indexed":false,"internalType":"uint256"}],"anonymous":false},{"type":"event","name":"CooldownTimeUpdated","inputs":[{"name":"oldCooldown","type":"uint256","indexed":false,"internalType":"uint256"},{"name":"newCooldown","type":"uint256","indexed":false,"internalType":"uint256"}],"anonymous":false},{"type":"event","name":"FreeTreeClaimed","inputs":[{"name":"user","type":"address","indexed":true,"internalType":"address"},{"name":"timestamp","type":"uint256","indexed":false,"internalType":"uint256"}],"anonymous":false},{"type":"event","name":"Initialized","inputs":[{"name":"version","type":"uint64","indexed":false,"internalType":"uint64"}],"anonymous":false},{"type":"event","name":"MetadataUpdate","inputs":[{"name":"_tokenId","type":"uint256","indexed":false,"internalType":"uint256"}],"anonymous":false},{"type":"event","name":"MinPurchaseAmountUpdated","inputs":[{"name":"oldMin","type":"uint256","indexed":false,"internalType":"uint256"},{"name":"newMin","type":"uint256","indexed":false,"internalType":"uint256"}],"anonymous":false},{"type":"event","name":"OwnershipTransferred","inputs":[{"name":"previousOwner","type":"address","indexed":true,"internalType":"address"},{"name":"newOwner","type":"address","indexed":true,"internalType":"address"}],"anonymous":false},{"type":"event","name":"Paused","inputs":[{"name":"account","type":"address","indexed":false,"internalType":"address"}],"anonymous":false},{"type":"event","name":"PlantWatered","inputs":[{"name":"user","type":"address","indexed":true,"internalType":"address"},{"name":"newStreak","type":"uint256","indexed":false,"internalType":"uint256"},{"name":"totalWaterCount","type":"uint256","indexed":false,"internalType":"uint256"},{"name":"pointsEarned","type":"uint256","indexed":false,"internalType":"uint256"},{"name":"totalPoints","type":"uint256","indexed":false,"internalType":"uint256"},{"name":"timestamp","type":"uint256","indexed":false,"internalType":"uint256"}],"anonymous":false},{"type":"event","name":"PointsSettingsUpdated","inputs":[{"name":"pointsPerWater","type":"uint256","indexed":false,"internalType":"uint256"},{"name":"streakBonus","type":"uint256","indexed":false,"internalType":"uint256"},{"name":"maxStreak","type":"uint256","indexed":false,"internalType":"uint256"},{"name":"redeemCost","type":"uint256","indexed":false,"internalType":"uint256"}],"anonymous":false},{"type":"event","name":"Transfer","inputs":[{"name":"from","type":"address","indexed":true,"internalType":"address"},{"name":"to","type":"address","indexed":true,"internalType":"address"},{"name":"tokenId","type":"uint256","indexed":true,"internalType":"uint256"}],"anonymous":false},{"type":"event","name":"TreePurchased","inputs":[{"name":"purchaseId","type":"uint256","indexed":true,"internalType":"uint256"},{"name":"buyer","type":"address","indexed":true,"internalType":"address"},{"name":"speciesId","type":"uint256","indexed":false,"internalType":"uint256"},{"name":"projectId","type":"uint256","indexed":false,"internalType":"uint256"},{"name":"amountPaid","type":"uint256","indexed":false,"internalType":"uint256"},{"name":"priceEUR","type":"uint256","indexed":false,"internalType":"uint256"},{"name":"timestamp","type":"uint256","indexed":false,"internalType":"uint256"}],"anonymous":false},{"type":"event","name":"Unpaused","inputs":[{"name":"account","type":"address","indexed":false,"internalType":"address"}],"anonymous":false},{"type":"event","name":"Upgraded","inputs":[{"name":"implementation","type":"address","indexed":true,"internalType":"address"}],"anonymous":false},{"type":"event","name":"VirtualTreeRedeemed","inputs":[{"name":"user","type":"address","indexed":true,"internalType":"address"},{"name":"pointsSpent","type":"uint256","indexed":false,"internalType":"uint256"},{"name":"newTreeCount","type":"uint256","indexed":false,"internalType":"uint256"},{"name":"timestamp","type":"uint256","indexed":false,"internalType":"uint256"}],"anonymous":false},{"type":"error","name":"AddressEmptyCode","inputs":[{"name":"target","type":"address","internalType":"address"}]},{"type":"error","name":"ERC1967InvalidImplementation","inputs":[{"name":"implementation","type":"address","internalType":"address"}]},{"type":"error","name":"ERC1967NonPayable","inputs":[]},{"type":"error","name":"ERC721IncorrectOwner","inputs":[{"name":"sender","type":"address","internalType":"address"},{"name":"tokenId","type":"uint256","internalType":"uint256"},{"name":"owner","type":"address","internalType":"address"}]},{"type":"error","name":"ERC721InsufficientApproval","inputs":[{"name":"operator","type":"address","internalType":"address"},{"name":"tokenId","type":"uint256","internalType":"uint256"}]},{"type":"error","name":"ERC721InvalidApprover","inputs":[{"name":"approver","type":"address","internalType":"address"}]},{"type":"error","name":"ERC721InvalidOperator","inputs":[{"name":"operator","type":"address","internalType":"address"}]},{"type":"error","name":"ERC721InvalidOwner","inputs":[{"name":"owner","type":"address","internalType":"address"}]},{"type":"error","name":"ERC721InvalidReceiver","inputs":[{"name":"receiver","type":"address","internalType":"address"}]},{"type":"error","name":"ERC721InvalidSender","inputs":[{"name":"sender","type":"address","internalType":"address"}]},{"type":"error","name":"ERC721NonexistentToken","inputs":[{"name":"tokenId","type":"uint256","internalType":"uint256"}]},{"type":"error","name":"EnforcedPause","inputs":[]},{"type":"error","name":"ExpectedPause","inputs":[]},{"type":"error","name":"FailedCall","inputs":[]},{"type":"error","name":"InvalidInitialization","inputs":[]},{"type":"error","name":"NotInitializing","inputs":[]},{"type":"error","name":"OwnableInvalidOwner","inputs":[{"name":"owner","type":"address","internalType":"address"}]},{"type":"error","name":"OwnableUnauthorizedAccount","inputs":[{"name":"account","type":"address","internalType":"address"}]},{"type":"error","name":"ReentrancyGuardReentrantCall","inputs":[]},{"type":"error","name":"UUPSUnauthorizedCallContext","inputs":[]},{"type":"error","name":"UUPSUnsupportedProxiableUUID","inputs":[{"name":"slot","type":"bytes32","internalType":"bytes32"}]}],"bytecode":{"object":"0x60a06040523060805234801562000014575f80fd5b5060017f9b779b17422d0df92223018b32b4d1fa46e071723d6817e2486d003becc55f00556200004362000049565b620000fd565b7ff0c57e16840df040f15088dc2f81fe391c3923bec73e23a9662efc9c229c6a00805468010000000000000000900460ff16156200009a5760405163f92ee8a960e01b815260040160405180910390fd5b80546001600160401b0390811614620000fa5780546001600160401b0319166001600160401b0390811782556040519081527fc7f505b2f371ae2175ee4913f4499e1f2633a7b5936321eed1cdaeb6115181d29060200160405180910390a15b50565b6080516136de620001245f395f81816124520152818161247b01526125ba01526136de5ff3fe608060405260043610610387575f3560e01c80638392fe31116101d3578063b74ff582116100fd578063d525eed51161009d578063e9d3fb781161006d578063e9d3fb7814610bac578063f2fde38b14610bcb578063f50ddbc714610bea578063ffa1ad7414610c15575f80fd5b8063d525eed514610b45578063db2e21bc14610b5a578063e8bec08f14610b6e578063e985e9c514610b8d575f80fd5b8063c4d66de8116100d8578063c4d66de814610abc578063c6e5d8f614610adb578063c87b56dd14610b07578063c8d3ab6414610b26575f80fd5b8063b74ff58214610a44578063b88d4fde14610a72578063c40585f914610a91575f80fd5b8063aaf10f4211610173578063b21c20c111610143578063b21c20c1146109f2578063b2eb53a114610a06578063b319c6b714610a1a578063b47dbf2214610a2f575f80fd5b8063aaf10f421461094e578063ad3cb1cc14610962578063ae8af90914610992578063b077a9a7146109d3575f80fd5b806391b96b63116101ae57806391b96b63146108b157806395d89b41146108e557806397a64469146108f9578063a22cb4651461092f575f80fd5b80638392fe311461081d5780638456cb59146108895780638da5cb5b1461089d575f80fd5b80633f4ba83a116102b45780635c975abb11610254578063715018a611610224578063715018a61461078e578063763bf2a7146107a25780637cc31959146107eb578063832e34a71461080a575f80fd5b80635c975abb1461070e5780636352211e146107315780636ff732011461075057806370a082311461076f575f80fd5b80634f1ef2861161028f5780634f1ef286146106b45780634fe16257146106c757806352d1902d146106e65780635962a941146106fa575f80fd5b80633f4ba83a1461066257806342842e0e146106765780634d2f001214610695575f80fd5b806323b872dd1161032a57806336f71682116102fa57806336f716821461050c5780633742a9f7146105215780633910ba47146105d55780633b47775c1461062a575f80fd5b806323b872dd1461048457806327994aa4146104a3578063284fb88f146104c257806331545e6c146104ed575f80fd5b8063095ea7b311610365578063095ea7b31461041757806309bf73fe1461043857806318160ddd1461045b5780632217674b1461046f575f80fd5b806301ffc9a71461038b57806306fdde03146103bf578063081812fc146103e0575b5f80fd5b348015610396575f80fd5b506103aa6103a5366004613044565b610c45565b60405190151581526020015b60405180910390f35b3480156103ca575f80fd5b506103d3610c6f565b6040516103b691906130ac565b3480156103eb575f80fd5b506103ff6103fa3660046130be565b610d10565b6040516001600160a01b0390911681526020016103b6565b348015610422575f80fd5b506104366104313660046130f0565b610d24565b005b348015610443575f80fd5b5061044d600b5481565b6040519081526020016103b6565b348015610466575f80fd5b5060055461044d565b34801561047a575f80fd5b5061044d600d5481565b34801561048f575f80fd5b5061043661049e366004613118565b610d33565b3480156104ae575f80fd5b506104366104bd3660046131ee565b610dc1565b3480156104cd575f80fd5b5061044d6104dc366004613256565b60086020525f908152604090205481565b3480156104f8575f80fd5b506104366105073660046130be565b610f6d565b348015610517575f80fd5b5061044d600c5481565b34801561052c575f80fd5b5061058c61053b3660046130be565b5f90815260026020819052604090912080546001820154928201546003830154600484015460058501546006909501546001600160a01b039094169692949193909260ff8083169261010090041690565b604080516001600160a01b0390991689526020890197909752958701949094526060860192909252608085015260a0840152151560c0830152151560e0820152610100016103b6565b3480156105e0575f80fd5b5061060f6105ef366004613256565b5f6020819052908152604090208054600182015460029092015490919083565b604080519384526020840192909252908201526060016103b6565b348015610635575f80fd5b50600b54600c54600d54600e546040805194855260208501939093529183015260608201526080016103b6565b34801561066d575f80fd5b50610436611028565b348015610681575f80fd5b50610436610690366004613118565b611070565b3480156106a0575f80fd5b5061060f6106af366004613256565b61108f565b6104366106c236600461326f565b611179565b3480156106d2575f80fd5b5061044d6106e1366004613256565b611194565b3480156106f1575f80fd5b5061044d6111c9565b348015610705575f80fd5b5060045461044d565b348015610719575f80fd5b505f805160206136898339815191525460ff166103aa565b34801561073c575f80fd5b506103ff61074b3660046130be565b6111e4565b34801561075b575f80fd5b5061043661076a3660046130be565b6111ee565b34801561077a575f80fd5b5061044d610789366004613256565b611279565b348015610799575f80fd5b506104366112d1565b3480156107ad575f80fd5b506107c16107bc366004613256565b6112e4565b6040805195865260208601949094529284019190915260608301521515608082015260a0016103b6565b3480156107f6575f80fd5b506104366108053660046130be565b61134d565b6104366108183660046132ba565b61149f565b348015610828575f80fd5b5061058c6108373660046130be565b600260208190525f918252604090912080546001820154928201546003830154600484015460058501546006909501546001600160a01b03909416959492939192909160ff8082169161010090041688565b348015610894575f80fd5b5061043661179c565b3480156108a8575f80fd5b506103ff6117de565b3480156108bc575f80fd5b5061044d6108cb366004613256565b6001600160a01b03165f9081526003602052604090205490565b3480156108f0575f80fd5b506103d361180c565b348015610904575f80fd5b50610918610913366004613256565b61184a565b6040805192151583526020830191909152016103b6565b34801561093a575f80fd5b506104366109493660046132e3565b6118a2565b348015610959575f80fd5b506103ff6118ad565b34801561096d575f80fd5b506103d3604051806040016040528060058152602001640352e302e360dc1b81525081565b34801561099d575f80fd5b5061060f6109ac366004613256565b6001600160a01b03165f908152602081905260409020805460018201546002909201549092565b3480156109de575f80fd5b5061044d6109ed3660046130f0565b6118d1565b3480156109fd575f80fd5b506104366118fc565b348015610a11575f80fd5b506104366119bc565b348015610a25575f80fd5b5061044d60015481565b348015610a3a575f80fd5b5061044d60075481565b348015610a4f575f80fd5b506103aa610a5e366004613256565b60096020525f908152604090205460ff1681565b348015610a7d575f80fd5b50610436610a8c36600461331c565b611c04565b348015610a9c575f80fd5b5061044d610aab3660046130be565b60066020525f908152604090205481565b348015610ac7575f80fd5b50610436610ad6366004613256565b611c1c565b348015610ae6575f80fd5b50610afa610af5366004613256565b611db4565b6040516103b69190613380565b348015610b12575f80fd5b506103d3610b213660046130be565b611e1d565b348015610b31575f80fd5b50610436610b403660046133c3565b611f4c565b348015610b50575f80fd5b5061044d600e5481565b348015610b65575f80fd5b50610436611fb6565b348015610b79575f80fd5b50610436610b883660046130f0565b612059565b348015610b98575f80fd5b506103aa610ba73660046133f2565b612091565b348015610bb7575f80fd5b50610436610bc63660046130be565b6120dd565b348015610bd6575f80fd5b50610436610be5366004613256565b612123565b348015610bf5575f80fd5b5061044d610c04366004613256565b600a6020525f908152604090205481565b348015610c20575f80fd5b506103d3604051806040016040528060058152602001640312e312e360dc1b81525081565b5f6001600160e01b03198216632483248360e11b1480610c695750610c698261215d565b92915050565b5f805160206136498339815191528054606091908190610c8e90613423565b80601f0160208091040260200160405190810160405280929190818152602001828054610cba90613423565b8015610d055780601f10610cdc57610100808354040283529160200191610d05565b820191905f5260205f20905b815481529060010190602001808311610ce857829003601f168201915b505050505091505090565b5f610d1a826121ac565b50610c69826121e3565b610d2f82823361221c565b5050565b6001600160a01b038216610d6157604051633250574960e11b81525f60048201526024015b60405180910390fd5b5f610d6d838333612229565b9050836001600160a01b0316816001600160a01b031614610dbb576040516364283d7b60e01b81526001600160a01b0380861660048301526024820184905282166044820152606401610d58565b50505050565b610dc961232b565b5f83815260026020526040902080546001600160a01b0316610e225760405162461bcd60e51b8152602060048201526012602482015271141d5c98da185cd9481b9bdd08199bdd5b9960721b6044820152606401610d58565b600681015460ff16610e765760405162461bcd60e51b815260206004820152601a60248201527f5075726368617365206e6f74207965742070726f6365737365640000000000006044820152606401610d58565b6006810154610100900460ff1615610ec55760405162461bcd60e51b815260206004820152601260248201527113919508185b1c9958591e481b5a5b9d195960721b6044820152606401610d58565b60058054906001905f610ed8838561346f565b90915550508154610ef2906001600160a01b03168261235d565b610efc8185612376565b5f818152600660208190526040918290208790558301805461ff0019166101001790558254905186916001600160a01b03169083907fc634e044312eb7dc5719a0882979ef83fff07a9c7c0be5ed5d068b63a246729e90610f5e9088906130ac565b60405180910390a45050505050565b610f7561232b565b5f81815260026020526040902080546001600160a01b0316610fce5760405162461bcd60e51b8152602060048201526012602482015271141d5c98da185cd9481b9bdd08199bdd5b9960721b6044820152606401610d58565b600681015460ff16156110175760405162461bcd60e51b8152602060048201526011602482015270105b1c9958591e481c1c9bd8d95cdcd959607a1b6044820152606401610d58565b600601805460ff1916600117905550565b61103061232b565b6110386123e8565b60405142815233907f107553d8191d85b405879cf752997865edd48d94e20bda4dd27223c94b31a7cc906020015b60405180910390a2565b61108a83838360405180602001604052805f815250611c04565b505050565b6001600160a01b0381165f90815260208190526040812081908190816110b486611194565b9050805f036110cd575f805f9450945094505050611172565b80600b546110db9190613482565b60018301548354919650905f036110f45750600161112b565b600154611102906002613482565b835461110e919061346f565b42111561111d5750600161112b565b61112860018261346f565b90505b6001811115611162575f611140600183613499565b9050600d548111156111515750600d545b600c5461115e9082613482565b9550505b61116c858761346f565b93505050505b9193909250565b611181612447565b61118a826124eb565b610d2f82826124f3565b6001600160a01b0381165f9081526003602090815260408083205460089092528220546111c1818361346f565b949350505050565b5f6111d26125af565b505f8051602061366983398151915290565b5f610c69826121ac565b6111f661232b565b5f81116112335760405162461bcd60e51b815260206004820152600b60248201526a04d757374206265203e20360ac1b6044820152606401610d58565b600180549082905560408051828152602081018490527f4de458dc03da0c08fe90cb2839f5929d4127eb0d2509e74b195cb4ce6ec8717991015b60405180910390a15050565b5f5f805160206136498339815191526001600160a01b0383166112b1576040516322718ad960e21b81525f6004820152602401610d58565b6001600160a01b039092165f908152600390920160205250604090205490565b6112d961232b565b6112e25f6125f8565b565b6001600160a01b0381165f90815260086020908152604080832054600390925282205490918080611315848661346f565b6001600160a01b039096165f908152600a60209081526040808320546009909252909120549597949695909460ff9091169350915050565b611355612668565b5f81116113a45760405162461bcd60e51b815260206004820152601b60248201527f4d7573742072656465656d206174206c656173742031207472656500000000006044820152606401610d58565b5f81600e546113b39190613482565b335f908152600a60205260409020549091508111156114085760405162461bcd60e51b81526020600482015260116024820152704e6f7420656e6f75676820706f696e747360781b6044820152606401610d58565b335f908152600a602052604081208054839290611426908490613499565b9091555050335f908152600860205260408120805484929061144990849061346f565b9091555050335f8181526008602090815260409182902054825185815291820152428183015290517f35c3d1b3513f5d529d75c941c41e19f01baabcea58e34245041a0dd7d1172b7c9181900360600190a25050565b6114a7612698565b6114af612668565b6007543410156115015760405162461bcd60e51b815260206004820152601d60248201527f42656c6f77206d696e696d756d20707572636861736520616d6f756e740000006044820152606401610d58565b5f83116115455760405162461bcd60e51b8152602060048201526012602482015271125b9d985b1a59081cdc1958da595cc8125160721b6044820152606401610d58565b5f82116115895760405162461bcd60e51b8152602060048201526012602482015271125b9d985b1a59081c1c9bda9958dd08125160721b6044820152606401610d58565b60048054906001905f61159c838561346f565b90915550506040805161010080820183523380835260208084018981528486018981523460608701908152608087018a81524260a089019081525f60c08a0181815260e08b018281528d83526002808a528d84209c518d546001600160a01b0319166001600160a01b03909116178d5597516001808e01919091559651978c019790975593516003808c0191909155925160048b0155905160058a0155915160069098018054945161ffff1990951698151561ff00191698909817931515909602929092179095559182529182529283208054928301815583528220018290556116846117de565b6001600160a01b0316346040515f6040518083038185875af1925050503d805f81146116cb576040519150601f19603f3d011682016040523d82523d5f602084013e6116d0565b606091505b50509050806117215760405162461bcd60e51b815260206004820152601860248201527f5472616e7366657220746f206f776e6572206661696c656400000000000000006044820152606401610d58565b60408051868152602081018690523481830152606081018590524260808201529051339184917f911be2cd16382523d81842f46c40471e61d654b6e45667d36e530e620363dc359181900360a00190a3505061108a60017f9b779b17422d0df92223018b32b4d1fa46e071723d6817e2486d003becc55f0055565b6117a461232b565b6117ac6126c6565b60405142815233907f80170b5fcdd2bf1e0660ef4b8851f86685f64d41b1a19de1471947ece8725aac90602001611066565b7f9016d09d72d40fdae2fd8ceac6b6234c7706214fd39c1cd1e609a0528c199300546001600160a01b031690565b7f80bb2b638cc20bc4d0a60d66940f3ab4a00c1d7b313497ca82fb0b4ab007930180546060915f8051602061364983398151915291610c8e90613423565b6001600160a01b0381165f90815260208190526040812060015481548392918391611875919061346f565b90508042111561188c57506001945f945092505050565b5f6118974283613499565b935093505050915091565b610d2f33838361270e565b5f6118cc5f80516020613669833981519152546001600160a01b031690565b905090565b6003602052815f5260405f2081815481106118ea575f80fd5b905f5260205f20015f91509150505481565b611904612668565b335f9081526009602052604090205460ff16156119635760405162461bcd60e51b815260206004820152601960248201527f416c726561647920636c61696d656420667265652074726565000000000000006044820152606401610d58565b335f818152600960209081526040808320805460ff1916600190811790915560089092529182902055517f99590b4a6bfd4761de07de73cb3222e9fe2f151516b15638a73d9af95cf95240906110669042815260200190565b6119c4612668565b335f90815260208190526040902060015481546119e1919061346f565b4211611a275760405162461bcd60e51b815260206004820152601560248201527410dbdbdb191bdddb881b9bdd08199a5b9a5cda1959605a1b6044820152606401610d58565b5f611a3133611194565b90505f8111611a945760405162461bcd60e51b815260206004820152602960248201527f4e6f20747265657320746f2077617465722e20436c61696d206672656520747260448201526865652066697273742160b81b6064820152608401610d58565b81545f03611aa757600182810155611aed565b600154611ab5906002613482565b8254611ac1919061346f565b421115611ad357600182810155611aed565b6001826001015f828254611ae7919061346f565b90915550505b428255600282018054600191905f90611b0790849061346f565b9091555050600b545f90611b1c908390613482565b90505f600184600101541115611b60575f60018560010154611b3e9190613499565b9050600d54811115611b4f5750600d545b600c54611b5c9082613482565b9150505b5f611b6b828461346f565b335f908152600a6020526040812080549293508392909190611b8e90849061346f565b909155505060018501546002860154335f818152600a60209081526040918290205482519586529085019390935283018490526060830191909152426080830152907f993fa49d7ae24235bb25973cf159eebb32ac13e8e0c528fd86911e30957f55129060a00160405180910390a25050505050565b611c0f848484610d33565b610dbb33858585856127bd565b5f611c256128e3565b805490915060ff600160401b820416159067ffffffffffffffff165f81158015611c4c5750825b90505f8267ffffffffffffffff166001148015611c685750303b155b905081158015611c76575080155b15611c945760405163f92ee8a960e01b815260040160405180910390fd5b845467ffffffffffffffff191660011785558315611cbe57845460ff60401b1916600160401b1785555b611d196040518060400160405280601a81526020017f4c756d61526f6f74732054726565204365727469666963617465000000000000815250604051806040016040528060048152602001634c52544360e01b81525061290b565b611d2161291d565b611d2a86612925565b611d3261291d565b5f60058181556004919091556201518060015566038d7ea4c680006007908155600a600b55600c91909155600d556101f4600e558315611dac57845460ff60401b19168555604051600181527fc7f505b2f371ae2175ee4913f4499e1f2633a7b5936321eed1cdaeb6115181d29060200160405180910390a15b505050505050565b6001600160a01b0381165f90815260036020908152604091829020805483518184028101840190945280845260609392830182828015611e1157602002820191905f5260205f20905b815481526020019060010190808311611dfd575b50505050509050919050565b60607f0542a41881ee128a365a727b282c86fa859579490b9bb45aab8503648c8e7900611e49836121ac565b505f8381526020829052604081208054611e6290613423565b80601f0160208091040260200160405190810160405280929190818152602001828054611e8e90613423565b8015611ed95780601f10611eb057610100808354040283529160200191611ed9565b820191905f5260205f20905b815481529060010190602001808311611ebc57829003601f168201915b505050505090505f611ef560408051602081019091525f815290565b905080515f03611f0757509392505050565b815115611f3a578082604051602001611f219291906134ac565b6040516020818303038152906040529350505050919050565b611f4385612936565b95945050505050565b611f5461232b565b600b849055600c839055600d829055600e8190556040805185815260208101859052908101839052606081018290527fb5bd8ce7b3cce8de451f98cf419726894581ae3aaaaa1cc75ffef1cdf82b9ede9060800160405180910390a150505050565b611fbe61232b565b5f611fc76117de565b6001600160a01b0316476040515f6040518083038185875af1925050503d805f811461200e576040519150601f19603f3d011682016040523d82523d5f602084013e612013565b606091505b50509050806120565760405162461bcd60e51b815260206004820152600f60248201526e15da5d1a191c985dc819985a5b1959608a1b6044820152606401610d58565b50565b61206161232b565b6001600160a01b0382165f908152600a60205260408120805483929061208890849061346f565b90915550505050565b6001600160a01b039182165f9081527f80bb2b638cc20bc4d0a60d66940f3ab4a00c1d7b313497ca82fb0b4ab00793056020908152604080832093909416825291909152205460ff1690565b6120e561232b565b600780549082905560408051828152602081018490527fa54bc6f2713eaf07389c9368c5847b13d220c53bc741a200c646f7381c223552910161126d565b61212b61232b565b6001600160a01b03811661215457604051631e4fbdf760e01b81525f6004820152602401610d58565b612056816125f8565b5f6001600160e01b031982166380ac58cd60e01b148061218d57506001600160e01b03198216635b5e139f60e01b145b80610c6957506301ffc9a760e01b6001600160e01b0319831614610c69565b5f806121b7836129a7565b90506001600160a01b038116610c6957604051637e27328960e01b815260048101849052602401610d58565b5f9081527f80bb2b638cc20bc4d0a60d66940f3ab4a00c1d7b313497ca82fb0b4ab007930460205260409020546001600160a01b031690565b61108a83838360016129e0565b5f5f8051602061364983398151915281612242856129a7565b90506001600160a01b0384161561225e5761225e818587612af3565b6001600160a01b0381161561229a576122795f865f806129e0565b6001600160a01b0381165f908152600383016020526040902080545f190190555b6001600160a01b038616156122ca576001600160a01b0386165f9081526003830160205260409020805460010190555b5f85815260028301602052604080822080546001600160a01b0319166001600160a01b038a811691821790925591518893918516917fddf252ad1be2c89b69c2b068fc378daa952ba7f163c4a11628f55a4df523b3ef91a495945050505050565b336123346117de565b6001600160a01b0316146112e25760405163118cdaa760e01b8152336004820152602401610d58565b610d2f828260405180602001604052805f815250612b57565b5f8281527f0542a41881ee128a365a727b282c86fa859579490b9bb45aab8503648c8e7900602081905260409091206123af838261351e565b506040518381527ff8e1a15aba9398e019f0b49df1a4fde98ee17ae345cb5f6b5e2c27f5033e8ce79060200160405180910390a1505050565b6123f0612b6e565b5f80516020613689833981519152805460ff191681557f5db9ee0a495bf2e6ff9c91a7834c1ba4fdd244a5e8aa4e537bd38aeae4b073aa335b6040516001600160a01b03909116815260200160405180910390a150565b306001600160a01b037f00000000000000000000000000000000000000000000000000000000000000001614806124cd57507f00000000000000000000000000000000000000000000000000000000000000006001600160a01b03166124c15f80516020613669833981519152546001600160a01b031690565b6001600160a01b031614155b156112e25760405163703e46dd60e11b815260040160405180910390fd5b61205661232b565b816001600160a01b03166352d1902d6040518163ffffffff1660e01b8152600401602060405180830381865afa92505050801561254d575060408051601f3d908101601f1916820190925261254a918101906135da565b60015b61257557604051634c9c8ce360e01b81526001600160a01b0383166004820152602401610d58565b5f8051602061366983398151915281146125a557604051632a87526960e21b815260048101829052602401610d58565b61108a8383612b9d565b306001600160a01b037f000000000000000000000000000000000000000000000000000000000000000016146112e25760405163703e46dd60e11b815260040160405180910390fd5b7f9016d09d72d40fdae2fd8ceac6b6234c7706214fd39c1cd1e609a0528c19930080546001600160a01b031981166001600160a01b03848116918217845560405192169182907f8be0079c531659141344cd1fd0a4f28419497f9722a3daafe3b4186f6b6457e0905f90a3505050565b5f805160206136898339815191525460ff16156112e25760405163d93c066560e01b815260040160405180910390fd5b6126a0612bf2565b60027f9b779b17422d0df92223018b32b4d1fa46e071723d6817e2486d003becc55f0055565b6126ce612668565b5f80516020613689833981519152805460ff191660011781557f62e78cea01bee320cd4e420270b5ea74000d11b0c9f74754ebdbfc544b05a25833612429565b5f805160206136498339815191526001600160a01b03831661274e57604051630b61174360e31b81526001600160a01b0384166004820152602401610d58565b6001600160a01b038481165f818152600584016020908152604080832094881680845294825291829020805460ff191687151590811790915591519182527f17307eab39ab6107e8899845ad3d59bd9653f200f220920489ca2b5937696c31910160405180910390a350505050565b6001600160a01b0383163b156128dc57604051630a85bd0160e11b81526001600160a01b0384169063150b7a02906127ff9088908890879087906004016135f1565b6020604051808303815f875af1925050508015612839575060408051601f3d908101601f191682019092526128369181019061362d565b60015b6128a0573d808015612866576040519150601f19603f3d011682016040523d82523d5f602084013e61286b565b606091505b5080515f0361289857604051633250574960e11b81526001600160a01b0385166004820152602401610d58565b805160208201fd5b6001600160e01b03198116630a85bd0160e11b14611dac57604051633250574960e11b81526001600160a01b0385166004820152602401610d58565b5050505050565b5f807ff0c57e16840df040f15088dc2f81fe391c3923bec73e23a9662efc9c229c6a00610c69565b612913612c34565b610d2f8282612c59565b6112e2612c34565b61292d612c34565b61205681612c89565b6060612941826121ac565b505f61295760408051602081019091525f815290565b90505f8151116129755760405180602001604052805f8152506129a0565b8061297f84612c91565b6040516020016129909291906134ac565b6040516020818303038152906040525b9392505050565b5f9081527f80bb2b638cc20bc4d0a60d66940f3ab4a00c1d7b313497ca82fb0b4ab007930260205260409020546001600160a01b031690565b5f805160206136498339815191528180612a0257506001600160a01b03831615155b15612ac3575f612a11856121ac565b90506001600160a01b03841615801590612a3d5750836001600160a01b0316816001600160a01b031614155b8015612a505750612a4e8185612091565b155b15612a795760405163a9fbf51f60e01b81526001600160a01b0385166004820152602401610d58565b8215612ac15784866001600160a01b0316826001600160a01b03167f8c5be1e5ebec7d5bd14f71427d1e84f3dd0314c0f7b2291e5b200ac8c7c3b92560405160405180910390a45b505b5f93845260040160205250506040902080546001600160a01b0319166001600160a01b0392909216919091179055565b612afe838383612d21565b61108a576001600160a01b038316612b2c57604051637e27328960e01b815260048101829052602401610d58565b60405163177e802f60e01b81526001600160a01b038316600482015260248101829052604401610d58565b612b618383612d85565b61108a335f8585856127bd565b5f805160206136898339815191525460ff166112e257604051638dfc202b60e01b815260040160405180910390fd5b612ba682612de6565b6040516001600160a01b038316907fbc7cd75a20ee27fd9adebab32041f755214dbc6bffa90cc0225b39da2e5c2d3b905f90a2805115612bea5761108a8282612e49565b610d2f612ee9565b7f9b779b17422d0df92223018b32b4d1fa46e071723d6817e2486d003becc55f00546002036112e257604051633ee5aeb560e01b815260040160405180910390fd5b612c3c612f08565b6112e257604051631afcd79f60e31b815260040160405180910390fd5b612c61612c34565b5f8051602061364983398151915280612c7a848261351e565b5060018101610dbb838261351e565b61212b612c34565b60605f612c9d83612f21565b60010190505f8167ffffffffffffffff811115612cbc57612cbc613151565b6040519080825280601f01601f191660200182016040528015612ce6576020820181803683370190505b5090508181016020015b5f19016f181899199a1a9b1b9c1cb0b131b232b360811b600a86061a8153600a8504945084612cf057509392505050565b5f6001600160a01b038316158015906111c15750826001600160a01b0316846001600160a01b03161480612d5a5750612d5a8484612091565b806111c15750826001600160a01b0316612d73836121e3565b6001600160a01b031614949350505050565b6001600160a01b038216612dae57604051633250574960e11b81525f6004820152602401610d58565b5f612dba83835f612229565b90506001600160a01b0381161561108a576040516339e3563760e11b81525f6004820152602401610d58565b806001600160a01b03163b5f03612e1b57604051634c9c8ce360e01b81526001600160a01b0382166004820152602401610d58565b5f8051602061366983398151915280546001600160a01b0319166001600160a01b0392909216919091179055565b60605f612e568484612ff8565b9050808015612e7757505f3d1180612e7757505f846001600160a01b03163b115b15612e8c57612e8461300b565b915050610c69565b8015612eb657604051639996b31560e01b81526001600160a01b0385166004820152602401610d58565b3d15612ec957612ec4613024565b612ee2565b60405163d6bda27560e01b815260040160405180910390fd5b5092915050565b34156112e25760405163b398979f60e01b815260040160405180910390fd5b5f612f116128e3565b54600160401b900460ff16919050565b5f8072184f03e93ff9f4daa797ed6e38ed64bf6a1f0160401b8310612f5f5772184f03e93ff9f4daa797ed6e38ed64bf6a1f0160401b830492506040015b6d04ee2d6d415b85acef81000000008310612f8b576d04ee2d6d415b85acef8100000000830492506020015b662386f26fc100008310612fa957662386f26fc10000830492506010015b6305f5e1008310612fc1576305f5e100830492506008015b6127108310612fd557612710830492506004015b60648310612fe7576064830492506002015b600a8310610c695760010192915050565b5f805f835160208501865af49392505050565b6040513d81523d5f602083013e3d602001810160405290565b6040513d5f823e3d81fd5b6001600160e01b031981168114612056575f80fd5b5f60208284031215613054575f80fd5b81356129a08161302f565b5f5b83811015613079578181015183820152602001613061565b50505f910152565b5f815180845261309881602086016020860161305f565b601f01601f19169290920160200192915050565b602081525f6129a06020830184613081565b5f602082840312156130ce575f80fd5b5035919050565b80356001600160a01b03811681146130eb575f80fd5b919050565b5f8060408385031215613101575f80fd5b61310a836130d5565b946020939093013593505050565b5f805f6060848603121561312a575f80fd5b613133846130d5565b9250613141602085016130d5565b9150604084013590509250925092565b634e487b7160e01b5f52604160045260245ffd5b5f82601f830112613174575f80fd5b813567ffffffffffffffff8082111561318f5761318f613151565b604051601f8301601f19908116603f011681019082821181831017156131b7576131b7613151565b816040528381528660208588010111156131cf575f80fd5b836020870160208301375f602085830101528094505050505092915050565b5f805f60608486031215613200575f80fd5b83359250602084013567ffffffffffffffff8082111561321e575f80fd5b61322a87838801613165565b9350604086013591508082111561323f575f80fd5b5061324c86828701613165565b9150509250925092565b5f60208284031215613266575f80fd5b6129a0826130d5565b5f8060408385031215613280575f80fd5b613289836130d5565b9150602083013567ffffffffffffffff8111156132a4575f80fd5b6132b085828601613165565b9150509250929050565b5f805f606084860312156132cc575f80fd5b505081359360208301359350604090920135919050565b5f80604083850312156132f4575f80fd5b6132fd836130d5565b915060208301358015158114613311575f80fd5b809150509250929050565b5f805f806080858703121561332f575f80fd5b613338856130d5565b9350613346602086016130d5565b925060408501359150606085013567ffffffffffffffff811115613368575f80fd5b61337487828801613165565b91505092959194509250565b602080825282518282018190525f9190848201906040850190845b818110156133b75783518352928401929184019160010161339b565b50909695505050505050565b5f805f80608085870312156133d6575f80fd5b5050823594602084013594506040840135936060013592509050565b5f8060408385031215613403575f80fd5b61340c836130d5565b915061341a602084016130d5565b90509250929050565b600181811c9082168061343757607f821691505b60208210810361345557634e487b7160e01b5f52602260045260245ffd5b50919050565b634e487b7160e01b5f52601160045260245ffd5b80820180821115610c6957610c6961345b565b8082028115828204841417610c6957610c6961345b565b81810381811115610c6957610c6961345b565b5f83516134bd81846020880161305f565b8351908301906134d181836020880161305f565b01949350505050565b601f82111561108a57805f5260205f20601f840160051c810160208510156134ff5750805b601f840160051c820191505b818110156128dc575f815560010161350b565b815167ffffffffffffffff81111561353857613538613151565b61354c816135468454613423565b846134da565b602080601f83116001811461357f575f84156135685750858301515b5f19600386901b1c1916600185901b178555611dac565b5f85815260208120601f198616915b828110156135ad5788860151825594840194600190910190840161358e565b50858210156135ca57878501515f19600388901b60f8161c191681555b5050505050600190811b01905550565b5f602082840312156135ea575f80fd5b5051919050565b6001600160a01b03858116825284166020820152604081018390526080606082018190525f9061362390830184613081565b9695505050505050565b5f6020828403121561363d575f80fd5b81516129a08161302f56fe80bb2b638cc20bc4d0a60d66940f3ab4a00c1d7b313497ca82fb0b4ab0079300360894a13ba1a3210667c828492db98dca3e2076cc3735a920a3ca505d382bbccd5ed15c6e187e77e9aee88184c21f4f2182ab5827cb3b7e07fbedcd63f03300a26469706673582212205185a776234e9c3a3dfd10dabb0dc4851f79ceeaa88afd13dee50a391544c10e64736f6c63430008180033","linkReferences":{}},"methodIdentifiers":{"UPGRADE_INTERFACE_VERSION()":"ad3cb1cc","VERSION()":"ffa1ad74","approve(address,uint256)":"095ea7b3","awardPoints(address,uint256)":"e8bec08f","balanceOf(address)":"70a08231","calculateWaterPoints(address)":"4d2f0012","canWaterNow(address)":"97a64469","claimFreeTree()":"b21c20c1","cooldownTime()":"b319c6b7","emergencyWithdraw()":"db2e21bc","getApproved(uint256)":"081812fc","getImplementation()":"aaf10f42","getPointsSettings()":"3b47775c","getPurchase(uint256)":"3742a9f7","getTotalTreeCount(address)":"4fe16257","getUserForest(address)":"763bf2a7","getUserPlant(address)":"ae8af909","getUserPurchaseCount(address)":"91b96b63","getUserPurchases(address)":"c6e5d8f6","hasClaimedFreeTree(address)":"b74ff582","initialize(address)":"c4d66de8","isApprovedForAll(address,address)":"e985e9c5","markPurchaseProcessed(uint256)":"31545e6c","maxStreakBonus()":"2217674b","minPurchaseAmount()":"b47dbf22","mintCertificate(uint256,string,string)":"27994aa4","name()":"06fdde03","owner()":"8da5cb5b","ownerOf(uint256)":"6352211e","pause()":"8456cb59","paused()":"5c975abb","pointsPerVirtualTree()":"d525eed5","pointsPerWater()":"09bf73fe","proxiableUUID()":"52d1902d","purchaseTree(uint256,uint256,uint256)":"832e34a7","purchases(uint256)":"8392fe31","redeemPointsForTree(uint256)":"7cc31959","renounceOwnership()":"715018a6","safeTransferFrom(address,address,uint256)":"42842e0e","safeTransferFrom(address,address,uint256,bytes)":"b88d4fde","setApprovalForAll(address,bool)":"a22cb465","setCooldownTime(uint256)":"6ff73201","setMinPurchaseAmount(uint256)":"e9d3fb78","setPointsSettings(uint256,uint256,uint256,uint256)":"c8d3ab64","streakBonusPoints()":"36f71682","supportsInterface(bytes4)":"01ffc9a7","symbol()":"95d89b41","tokenIdToPurchaseId(uint256)":"c40585f9","tokenURI(uint256)":"c87b56dd","totalPurchases()":"5962a941","totalSupply()":"18160ddd","transferFrom(address,address,uint256)":"23b872dd","transferOwnership(address)":"f2fde38b","unpause()":"3f4ba83a","upgradeToAndCall(address,bytes)":"4f1ef286","userPlants(address)":"3910ba47","userPoints(address)":"f50ddbc7","userPurchaseIds(address,uint256)":"b077a9a7","virtualTreeCount(address)":"284fb88f","waterPlant()":"b2eb53a1"},"id":61}