{"abi":[{"type":"constructor","inputs":[],"stateMutability":"nonpayable"},{"type":"function","name":"UPGRADE_INTERFACE_VERSION","inputs":[],"outputs":[{"name":"","type":"string","internalType":"string"}],"stateMutability":"view"},{"type":"function","name":"VERSION","inputs":[],"outputs":[{"name":"","type":"string","internalType":"string"}],"stateMutability":"view"},{"type":"function","name":"approve","inputs":[{"name":"to","type":"address","internalType":"address"},{"name":"tokenId","type":"uint256","internalType":"uint256"}],"outputs":[],"stateMutability":"nonpayable"},{"type":"function","name":"awardPoints","inputs":[{"name":"user","type":"address","internalType":"address"},{"name":"amount","type":"uint256","internalType":"uint256"}],"outputs":[],"stateMutability":"nonpayable"},{"type":"function","name":"balanceOf","inputs":[{"name":"owner","type":"address","internalType":"address"}],"outputs":[{"name":"","type":"uint256","internalType":"uint256"}],"stateMutability":"view"},{"type":"function","name":"calculateWaterPoints","inputs":[{"name":"user","type":"address","internalType":"address"}],"outputs":[{"name":"basePoints","type":"uint256","internalType":"uint256"},{"name":"streakBonus","type":"uint256","internalType":"uint256"},{"name":"totalPoints","type":"uint256","internalType":"uint256"}],"stateMutability":"view"},{"type":"function","name":"canWaterNow","inputs":[{"name":"user","type":"address","internalType":"address"}],"outputs":[{"name":"canWater","type":"bool","internalType":"bool"},{"name":"timeRemaining","type":"uint256","internalType":"uint256"}],"stateMutability":"view"},{"type":"function","name":"claimFreeTree","inputs":[],"outputs":[],"stateMutability":"nonpayable"},{"type":"function","name":"cooldownTime","inputs":[],"outputs":[{"name":"","type":"uint256","internalType":"uint256"}],"stateMutability":"view"},{"type":"function","name":"emergencyWithdraw","inputs":[],"outputs":[],"stateMutability":"nonpayable"},{"type":"function","name":"getApproved","inputs":[{"name":"tokenId","type":"uint256","internalType":"uint256"}],"outputs":[{"name":"","type":"address","internalType":"address"}],"stateMutability":"view"},{"type":"function","name":"getImplementation","inputs":[],"outputs":[{"name":"","type":"address","internalType":"address"}],"stateMutability":"view"},{"type":"function","name":"getPointsSettings","inputs":[],"outputs":[{"name":"_pointsPerWater","type":"uint256","internalType":"uint256"},{"name":"_streakBonusPoints","type":"uint256","internalType":"uint256"},{"name":"_maxStreakBonus","type":"uint256","internalType":"uint256"},{"name":"_pointsPerVirtualTree","type":"uint256","internalType":"uint256"}],"stateMutability":"view"},{"type":"function","name":"getPurchase","inputs":[{"name":"purchaseId","type":"uint256","internalType":"uint256"}],"outputs":[{"name":"buyer","type":"address","internalType":"address"},{"name":"speciesId","type":"uint256","internalType":"uint256"},{"name":"projectId","type":"uint256","internalType":"uint256"},{"name":"amountPaid","type":"uint256","internalType":"uint256"},{"name":"priceEUR","type":"uint256","internalType":"uint256"},{"name":"timestamp","type":"uint256","internalType":"uint256"},{"name":"processed","type":"bool","internalType":"bool"},{"name":"nftMinted","type":"bool","internalType":"bool"}],"stateMutability":"view"},{"type":"function","name":"getTotalTreeCount","inputs":[{"name":"user","type":"address","internalType":"address"}],"outputs":[{"name":"","type":"uint256","internalType":"uint256"}],"stateMutability":"view"},{"type":"function","name":"getUserForest","inputs":[{"name":"user","type":"address","internalType":"address"}],"outputs":[{"name":"virtualTrees","type":"uint256","internalType":"uint256"},{"name":"realTrees","type":"uint256","internalType":"uint256"},{"name":"totalTrees","type":"uint256","internalType":"uint256"},{"name":"points","type":"uint256","internalType":"uint256"},{"name":"hasFreeTree","type":"bool","internalType":"bool"}],"stateMutability":"view"},{"type":"function","name":"getUserPlant","inputs":[{"name":"user","type":"address","internalType":"address"}],"outputs":[{"name":"lastWaterTime","type":"uint256","internalType":"uint256"},{"name":"waterStreak","type":"uint256","internalType":"uint256"},{"name":"totalWaterCount","type":"uint256","internalType":"uint256"}],"stateMutability":"view"},{"type":"function","name":"getUserPurchaseCount","inputs":[{"name":"user","type":"address","internalType":"address"}],"outputs":[{"name":"","type":"uint256","internalType":"uint256"}],"stateMutability":"view"},{"type":"function","name":"getUserPurchases","inputs":[{"name":"user","type":"address","internalType":"address"}],"outputs":[{"name":"","type":"uint256[]","internalType":"uint256[]"}],"stateMutability":"view"},{"type":"function","name":"hasClaimedFreeTree","inputs":[{"name":"","type":"address","internalType":"address"}],"outputs":[{"name":"","type":"bool","internalType":"bool"}],"stateMutability":"view"},{"type":"function","name":"initialize","inputs":[{"name":"initialOwner","type":"address","internalType":"address"}],"outputs":[],"stateMutability":"nonpayable"},{"type":"function","name":"isApprovedForAll","inputs":[{"name":"owner","type":"address","internalType":"address"},{"name":"operator","type":"address","internalType":"address"}],"outputs":[{"name":"","type":"bool","internalType":"bool"}],"stateMutability":"view"},{"type":"function","name":"markPurchaseProcessed","inputs":[{"name":"purchaseId","type":"uint256","internalType":"uint256"}],"outputs":[],"stateMutability":"nonpayable"},{"type":"function","name":"maxStreakBonus","inputs":[],"outputs":[{"name":"","type":"uint256","internalType":"uint256"}],"stateMutability":"view"},{"type":"function","name":"minPurchaseAmount","inputs":[],"outputs":[{"name":"","type":"uint256","internalType":"uint256"}],"stateMutability":"view"},{"type":"function","name":"mintCertificate","inputs":[{"name":"purchaseId","type":"uint256","internalType":"uint256"},{"name":"tokenURI","type":"string","internalType":"string"},{"name":"treeNationId","type":"string","internalType":"string"}],"outputs":[],"stateMutability":"nonpayable"},{"type":"function","name":"name","inputs":[],"outputs":[{"name":"","type":"string","internalType":"string"}],"stateMutability":"view"},{"type":"function","name":"owner","inputs":[],"outputs":[{"name":"","type":"address","internalType":"address"}],"stateMutability":"view"},{"type":"function","name":"ownerOf","inputs":[{"name":"tokenId","type":"uint256","internalType":"uint256"}],"outputs":[{"name":"","type":"address","internalType":"address"}],"stateMutability":"view"},{"type":"function","name":"pointsPerVirtualTree","inputs":[],"outputs":[{"name":"","type":"uint256","internalType":"uint256"}],"stateMutability":"view"},{"type":"function","name":"pointsPerWater","inputs":[],"outputs":[{"name":"","type":"uint256","internalType":"uint256"}],"stateMutability":"view"},{"type":"function","name":"proxiableUUID","inputs":[],"outputs":[{"name":"","type":"bytes32","internalType":"bytes32"}],"stateMutability":"view"},{"type":"function","name":"purchaseTree","inputs":[{"name":"speciesId","type":"uint256","internalType":"uint256"},{"name":"projectId","type":"uint256","internalType":"uint256"},{"name":"priceEUR","type":"uint256","internalType":"uint256"}],"outputs":[],"stateMutability":"payable"},{"type":"function","name":"purchases","inputs":[{"name":"","type":"uint256","internalType":"uint256"}],"outputs":[{"name":"buyer","type":"address","internalType":"address"},{"name":"speciesId","type":"uint256","internalType":"uint256"},{"name":"projectId","type":"uint256","internalType":"uint256"},{"name":"amountPaid","type":"uint256","internalType":"uint256"},{"name":"priceEUR","type":"uint256","internalType":"uint256"},{"name":"timestamp","type":"uint256","internalType":"uint256"},{"name":"processed","type":"bool","internalType":"bool"},{"name":"nftMinted","type":"bool","internalType":"bool"}],"stateMutability":"view"},{"type":"function","name":"redeemPointsForTree","inputs":[{"name":"numberOfTrees","type":"uint256","internalType":"uint256"}],"outputs":[],"stateMutability":"nonpayable"},{"type":"function","name":"renounceOwnership","inputs":[],"outputs":[],"stateMutability":"nonpayable"},{"type":"function","name":"safeTransferFrom","inputs":[{"name":"from","type":"address","internalType":"address"},{"name":"to","type":"address","internalType":"address"},{"name":"tokenId","type":"uint256","internalType":"uint256"}],"outputs":[],"stateMutability":"nonpayable"},{"type":"function","name":"safeTransferFrom","inputs":[{"name":"from","type":"address","internalType":"address"},{"name":"to","type":"address","internalType":"address"},{"name":"tokenId","type":"uint256","internalType":"uint256"},{"name":"data","type":"bytes","internalType":"bytes"}],"outputs":[],"stateMutability":"nonpayable"},{"type":"function","name":"setApprovalForAll","inputs":[{"name":"operator","type":"address","internalType":"address"},{"name":"approved","type":"bool","internalType":"bool"}],"outputs":[],"stateMutability":"nonpayable"},{"type":"function","name":"setCooldownTime","inputs":[{"name":"_seconds","type":"uint256","internalType":"uint256"}],"outputs":[],"stateMutability":"nonpayable"},{"type":"function","name":"setMinPurchaseAmount","inputs":[{"name":"_amount","type":"uint256","internalType":"uint256"}],"outputs":[],"stateMutability":"nonpayable"},{"type":"function","name":"setPointsSettings","inputs":[{"name":"_pointsPerWater","type":"uint256","internalType":"uint256"},{"name":"_streakBonusPoints","type":"uint256","internalType":"uint256"},{"name":"_maxStreakBonus","type":"uint256","internalType":"uint256"},{"name":"_pointsPerVirtualTree","type":"uint256","internalType":"uint256"}],"outputs":[],"stateMutability":"nonpayable"},{"type":"function","name":"streakBonusPoints","inputs":[],"outputs":[{"name":"","type":"uint256","internalType":"uint256"}],"stateMutability":"view"},{"type":"function","name":"supportsInterface","inputs":[{"name":"interfaceId","type":"bytes4","internalType":"bytes4"}],"outputs":[{"name":"","type":"bool","internalType":"bool"}],"stateMutability":"view"},{"type":"function","name":"symbol","inputs":[],"outputs":[{"name":"","type":"string","internalType":"string"}],"stateMutability":"view"},{"type":"function","name":"tokenIdToPurchaseId","inputs":[{"name":"","type":"uint256","internalType":"uint256"}],"outputs":[{"name":"","type":"uint256","internalType":"uint256"}],"stateMutability":"view"},{"type":"function","name":"tokenURI","inputs":[{"name":"tokenId","type":"uint256","internalType":"uint256"}],"outputs":[{"name":"","type":"string","internalType":"string"}],"stateMutability":"view"},{"type":"function","name":"totalPurchases","inputs":[],"outputs":[{"name":"","type":"uint256","internalType":"uint256"}],"stateMutability":"view"},{"type":"function","name":"totalSupply","inputs":[],"outputs":[{"name":"","type":"uint256","internalType":"uint256"}],"stateMutability":"view"},{"type":"function","name":"transferFrom","inputs":[{"name":"from","type":"address","internalType":"address"},{"name":"to","type":"address","internalType":"address"},{"name":"tokenId","type":"uint256","internalType":"uint256"}],"outputs":[],"stateMutability":"nonpayable"},{"type":"function","name":"transferOwnership","inputs":[{"name":"newOwner","type":"address","internalType":"address"}],"outputs":[],"stateMutability":"nonpayable"},{"type":"function","name":"upgradeToAndCall","inputs":[{"name":"newImplementation","type":"address","internalType":"address"},{"name":"data","type":"bytes","internalType":"bytes"}],"outputs":[],"stateMutability":"payable"},{"type":"function","name":"userPlants","inputs":[{"name":"","type":"address","internalType":"address"}],"outputs":[{"name":"lastWaterTime","type":"uint256","internalType":"uint256"},{"name":"waterStreak","type":"uint256","internalType":"uint256"},{"name":"totalWaterCount","type":"uint256","internalType":"uint256"}],"stateMutability":"view"},{"type":"function","name":"userPoints","inputs":[{"name":"","type":"address","internalType":"address"}],"outputs":[{"name":"","type":"uint256","internalType":"uint256"}],"stateMutability":"view"},{"type":"function","name":"userPurchaseIds","inputs":[{"name":"","type":"address","internalType":"address"},{"name":"","type":"uint256","internalType":"uint256"}],"outputs":[{"name":"","type":"uint256","internalType":"uint256"}],"stateMutability":"view"},{"type":"function","name":"virtualTreeCount","inputs":[{"name":"","type":"address","internalType":"address"}],"outputs":[{"name":"","type":"uint256","internalType":"uint256"}],"stateMutability":"view"},{"type":"function","name":"waterPlant","inputs":[],"outputs":[],"stateMutability":"nonpayable"},{"type":"event","name":"Approval","inputs":[{"name":"owner","type":"address","indexed":true,"internalType":"address"},{"name":"approved","type":"address","indexed":true,"internalType":"address"},{"name":"tokenId","type":"uint256","indexed":true,"internalType":"uint256"}],"anonymous":false},{"type":"event","name":"ApprovalForAll","inputs":[{"name":"owner","type":"address","indexed":true,"internalType":"address"},{"name":"operator","type":"address","indexed":true,"internalType":"address"},{"name":"approved","type":"bool","indexed":false,"internalType":"bool"}],"anonymous":false},{"type":"event","name":"BatchMetadataUpdate","inputs":[{"name":"_fromTokenId","type":"uint256","indexed":false,"internalType":"uint256"},{"name":"_toTokenId","type":"uint256","indexed":false,"internalType":"uint256"}],"anonymous":false},{"type":"event","name":"CertificateMinted","inputs":[{"name":"tokenId","type":"uint256","indexed":true,"internalType":"uint256"},{"name":"owner","type":"address","indexed":true,"internalType":"address"},{"name":"purchaseId","type":"uint256","indexed":true,"internalType":"uint256"},{"name":"treeNationId","type":"string","indexed":false,"internalType":"string"}],"anonymous":false},{"type":"event","name":"CooldownTimeUpdated","inputs":[{"name":"oldCooldown","type":"uint256","indexed":false,"internalType":"uint256"},{"name":"newCooldown","type":"uint256","indexed":false,"internalType":"uint256"}],"anonymous":false},{"type":"event","name":"FreeTreeClaimed","inputs":[{"name":"user","type":"address","indexed":true,"internalType":"address"},{"name":"timestamp","type":"uint256","indexed":false,"internalType":"uint256"}],"anonymous":false},{"type":"event","name":"Initialized","inputs":[{"name":"version","type":"uint64","indexed":false,"internalType":"uint64"}],"anonymous":false},{"type":"event","name":"MetadataUpdate","inputs":[{"name":"_tokenId","type":"uint256","indexed":false,"internalType":"uint256"}],"anonymous":false},{"type":"event","name":"MinPurchaseAmountUpdated","inputs":[{"name":"oldMin","type":"uint256","indexed":false,"internalType":"uint256"},{"name":"newMin","type":"uint256","indexed":false,"internalType":"uint256"}],"anonymous":false},{"type":"event","name":"OwnershipTransferred","inputs":[{"name":"previousOwner","type":"address","indexed":true,"internalType":"address"},{"name":"newOwner","type":"address","indexed":true,"internalType":"address"}],"anonymous":false},{"type":"event","name":"PlantWatered","inputs":[{"name":"user","type":"address","indexed":true,"internalType":"address"},{"name":"newStreak","type":"uint256","indexed":false,"internalType":"uint256"},{"name":"totalWaterCount","type":"uint256","indexed":false,"internalType":"uint256"},{"name":"pointsEarned","type":"uint256","indexed":false,"internalType":"uint256"},{"name":"totalPoints","type":"uint256","indexed":false,"internalType":"uint256"},{"name":"timestamp","type":"uint256","indexed":false,"internalType":"uint256"}],"anonymous":false},{"type":"event","name":"PointsSettingsUpdated","inputs":[{"name":"pointsPerWater","type":"uint256","indexed":false,"internalType":"uint256"},{"name":"streakBonus","type":"uint256","indexed":false,"internalType":"uint256"},{"name":"maxStreak","type":"uint256","indexed":false,"internalType":"uint256"},{"name":"redeemCost","type":"uint256","indexed":false,"internalType":"uint256"}],"anonymous":false},{"type":"event","name":"Transfer","inputs":[{"name":"from","type":"address","indexed":true,"internalType":"address"},{"name":"to","type":"address","indexed":true,"internalType":"address"},{"name":"tokenId","type":"uint256","indexed":true,"internalType":"uint256"}],"anonymous":false},{"type":"event","name":"TreePurchased","inputs":[{"name":"purchaseId","type":"uint256","indexed":true,"internalType":"uint256"},{"name":"buyer","type":"address","indexed":true,"internalType":"address"},{"name":"speciesId","type":"uint256","indexed":false,"internalType":"uint256"},{"name":"projectId","type":"uint256","indexed":false,"internalType":"uint256"},{"name":"amountPaid","type":"uint256","indexed":false,"internalType":"uint256"},{"name":"priceEUR","type":"uint256","indexed":false,"internalType":"uint256"},{"name":"timestamp","type":"uint256","indexed":false,"internalType":"uint256"}],"anonymous":false},{"type":"event","name":"Upgraded","inputs":[{"name":"implementation","type":"address","indexed":true,"internalType":"address"}],"anonymous":false},{"type":"event","name":"VirtualTreeRedeemed","inputs":[{"name":"user","type":"address","indexed":true,"internalType":"address"},{"name":"pointsSpent","type":"uint256","indexed":false,"internalType":"uint256"},{"name":"newTreeCount","type":"uint256","indexed":false,"internalType":"uint256"},{"name":"timestamp","type":"uint256","indexed":false,"internalType":"uint256"}],"anonymous":false},{"type":"error","name":"AddressEmptyCode","inputs":[{"name":"target","type":"address","internalType":"address"}]},{"type":"error","name":"ERC1967InvalidImplementation","inputs":[{"name":"implementation","type":"address","internalType":"address"}]},{"type":"error","name":"ERC1967NonPayable","inputs":[]},{"type":"error","name":"ERC721IncorrectOwner","inputs":[{"name":"sender","type":"address","internalType":"address"},{"name":"tokenId","type":"uint256","internalType":"uint256"},{"name":"owner","type":"address","internalType":"address"}]},{"type":"error","name":"ERC721InsufficientApproval","inputs":[{"name":"operator","type":"address","internalType":"address"},{"name":"tokenId","type":"uint256","internalType":"uint256"}]},{"type":"error","name":"ERC721InvalidApprover","inputs":[{"name":"approver","type":"address","internalType":"address"}]},{"type":"error","name":"ERC721InvalidOperator","inputs":[{"name":"operator","type":"address","internalType":"address"}]},{"type":"error","name":"ERC721InvalidOwner","inputs":[{"name":"owner","type":"address","internalType":"address"}]},{"type":"error","name":"ERC721InvalidReceiver","inputs":[{"name":"receiver","type":"address","internalType":"address"}]},{"type":"error","name":"ERC721InvalidSender","inputs":[{"name":"sender","type":"address","internalType":"address"}]},{"type":"error","name":"ERC721NonexistentToken","inputs":[{"name":"tokenId","type":"uint256","internalType":"uint256"}]},{"type":"error","name":"FailedCall","inputs":[]},{"type":"error","name":"InvalidInitialization","inputs":[]},{"type":"error","name":"NotInitializing","inputs":[]},{"type":"error","name":"OwnableInvalidOwner","inputs":[{"name":"owner","type":"address","internalType":"address"}]},{"type":"error","name":"OwnableUnauthorizedAccount","inputs":[{"name":"account","type":"address","internalType":"address"}]},{"type":"error","name":"ReentrancyGuardReentrantCall","inputs":[]},{"type":"error","name":"UUPSUnauthorizedCallContext","inputs":[]},{"type":"error","name":"UUPSUnsupportedProxiableUUID","inputs":[{"name":"slot","type":"bytes32","internalType":"bytes32"}]}],"bytecode":{"object":"0x60a06040523060805234801562000014575f80fd5b5060017f9b779b17422d0df92223018b32b4d1fa46e071723d6817e2486d003becc55f00556200004362000049565b620000fd565b7ff0c57e16840df040f15088dc2f81fe391c3923bec73e23a9662efc9c229c6a00805468010000000000000000900460ff16156200009a5760405163f92ee8a960e01b815260040160405180910390fd5b80546001600160401b0390811614620000fa5780546001600160401b0319166001600160401b0390811782556040519081527fc7f505b2f371ae2175ee4913f4499e1f2633a7b5936321eed1cdaeb6115181d29060200160405180910390a15b50565b6080516134a4620001245f395f81816122df01528181612308015261244701526134a45ff3fe608060405260043610610366575f3560e01c80638392fe31116101c8578063b74ff582116100fd578063d525eed51161009d578063e9d3fb781161006d578063e9d3fb7814610b40578063f2fde38b14610b5f578063f50ddbc714610b7e578063ffa1ad7414610ba9575f80fd5b8063d525eed514610ad9578063db2e21bc14610aee578063e8bec08f14610b02578063e985e9c514610b21575f80fd5b8063c4d66de8116100d8578063c4d66de814610a50578063c6e5d8f614610a6f578063c87b56dd14610a9b578063c8d3ab6414610aba575f80fd5b8063b74ff582146109d8578063b88d4fde14610a06578063c40585f914610a25575f80fd5b8063ad3cb1cc11610168578063b21c20c111610143578063b21c20c114610986578063b2eb53a11461099a578063b319c6b7146109ae578063b47dbf22146109c3575f80fd5b8063ad3cb1cc146108f6578063ae8af90914610926578063b077a9a714610967575f80fd5b806395d89b41116101a357806395d89b411461087957806397a644691461088d578063a22cb465146108c3578063aaf10f42146108e2575f80fd5b80638392fe31146107c55780638da5cb5b1461083157806391b96b6314610845575f80fd5b80633b47775c1161029e5780636352211e1161023e578063715018a611610219578063715018a614610736578063763bf2a71461074a5780637cc3195914610793578063832e34a7146107b2575f80fd5b80636352211e146106d95780636ff73201146106f857806370a0823114610717575f80fd5b80634f1ef286116102795780634f1ef2861461067f5780634fe162571461069257806352d1902d146106b15780635962a941146106c5575f80fd5b80633b47775c1461060957806342842e0e146106415780634d2f001214610660575f80fd5b806323b872dd1161030957806331545e6c116102e457806331545e6c146104cc57806336f71682146104eb5780633742a9f7146105005780633910ba47146105b4575f80fd5b806323b872dd1461046357806327994aa414610482578063284fb88f146104a1575f80fd5b8063095ea7b311610344578063095ea7b3146103f657806309bf73fe1461041757806318160ddd1461043a5780632217674b1461044e575f80fd5b806301ffc9a71461036a57806306fdde031461039e578063081812fc146103bf575b5f80fd5b348015610375575f80fd5b50610389610384366004612e2a565b610bd9565b60405190151581526020015b60405180910390f35b3480156103a9575f80fd5b506103b2610c03565b6040516103959190612e92565b3480156103ca575f80fd5b506103de6103d9366004612ea4565b610ca4565b6040516001600160a01b039091168152602001610395565b348015610401575f80fd5b50610415610410366004612ed6565b610cb8565b005b348015610422575f80fd5b5061042c600b5481565b604051908152602001610395565b348015610445575f80fd5b5060055461042c565b348015610459575f80fd5b5061042c600d5481565b34801561046e575f80fd5b5061041561047d366004612efe565b610cc7565b34801561048d575f80fd5b5061041561049c366004612fd4565b610d55565b3480156104ac575f80fd5b5061042c6104bb36600461303c565b60086020525f908152604090205481565b3480156104d7575f80fd5b506104156104e6366004612ea4565b610f01565b3480156104f6575f80fd5b5061042c600c5481565b34801561050b575f80fd5b5061056b61051a366004612ea4565b5f90815260026020819052604090912080546001820154928201546003830154600484015460058501546006909501546001600160a01b039094169692949193909260ff8083169261010090041690565b604080516001600160a01b0390991689526020890197909752958701949094526060860192909252608085015260a0840152151560c0830152151560e082015261010001610395565b3480156105bf575f80fd5b506105ee6105ce36600461303c565b5f6020819052908152604090208054600182015460029092015490919083565b60408051938452602084019290925290820152606001610395565b348015610614575f80fd5b50600b54600c54600d54600e54604080519485526020850193909352918301526060820152608001610395565b34801561064c575f80fd5b5061041561065b366004612efe565b610fbc565b34801561066b575f80fd5b506105ee61067a36600461303c565b610fdb565b61041561068d366004613055565b6110c5565b34801561069d575f80fd5b5061042c6106ac36600461303c565b6110e0565b3480156106bc575f80fd5b5061042c611115565b3480156106d0575f80fd5b5060045461042c565b3480156106e4575f80fd5b506103de6106f3366004612ea4565b611130565b348015610703575f80fd5b50610415610712366004612ea4565b61113a565b348015610722575f80fd5b5061042c61073136600461303c565b6111c5565b348015610741575f80fd5b5061041561121d565b348015610755575f80fd5b5061076961076436600461303c565b611230565b6040805195865260208601949094529284019190915260608301521515608082015260a001610395565b34801561079e575f80fd5b506104156107ad366004612ea4565b611299565b6104156107c03660046130a0565b6113e3565b3480156107d0575f80fd5b5061056b6107df366004612ea4565b600260208190525f918252604090912080546001820154928201546003830154600484015460058501546006909501546001600160a01b03909416959492939192909160ff8082169161010090041688565b34801561083c575f80fd5b506103de6116d8565b348015610850575f80fd5b5061042c61085f36600461303c565b6001600160a01b03165f9081526003602052604090205490565b348015610884575f80fd5b506103b2611706565b348015610898575f80fd5b506108ac6108a736600461303c565b611744565b604080519215158352602083019190915201610395565b3480156108ce575f80fd5b506104156108dd3660046130c9565b61179c565b3480156108ed575f80fd5b506103de6117a7565b348015610901575f80fd5b506103b2604051806040016040528060058152602001640352e302e360dc1b81525081565b348015610931575f80fd5b506105ee61094036600461303c565b6001600160a01b03165f908152602081905260409020805460018201546002909201549092565b348015610972575f80fd5b5061042c610981366004612ed6565b6117cb565b348015610991575f80fd5b506104156117f6565b3480156109a5575f80fd5b506104156118b8565b3480156109b9575f80fd5b5061042c60015481565b3480156109ce575f80fd5b5061042c60075481565b3480156109e3575f80fd5b506103896109f236600461303c565b60096020525f908152604090205460ff1681565b348015610a11575f80fd5b50610415610a20366004613102565b611af8565b348015610a30575f80fd5b5061042c610a3f366004612ea4565b60066020525f908152604090205481565b348015610a5b575f80fd5b50610415610a6a36600461303c565b611b10565b348015610a7a575f80fd5b50610a8e610a8936600461303c565b611ca0565b6040516103959190613166565b348015610aa6575f80fd5b506103b2610ab5366004612ea4565b611d09565b348015610ac5575f80fd5b50610415610ad43660046131a9565b611e38565b348015610ae4575f80fd5b5061042c600e5481565b348015610af9575f80fd5b50610415611ea2565b348015610b0d575f80fd5b50610415610b1c366004612ed6565b611f45565b348015610b2c575f80fd5b50610389610b3b3660046131d8565b611f7d565b348015610b4b575f80fd5b50610415610b5a366004612ea4565b611fc9565b348015610b6a575f80fd5b50610415610b7936600461303c565b61200f565b348015610b89575f80fd5b5061042c610b9836600461303c565b600a6020525f908152604090205481565b348015610bb4575f80fd5b506103b2604051806040016040528060058152602001640312e302e360dc1b81525081565b5f6001600160e01b03198216632483248360e11b1480610bfd5750610bfd82612049565b92915050565b5f8051602061342f8339815191528054606091908190610c2290613209565b80601f0160208091040260200160405190810160405280929190818152602001828054610c4e90613209565b8015610c995780601f10610c7057610100808354040283529160200191610c99565b820191905f5260205f20905b815481529060010190602001808311610c7c57829003601f168201915b505050505091505090565b5f610cae82612098565b50610bfd826120cf565b610cc3828233612108565b5050565b6001600160a01b038216610cf557604051633250574960e11b81525f60048201526024015b60405180910390fd5b5f610d01838333612115565b9050836001600160a01b0316816001600160a01b031614610d4f576040516364283d7b60e01b81526001600160a01b0380861660048301526024820184905282166044820152606401610cec565b50505050565b610d5d612217565b5f83815260026020526040902080546001600160a01b0316610db65760405162461bcd60e51b8152602060048201526012602482015271141d5c98da185cd9481b9bdd08199bdd5b9960721b6044820152606401610cec565b600681015460ff16610e0a5760405162461bcd60e51b815260206004820152601a60248201527f5075726368617365206e6f74207965742070726f6365737365640000000000006044820152606401610cec565b6006810154610100900460ff1615610e595760405162461bcd60e51b815260206004820152601260248201527113919508185b1c9958591e481b5a5b9d195960721b6044820152606401610cec565b60058054906001905f610e6c8385613255565b90915550508154610e86906001600160a01b031682612249565b610e908185612262565b5f818152600660208190526040918290208790558301805461ff0019166101001790558254905186916001600160a01b03169083907fc634e044312eb7dc5719a0882979ef83fff07a9c7c0be5ed5d068b63a246729e90610ef2908890612e92565b60405180910390a45050505050565b610f09612217565b5f81815260026020526040902080546001600160a01b0316610f625760405162461bcd60e51b8152602060048201526012602482015271141d5c98da185cd9481b9bdd08199bdd5b9960721b6044820152606401610cec565b600681015460ff1615610fab5760405162461bcd60e51b8152602060048201526011602482015270105b1c9958591e481c1c9bd8d95cdcd959607a1b6044820152606401610cec565b600601805460ff1916600117905550565b610fd683838360405180602001604052805f815250611af8565b505050565b6001600160a01b0381165f9081526020819052604081208190819081611000866110e0565b9050805f03611019575f805f94509450945050506110be565b80600b546110279190613268565b60018301548354919650905f0361104057506001611077565b60015461104e906002613268565b835461105a9190613255565b42111561106957506001611077565b611074600182613255565b90505b60018111156110ae575f61108c60018361327f565b9050600d5481111561109d5750600d545b600c546110aa9082613268565b9550505b6110b88587613255565b93505050505b9193909250565b6110cd6122d4565b6110d682612378565b610cc38282612380565b6001600160a01b0381165f90815260036020908152604080832054600890925282205461110d8183613255565b949350505050565b5f61111e61243c565b505f8051602061344f83398151915290565b5f610bfd82612098565b611142612217565b5f811161117f5760405162461bcd60e51b815260206004820152600b60248201526a04d757374206265203e20360ac1b6044820152606401610cec565b600180549082905560408051828152602081018490527f4de458dc03da0c08fe90cb2839f5929d4127eb0d2509e74b195cb4ce6ec8717991015b60405180910390a15050565b5f5f8051602061342f8339815191526001600160a01b0383166111fd576040516322718ad960e21b81525f6004820152602401610cec565b6001600160a01b039092165f908152600390920160205250604090205490565b611225612217565b61122e5f612485565b565b6001600160a01b0381165f908152600860209081526040808320546003909252822054909180806112618486613255565b6001600160a01b039096165f908152600a60209081526040808320546009909252909120549597949695909460ff9091169350915050565b5f81116112e85760405162461bcd60e51b815260206004820152601b60248201527f4d7573742072656465656d206174206c656173742031207472656500000000006044820152606401610cec565b5f81600e546112f79190613268565b335f908152600a602052604090205490915081111561134c5760405162461bcd60e51b81526020600482015260116024820152704e6f7420656e6f75676820706f696e747360781b6044820152606401610cec565b335f908152600a60205260408120805483929061136a90849061327f565b9091555050335f908152600860205260408120805484929061138d908490613255565b9091555050335f8181526008602090815260409182902054825185815291820152428183015290517f35c3d1b3513f5d529d75c941c41e19f01baabcea58e34245041a0dd7d1172b7c9181900360600190a25050565b6113eb6124f5565b60075434101561143d5760405162461bcd60e51b815260206004820152601d60248201527f42656c6f77206d696e696d756d20707572636861736520616d6f756e740000006044820152606401610cec565b5f83116114815760405162461bcd60e51b8152602060048201526012602482015271125b9d985b1a59081cdc1958da595cc8125160721b6044820152606401610cec565b5f82116114c55760405162461bcd60e51b8152602060048201526012602482015271125b9d985b1a59081c1c9bda9958dd08125160721b6044820152606401610cec565b60048054906001905f6114d88385613255565b90915550506040805161010080820183523380835260208084018981528486018981523460608701908152608087018a81524260a089019081525f60c08a0181815260e08b018281528d83526002808a528d84209c518d546001600160a01b0319166001600160a01b03909116178d5597516001808e01919091559651978c019790975593516003808c0191909155925160048b0155905160058a0155915160069098018054945161ffff1990951698151561ff00191698909817931515909602929092179095559182529182529283208054928301815583528220018290556115c06116d8565b6001600160a01b0316346040515f6040518083038185875af1925050503d805f8114611607576040519150601f19603f3d011682016040523d82523d5f602084013e61160c565b606091505b505090508061165d5760405162461bcd60e51b815260206004820152601860248201527f5472616e7366657220746f206f776e6572206661696c656400000000000000006044820152606401610cec565b60408051868152602081018690523481830152606081018590524260808201529051339184917f911be2cd16382523d81842f46c40471e61d654b6e45667d36e530e620363dc359181900360a00190a35050610fd660017f9b779b17422d0df92223018b32b4d1fa46e071723d6817e2486d003becc55f0055565b7f9016d09d72d40fdae2fd8ceac6b6234c7706214fd39c1cd1e609a0528c199300546001600160a01b031690565b7f80bb2b638cc20bc4d0a60d66940f3ab4a00c1d7b313497ca82fb0b4ab007930180546060915f8051602061342f83398151915291610c2290613209565b6001600160a01b0381165f9081526020819052604081206001548154839291839161176f9190613255565b90508042111561178657506001945f945092505050565b5f611791428361327f565b935093505050915091565b610cc3338383612523565b5f6117c65f8051602061344f833981519152546001600160a01b031690565b905090565b6003602052815f5260405f2081815481106117e4575f80fd5b905f5260205f20015f91509150505481565b335f9081526009602052604090205460ff16156118555760405162461bcd60e51b815260206004820152601960248201527f416c726561647920636c61696d656420667265652074726565000000000000006044820152606401610cec565b335f818152600960209081526040808320805460ff1916600190811790915560089092529182902055517f99590b4a6bfd4761de07de73cb3222e9fe2f151516b15638a73d9af95cf95240906118ae9042815260200190565b60405180910390a2565b335f90815260208190526040902060015481546118d59190613255565b421161191b5760405162461bcd60e51b815260206004820152601560248201527410dbdbdb191bdddb881b9bdd08199a5b9a5cda1959605a1b6044820152606401610cec565b5f611925336110e0565b90505f81116119885760405162461bcd60e51b815260206004820152602960248201527f4e6f20747265657320746f2077617465722e20436c61696d206672656520747260448201526865652066697273742160b81b6064820152608401610cec565b81545f0361199b576001828101556119e1565b6001546119a9906002613268565b82546119b59190613255565b4211156119c7576001828101556119e1565b6001826001015f8282546119db9190613255565b90915550505b428255600282018054600191905f906119fb908490613255565b9091555050600b545f90611a10908390613268565b90505f600184600101541115611a54575f60018560010154611a32919061327f565b9050600d54811115611a435750600d545b600c54611a509082613268565b9150505b5f611a5f8284613255565b335f908152600a6020526040812080549293508392909190611a82908490613255565b909155505060018501546002860154335f818152600a60209081526040918290205482519586529085019390935283018490526060830191909152426080830152907f993fa49d7ae24235bb25973cf159eebb32ac13e8e0c528fd86911e30957f55129060a00160405180910390a25050505050565b611b03848484610cc7565b610d4f33858585856125d2565b5f611b196126f8565b805490915060ff600160401b820416159067ffffffffffffffff165f81158015611b405750825b90505f8267ffffffffffffffff166001148015611b5c5750303b155b905081158015611b6a575080155b15611b885760405163f92ee8a960e01b815260040160405180910390fd5b845467ffffffffffffffff191660011785558315611bb257845460ff60401b1916600160401b1785555b611c0d6040518060400160405280601a81526020017f4c756d61526f6f74732054726565204365727469666963617465000000000000815250604051806040016040528060048152602001634c52544360e01b815250612720565b611c15612732565b611c1e8661273a565b5f60058181556004919091556201518060015566038d7ea4c680006007908155600a600b55600c91909155600d556101f4600e558315611c9857845460ff60401b19168555604051600181527fc7f505b2f371ae2175ee4913f4499e1f2633a7b5936321eed1cdaeb6115181d29060200160405180910390a15b505050505050565b6001600160a01b0381165f90815260036020908152604091829020805483518184028101840190945280845260609392830182828015611cfd57602002820191905f5260205f20905b815481526020019060010190808311611ce9575b50505050509050919050565b60607f0542a41881ee128a365a727b282c86fa859579490b9bb45aab8503648c8e7900611d3583612098565b505f8381526020829052604081208054611d4e90613209565b80601f0160208091040260200160405190810160405280929190818152602001828054611d7a90613209565b8015611dc55780601f10611d9c57610100808354040283529160200191611dc5565b820191905f5260205f20905b815481529060010190602001808311611da857829003601f168201915b505050505090505f611de160408051602081019091525f815290565b905080515f03611df357509392505050565b815115611e26578082604051602001611e0d929190613292565b6040516020818303038152906040529350505050919050565b611e2f8561274b565b95945050505050565b611e40612217565b600b849055600c839055600d829055600e8190556040805185815260208101859052908101839052606081018290527fb5bd8ce7b3cce8de451f98cf419726894581ae3aaaaa1cc75ffef1cdf82b9ede9060800160405180910390a150505050565b611eaa612217565b5f611eb36116d8565b6001600160a01b0316476040515f6040518083038185875af1925050503d805f8114611efa576040519150601f19603f3d011682016040523d82523d5f602084013e611eff565b606091505b5050905080611f425760405162461bcd60e51b815260206004820152600f60248201526e15da5d1a191c985dc819985a5b1959608a1b6044820152606401610cec565b50565b611f4d612217565b6001600160a01b0382165f908152600a602052604081208054839290611f74908490613255565b90915550505050565b6001600160a01b039182165f9081527f80bb2b638cc20bc4d0a60d66940f3ab4a00c1d7b313497ca82fb0b4ab00793056020908152604080832093909416825291909152205460ff1690565b611fd1612217565b600780549082905560408051828152602081018490527fa54bc6f2713eaf07389c9368c5847b13d220c53bc741a200c646f7381c22355291016111b9565b612017612217565b6001600160a01b03811661204057604051631e4fbdf760e01b81525f6004820152602401610cec565b611f4281612485565b5f6001600160e01b031982166380ac58cd60e01b148061207957506001600160e01b03198216635b5e139f60e01b145b80610bfd57506301ffc9a760e01b6001600160e01b0319831614610bfd565b5f806120a3836127bc565b90506001600160a01b038116610bfd57604051637e27328960e01b815260048101849052602401610cec565b5f9081527f80bb2b638cc20bc4d0a60d66940f3ab4a00c1d7b313497ca82fb0b4ab007930460205260409020546001600160a01b031690565b610fd683838360016127f5565b5f5f8051602061342f8339815191528161212e856127bc565b90506001600160a01b0384161561214a5761214a818587612908565b6001600160a01b03811615612186576121655f865f806127f5565b6001600160a01b0381165f908152600383016020526040902080545f190190555b6001600160a01b038616156121b6576001600160a01b0386165f9081526003830160205260409020805460010190555b5f85815260028301602052604080822080546001600160a01b0319166001600160a01b038a811691821790925591518893918516917fddf252ad1be2c89b69c2b068fc378daa952ba7f163c4a11628f55a4df523b3ef91a495945050505050565b336122206116d8565b6001600160a01b03161461122e5760405163118cdaa760e01b8152336004820152602401610cec565b610cc3828260405180602001604052805f81525061296c565b5f8281527f0542a41881ee128a365a727b282c86fa859579490b9bb45aab8503648c8e79006020819052604090912061229b8382613304565b506040518381527ff8e1a15aba9398e019f0b49df1a4fde98ee17ae345cb5f6b5e2c27f5033e8ce79060200160405180910390a1505050565b306001600160a01b037f000000000000000000000000000000000000000000000000000000000000000016148061235a57507f00000000000000000000000000000000000000000000000000000000000000006001600160a01b031661234e5f8051602061344f833981519152546001600160a01b031690565b6001600160a01b031614155b1561122e5760405163703e46dd60e11b815260040160405180910390fd5b611f42612217565b816001600160a01b03166352d1902d6040518163ffffffff1660e01b8152600401602060405180830381865afa9250505080156123da575060408051601f3d908101601f191682019092526123d7918101906133c0565b60015b61240257604051634c9c8ce360e01b81526001600160a01b0383166004820152602401610cec565b5f8051602061344f833981519152811461243257604051632a87526960e21b815260048101829052602401610cec565b610fd68383612983565b306001600160a01b037f0000000000000000000000000000000000000000000000000000000000000000161461122e5760405163703e46dd60e11b815260040160405180910390fd5b7f9016d09d72d40fdae2fd8ceac6b6234c7706214fd39c1cd1e609a0528c19930080546001600160a01b031981166001600160a01b03848116918217845560405192169182907f8be0079c531659141344cd1fd0a4f28419497f9722a3daafe3b4186f6b6457e0905f90a3505050565b6124fd6129d8565b60027f9b779b17422d0df92223018b32b4d1fa46e071723d6817e2486d003becc55f0055565b5f8051602061342f8339815191526001600160a01b03831661256357604051630b61174360e31b81526001600160a01b0384166004820152602401610cec565b6001600160a01b038481165f818152600584016020908152604080832094881680845294825291829020805460ff191687151590811790915591519182527f17307eab39ab6107e8899845ad3d59bd9653f200f220920489ca2b5937696c31910160405180910390a350505050565b6001600160a01b0383163b156126f157604051630a85bd0160e11b81526001600160a01b0384169063150b7a02906126149088908890879087906004016133d7565b6020604051808303815f875af192505050801561264e575060408051601f3d908101601f1916820190925261264b91810190613413565b60015b6126b5573d80801561267b576040519150601f19603f3d011682016040523d82523d5f602084013e612680565b606091505b5080515f036126ad57604051633250574960e11b81526001600160a01b0385166004820152602401610cec565b805160208201fd5b6001600160e01b03198116630a85bd0160e11b14611c9857604051633250574960e11b81526001600160a01b0385166004820152602401610cec565b5050505050565b5f807ff0c57e16840df040f15088dc2f81fe391c3923bec73e23a9662efc9c229c6a00610bfd565b612728612a1a565b610cc38282612a3f565b61122e612a1a565b612742612a1a565b611f4281612a6f565b606061275682612098565b505f61276c60408051602081019091525f815290565b90505f81511161278a5760405180602001604052805f8152506127b5565b8061279484612a77565b6040516020016127a5929190613292565b6040516020818303038152906040525b9392505050565b5f9081527f80bb2b638cc20bc4d0a60d66940f3ab4a00c1d7b313497ca82fb0b4ab007930260205260409020546001600160a01b031690565b5f8051602061342f833981519152818061281757506001600160a01b03831615155b156128d8575f61282685612098565b90506001600160a01b038416158015906128525750836001600160a01b0316816001600160a01b031614155b801561286557506128638185611f7d565b155b1561288e5760405163a9fbf51f60e01b81526001600160a01b0385166004820152602401610cec565b82156128d65784866001600160a01b0316826001600160a01b03167f8c5be1e5ebec7d5bd14f71427d1e84f3dd0314c0f7b2291e5b200ac8c7c3b92560405160405180910390a45b505b5f93845260040160205250506040902080546001600160a01b0319166001600160a01b0392909216919091179055565b612913838383612b07565b610fd6576001600160a01b03831661294157604051637e27328960e01b815260048101829052602401610cec565b60405163177e802f60e01b81526001600160a01b038316600482015260248101829052604401610cec565b6129768383612b6b565b610fd6335f8585856125d2565b61298c82612bcc565b6040516001600160a01b038316907fbc7cd75a20ee27fd9adebab32041f755214dbc6bffa90cc0225b39da2e5c2d3b905f90a28051156129d057610fd68282612c2f565b610cc3612ccf565b7f9b779b17422d0df92223018b32b4d1fa46e071723d6817e2486d003becc55f005460020361122e57604051633ee5aeb560e01b815260040160405180910390fd5b612a22612cee565b61122e57604051631afcd79f60e31b815260040160405180910390fd5b612a47612a1a565b5f8051602061342f83398151915280612a608482613304565b5060018101610d4f8382613304565b612017612a1a565b60605f612a8383612d07565b60010190505f8167ffffffffffffffff811115612aa257612aa2612f37565b6040519080825280601f01601f191660200182016040528015612acc576020820181803683370190505b5090508181016020015b5f19016f181899199a1a9b1b9c1cb0b131b232b360811b600a86061a8153600a8504945084612ad657509392505050565b5f6001600160a01b0383161580159061110d5750826001600160a01b0316846001600160a01b03161480612b405750612b408484611f7d565b8061110d5750826001600160a01b0316612b59836120cf565b6001600160a01b031614949350505050565b6001600160a01b038216612b9457604051633250574960e11b81525f6004820152602401610cec565b5f612ba083835f612115565b90506001600160a01b03811615610fd6576040516339e3563760e11b81525f6004820152602401610cec565b806001600160a01b03163b5f03612c0157604051634c9c8ce360e01b81526001600160a01b0382166004820152602401610cec565b5f8051602061344f83398151915280546001600160a01b0319166001600160a01b0392909216919091179055565b60605f612c3c8484612dde565b9050808015612c5d57505f3d1180612c5d57505f846001600160a01b03163b115b15612c7257612c6a612df1565b915050610bfd565b8015612c9c57604051639996b31560e01b81526001600160a01b0385166004820152602401610cec565b3d15612caf57612caa612e0a565b612cc8565b60405163d6bda27560e01b815260040160405180910390fd5b5092915050565b341561122e5760405163b398979f60e01b815260040160405180910390fd5b5f612cf76126f8565b54600160401b900460ff16919050565b5f8072184f03e93ff9f4daa797ed6e38ed64bf6a1f0160401b8310612d455772184f03e93ff9f4daa797ed6e38ed64bf6a1f0160401b830492506040015b6d04ee2d6d415b85acef81000000008310612d71576d04ee2d6d415b85acef8100000000830492506020015b662386f26fc100008310612d8f57662386f26fc10000830492506010015b6305f5e1008310612da7576305f5e100830492506008015b6127108310612dbb57612710830492506004015b60648310612dcd576064830492506002015b600a8310610bfd5760010192915050565b5f805f835160208501865af49392505050565b6040513d81523d5f602083013e3d602001810160405290565b6040513d5f823e3d81fd5b6001600160e01b031981168114611f42575f80fd5b5f60208284031215612e3a575f80fd5b81356127b581612e15565b5f5b83811015612e5f578181015183820152602001612e47565b50505f910152565b5f8151808452612e7e816020860160208601612e45565b601f01601f19169290920160200192915050565b602081525f6127b56020830184612e67565b5f60208284031215612eb4575f80fd5b5035919050565b80356001600160a01b0381168114612ed1575f80fd5b919050565b5f8060408385031215612ee7575f80fd5b612ef083612ebb565b946020939093013593505050565b5f805f60608486031215612f10575f80fd5b612f1984612ebb565b9250612f2760208501612ebb565b9150604084013590509250925092565b634e487b7160e01b5f52604160045260245ffd5b5f82601f830112612f5a575f80fd5b813567ffffffffffffffff80821115612f7557612f75612f37565b604051601f8301601f19908116603f01168101908282118183101715612f9d57612f9d612f37565b81604052838152866020858801011115612fb5575f80fd5b836020870160208301375f602085830101528094505050505092915050565b5f805f60608486031215612fe6575f80fd5b83359250602084013567ffffffffffffffff80821115613004575f80fd5b61301087838801612f4b565b93506040860135915080821115613025575f80fd5b5061303286828701612f4b565b9150509250925092565b5f6020828403121561304c575f80fd5b6127b582612ebb565b5f8060408385031215613066575f80fd5b61306f83612ebb565b9150602083013567ffffffffffffffff81111561308a575f80fd5b61309685828601612f4b565b9150509250929050565b5f805f606084860312156130b2575f80fd5b505081359360208301359350604090920135919050565b5f80604083850312156130da575f80fd5b6130e383612ebb565b9150602083013580151581146130f7575f80fd5b809150509250929050565b5f805f8060808587031215613115575f80fd5b61311e85612ebb565b935061312c60208601612ebb565b925060408501359150606085013567ffffffffffffffff81111561314e575f80fd5b61315a87828801612f4b565b91505092959194509250565b602080825282518282018190525f9190848201906040850190845b8181101561319d57835183529284019291840191600101613181565b50909695505050505050565b5f805f80608085870312156131bc575f80fd5b5050823594602084013594506040840135936060013592509050565b5f80604083850312156131e9575f80fd5b6131f283612ebb565b915061320060208401612ebb565b90509250929050565b600181811c9082168061321d57607f821691505b60208210810361323b57634e487b7160e01b5f52602260045260245ffd5b50919050565b634e487b7160e01b5f52601160045260245ffd5b80820180821115610bfd57610bfd613241565b8082028115828204841417610bfd57610bfd613241565b81810381811115610bfd57610bfd613241565b5f83516132a3818460208801612e45565b8351908301906132b7818360208801612e45565b01949350505050565b601f821115610fd657805f5260205f20601f840160051c810160208510156132e55750805b601f840160051c820191505b818110156126f1575f81556001016132f1565b815167ffffffffffffffff81111561331e5761331e612f37565b6133328161332c8454613209565b846132c0565b602080601f831160018114613365575f841561334e5750858301515b5f19600386901b1c1916600185901b178555611c98565b5f85815260208120601f198616915b8281101561339357888601518255948401946001909101908401613374565b50858210156133b057878501515f19600388901b60f8161c191681555b5050505050600190811b01905550565b5f602082840312156133d0575f80fd5b5051919050565b6001600160a01b03858116825284166020820152604081018390526080606082018190525f9061340990830184612e67565b9695505050505050565b5f60208284031215613423575f80fd5b81516127b581612e1556fe80bb2b638cc20bc4d0a60d66940f3ab4a00c1d7b313497ca82fb0b4ab0079300360894a13ba1a3210667c828492db98dca3e2076cc3735a920a3ca505d382bbca26469706673582212208aa2ec038461f66087230319ea8279229804c3efb5ccf640ebb586e83aa205ab64736f6c63430008180033","linkReferences":{}},"methodIdentifiers":{"UPGRADE_INTERFACE_VERSION()":"ad3cb1cc","VERSION()":"ffa1ad74","approve(address,uint256)":"095ea7b3","awardPoints(address,uint256)":"e8bec08f","balanceOf(address)":"70a08231","calculateWaterPoints(address)":"4d2f0012","canWaterNow(address)":"97a64469","claimFreeTree()":"b21c20c1","cooldownTime()":"b319c6b7","emergencyWithdraw()":"db2e21bc","getApproved(uint256)":"081812fc","getImplementation()":"aaf10f42","getPointsSettings()":"3b47775c","getPurchase(uint256)":"3742a9f7","getTotalTreeCount(address)":"4fe16257","getUserForest(address)":"763bf2a7","getUserPlant(address)":"ae8af909","getUserPurchaseCount(address)":"91b96b63","getUserPurchases(address)":"c6e5d8f6","hasClaimedFreeTree(address)":"b74ff582","initialize(address)":"c4d66de8","isApprovedForAll(address,address)":"e985e9c5","markPurchaseProcessed(uint256)":"31545e6c","maxStreakBonus()":"2217674b","minPurchaseAmount()":"b47dbf22","mintCertificate(uint256,string,string)":"27994aa4","name()":"06fdde03","owner()":"8da5cb5b","ownerOf(uint256)":"6352211e","pointsPerVirtualTree()":"d525eed5","pointsPerWater()":"09bf73fe","proxiableUUID()":"52d1902d","purchaseTree(uint256,uint256,uint256)":"832e34a7","purchases(uint256)":"8392fe31","redeemPointsForTree(uint256)":"7cc31959","renounceOwnership()":"715018a6","safeTransferFrom(address,address,uint256)":"42842e0e","safeTransferFrom(address,address,uint256,bytes)":"b88d4fde","setApprovalForAll(address,bool)":"a22cb465","setCooldownTime(uint256)":"6ff73201","setMinPurchaseAmount(uint256)":"e9d3fb78","setPointsSettings(uint256,uint256,uint256,uint256)":"c8d3ab64","streakBonusPoints()":"36f71682","supportsInterface(bytes4)":"01ffc9a7","symbol()":"95d89b41","tokenIdToPurchaseId(uint256)":"c40585f9","tokenURI(uint256)":"c87b56dd","totalPurchases()":"5962a941","totalSupply()":"18160ddd","transferFrom(address,address,uint256)":"23b872dd","transferOwnership(address)":"f2fde38b","upgradeToAndCall(address,bytes)":"4f1ef286","userPlants(address)":"3910ba47","userPoints(address)":"f50ddbc7","userPurchaseIds(address,uint256)":"b077a9a7","virtualTreeCount(address)":"284fb88f","waterPlant()":"b2eb53a1"},"id":52}