{"abi":[{"type":"constructor","inputs":[],"stateMutability":"nonpayable"},{"type":"function","name":"UPGRADE_INTERFACE_VERSION","inputs":[],"outputs":[{"name":"","type":"string","internalType":"string"}],"stateMutability":"view"},{"type":"function","name":"VERSION","inputs":[],"outputs":[{"name":"","type":"string","internalType":"string"}],"stateMutability":"view"},{"type":"function","name":"approve","inputs":[{"name":"to","type":"address","internalType":"address"},{"name":"tokenId","type":"uint256","internalType":"uint256"}],"outputs":[],"stateMutability":"nonpayable"},{"type":"function","name":"awardPoints","inputs":[{"name":"user","type":"address","internalType":"address"},{"name":"amount","type":"uint256","internalType":"uint256"}],"outputs":[],"stateMutability":"nonpayable"},{"type":"function","name":"balanceOf","inputs":[{"name":"owner","type":"address","internalType":"address"}],"outputs":[{"name":"","type":"uint256","internalType":"uint256"}],"stateMutability":"view"},{"type":"function","name":"calculateWaterPoints","inputs":[{"name":"user","type":"address","internalType":"address"}],"outputs":[{"name":"basePoints","type":"uint256","internalType":"uint256"},{"name":"streakBonus","type":"uint256","internalType":"uint256"},{"name":"totalPoints","type":"uint256","internalType":"uint256"}],"stateMutability":"view"},{"type":"function","name":"canWaterNow","inputs":[{"name":"user","type":"address","internalType":"address"}],"outputs":[{"name":"canWater","type":"bool","internalType":"bool"},{"name":"timeRemaining","type":"uint256","internalType":"uint256"}],"stateMutability":"view"},{"type":"function","name":"claimFreeTree","inputs":[],"outputs":[],"stateMutability":"nonpayable"},{"type":"function","name":"cooldownTime","inputs":[],"outputs":[{"name":"","type":"uint256","internalType":"uint256"}],"stateMutability":"view"},{"type":"function","name":"emergencyWithdraw","inputs":[],"outputs":[],"stateMutability":"nonpayable"},{"type":"function","name":"getApproved","inputs":[{"name":"tokenId","type":"uint256","internalType":"uint256"}],"outputs":[{"name":"","type":"address","internalType":"address"}],"stateMutability":"view"},{"type":"function","name":"getImplementation","inputs":[],"outputs":[{"name":"","type":"address","internalType":"address"}],"stateMutability":"view"},{"type":"function","name":"getPointsSettings","inputs":[],"outputs":[{"name":"_pointsPerWater","type":"uint256","internalType":"uint256"},{"name":"_streakBonusPoints","type":"uint256","internalType":"uint256"},{"name":"_maxStreakBonus","type":"uint256","internalType":"uint256"},{"name":"_pointsPerVirtualTree","type":"uint256","internalType":"uint256"}],"stateMutability":"view"},{"type":"function","name":"getPurchase","inputs":[{"name":"purchaseId","type":"uint256","internalType":"uint256"}],"outputs":[{"name":"buyer","type":"address","internalType":"address"},{"name":"speciesId","type":"uint256","internalType":"uint256"},{"name":"projectId","type":"uint256","internalType":"uint256"},{"name":"amountPaid","type":"uint256","internalType":"uint256"},{"name":"timestamp","type":"uint256","internalType":"uint256"},{"name":"processed","type":"bool","internalType":"bool"},{"name":"nftMinted","type":"bool","internalType":"bool"}],"stateMutability":"view"},{"type":"function","name":"getTotalTreeCount","inputs":[{"name":"user","type":"address","internalType":"address"}],"outputs":[{"name":"","type":"uint256","internalType":"uint256"}],"stateMutability":"view"},{"type":"function","name":"getUserForest","inputs":[{"name":"user","type":"address","internalType":"address"}],"outputs":[{"name":"virtualTrees","type":"uint256","internalType":"uint256"},{"name":"realTrees","type":"uint256","internalType":"uint256"},{"name":"totalTrees","type":"uint256","internalType":"uint256"},{"name":"points","type":"uint256","internalType":"uint256"},{"name":"hasFreeTree","type":"bool","internalType":"bool"}],"stateMutability":"view"},{"type":"function","name":"getUserPlant","inputs":[{"name":"user","type":"address","internalType":"address"}],"outputs":[{"name":"lastWaterTime","type":"uint256","internalType":"uint256"},{"name":"waterStreak","type":"uint256","internalType":"uint256"},{"name":"totalWaterCount","type":"uint256","internalType":"uint256"}],"stateMutability":"view"},{"type":"function","name":"getUserPurchaseCount","inputs":[{"name":"user","type":"address","internalType":"address"}],"outputs":[{"name":"","type":"uint256","internalType":"uint256"}],"stateMutability":"view"},{"type":"function","name":"getUserPurchases","inputs":[{"name":"user","type":"address","internalType":"address"}],"outputs":[{"name":"","type":"uint256[]","internalType":"uint256[]"}],"stateMutability":"view"},{"type":"function","name":"hasClaimedFreeTree","inputs":[{"name":"","type":"address","internalType":"address"}],"outputs":[{"name":"","type":"bool","internalType":"bool"}],"stateMutability":"view"},{"type":"function","name":"initialize","inputs":[{"name":"initialOwner","type":"address","internalType":"address"}],"outputs":[],"stateMutability":"nonpayable"},{"type":"function","name":"isApprovedForAll","inputs":[{"name":"owner","type":"address","internalType":"address"},{"name":"operator","type":"address","internalType":"address"}],"outputs":[{"name":"","type":"bool","internalType":"bool"}],"stateMutability":"view"},{"type":"function","name":"markPurchaseProcessed","inputs":[{"name":"purchaseId","type":"uint256","internalType":"uint256"}],"outputs":[],"stateMutability":"nonpayable"},{"type":"function","name":"maxStreakBonus","inputs":[],"outputs":[{"name":"","type":"uint256","internalType":"uint256"}],"stateMutability":"view"},{"type":"function","name":"minPurchaseAmount","inputs":[],"outputs":[{"name":"","type":"uint256","internalType":"uint256"}],"stateMutability":"view"},{"type":"function","name":"mintCertificate","inputs":[{"name":"purchaseId","type":"uint256","internalType":"uint256"},{"name":"tokenURI","type":"string","internalType":"string"},{"name":"treeNationId","type":"string","internalType":"string"}],"outputs":[],"stateMutability":"nonpayable"},{"type":"function","name":"name","inputs":[],"outputs":[{"name":"","type":"string","internalType":"string"}],"stateMutability":"view"},{"type":"function","name":"owner","inputs":[],"outputs":[{"name":"","type":"address","internalType":"address"}],"stateMutability":"view"},{"type":"function","name":"ownerOf","inputs":[{"name":"tokenId","type":"uint256","internalType":"uint256"}],"outputs":[{"name":"","type":"address","internalType":"address"}],"stateMutability":"view"},{"type":"function","name":"pause","inputs":[],"outputs":[],"stateMutability":"nonpayable"},{"type":"function","name":"paused","inputs":[],"outputs":[{"name":"","type":"bool","internalType":"bool"}],"stateMutability":"view"},{"type":"function","name":"pointsPerVirtualTree","inputs":[],"outputs":[{"name":"","type":"uint256","internalType":"uint256"}],"stateMutability":"view"},{"type":"function","name":"pointsPerWater","inputs":[],"outputs":[{"name":"","type":"uint256","internalType":"uint256"}],"stateMutability":"view"},{"type":"function","name":"proxiableUUID","inputs":[],"outputs":[{"name":"","type":"bytes32","internalType":"bytes32"}],"stateMutability":"view"},{"type":"function","name":"purchaseTree","inputs":[{"name":"speciesId","type":"uint256","internalType":"uint256"},{"name":"projectId","type":"uint256","internalType":"uint256"}],"outputs":[],"stateMutability":"payable"},{"type":"function","name":"purchases","inputs":[{"name":"","type":"uint256","internalType":"uint256"}],"outputs":[{"name":"buyer","type":"address","internalType":"address"},{"name":"speciesId","type":"uint256","internalType":"uint256"},{"name":"projectId","type":"uint256","internalType":"uint256"},{"name":"amountPaid","type":"uint256","internalType":"uint256"},{"name":"timestamp","type":"uint256","internalType":"uint256"},{"name":"processed","type":"bool","internalType":"bool"},{"name":"nftMinted","type":"bool","internalType":"bool"}],"stateMutability":"view"},{"type":"function","name":"redeemPointsForTree","inputs":[{"name":"numberOfTrees","type":"uint256","internalType":"uint256"}],"outputs":[],"stateMutability":"nonpayable"},{"type":"function","name":"renounceOwnership","inputs":[],"outputs":[],"stateMutability":"nonpayable"},{"type":"function","name":"safeTransferFrom","inputs":[{"name":"from","type":"address","internalType":"address"},{"name":"to","type":"address","internalType":"address"},{"name":"tokenId","type":"uint256","internalType":"uint256"}],"outputs":[],"stateMutability":"nonpayable"},{"type":"function","name":"safeTransferFrom","inputs":[{"name":"from","type":"address","internalType":"address"},{"name":"to","type":"address","internalType":"address"},{"name":"tokenId","type":"uint256","internalType":"uint256"},{"name":"data","type":"bytes","internalType":"bytes"}],"outputs":[],"stateMutability":"nonpayable"},{"type":"function","name":"setApprovalForAll","inputs":[{"name":"operator","type":"address","internalType":"address"},{"name":"approved","type":"bool","internalType":"bool"}],"outputs":[],"stateMutability":"nonpayable"},{"type":"function","name":"setCooldownTime","inputs":[{"name":"_seconds","type":"uint256","internalType":"uint256"}],"outputs":[],"stateMutability":"nonpayable"},{"type":"function","name":"setMinPurchaseAmount","inputs":[{"name":"_amount","type":"uint256","internalType":"uint256"}],"outputs":[],"stateMutability":"nonpayable"},{"type":"function","name":"setPointsSettings","inputs":[{"name":"_pointsPerWater","type":"uint256","internalType":"uint256"},{"name":"_streakBonusPoints","type":"uint256","internalType":"uint256"},{"name":"_maxStreakBonus","type":"uint256","internalType":"uint256"},{"name":"_pointsPerVirtualTree","type":"uint256","internalType":"uint256"}],"outputs":[],"stateMutability":"nonpayable"},{"type":"function","name":"streakBonusPoints","inputs":[],"outputs":[{"name":"","type":"uint256","internalType":"uint256"}],"stateMutability":"view"},{"type":"function","name":"supportsInterface","inputs":[{"name":"interfaceId","type":"bytes4","internalType":"bytes4"}],"outputs":[{"name":"","type":"bool","internalType":"bool"}],"stateMutability":"view"},{"type":"function","name":"symbol","inputs":[],"outputs":[{"name":"","type":"string","internalType":"string"}],"stateMutability":"view"},{"type":"function","name":"tokenIdToPurchaseId","inputs":[{"name":"","type":"uint256","internalType":"uint256"}],"outputs":[{"name":"","type":"uint256","internalType":"uint256"}],"stateMutability":"view"},{"type":"function","name":"tokenURI","inputs":[{"name":"tokenId","type":"uint256","internalType":"uint256"}],"outputs":[{"name":"","type":"string","internalType":"string"}],"stateMutability":"view"},{"type":"function","name":"totalPurchases","inputs":[],"outputs":[{"name":"","type":"uint256","internalType":"uint256"}],"stateMutability":"view"},{"type":"function","name":"totalSupply","inputs":[],"outputs":[{"name":"","type":"uint256","internalType":"uint256"}],"stateMutability":"view"},{"type":"function","name":"transferFrom","inputs":[{"name":"from","type":"address","internalType":"address"},{"name":"to","type":"address","internalType":"address"},{"name":"tokenId","type":"uint256","internalType":"uint256"}],"outputs":[],"stateMutability":"nonpayable"},{"type":"function","name":"transferOwnership","inputs":[{"name":"newOwner","type":"address","internalType":"address"}],"outputs":[],"stateMutability":"nonpayable"},{"type":"function","name":"unpause","inputs":[],"outputs":[],"stateMutability":"nonpayable"},{"type":"function","name":"upgradeToAndCall","inputs":[{"name":"newImplementation","type":"address","internalType":"address"},{"name":"data","type":"bytes","internalType":"bytes"}],"outputs":[],"stateMutability":"payable"},{"type":"function","name":"userPlants","inputs":[{"name":"","type":"address","internalType":"address"}],"outputs":[{"name":"lastWaterTime","type":"uint256","internalType":"uint256"},{"name":"waterStreak","type":"uint256","internalType":"uint256"},{"name":"totalWaterCount","type":"uint256","internalType":"uint256"}],"stateMutability":"view"},{"type":"function","name":"userPoints","inputs":[{"name":"","type":"address","internalType":"address"}],"outputs":[{"name":"","type":"uint256","internalType":"uint256"}],"stateMutability":"view"},{"type":"function","name":"userPurchaseIds","inputs":[{"name":"","type":"address","internalType":"address"},{"name":"","type":"uint256","internalType":"uint256"}],"outputs":[{"name":"","type":"uint256","internalType":"uint256"}],"stateMutability":"view"},{"type":"function","name":"virtualTreeCount","inputs":[{"name":"","type":"address","internalType":"address"}],"outputs":[{"name":"","type":"uint256","internalType":"uint256"}],"stateMutability":"view"},{"type":"function","name":"waterPlant","inputs":[],"outputs":[],"stateMutability":"nonpayable"},{"type":"event","name":"Approval","inputs":[{"name":"owner","type":"address","indexed":true,"internalType":"address"},{"name":"approved","type":"address","indexed":true,"internalType":"address"},{"name":"tokenId","type":"uint256","indexed":true,"internalType":"uint256"}],"anonymous":false},{"type":"event","name":"ApprovalForAll","inputs":[{"name":"owner","type":"address","indexed":true,"internalType":"address"},{"name":"operator","type":"address","indexed":true,"internalType":"address"},{"name":"approved","type":"bool","indexed":false,"internalType":"bool"}],"anonymous":false},{"type":"event","name":"BatchMetadataUpdate","inputs":[{"name":"_fromTokenId","type":"uint256","indexed":false,"internalType":"uint256"},{"name":"_toTokenId","type":"uint256","indexed":false,"internalType":"uint256"}],"anonymous":false},{"type":"event","name":"CertificateMinted","inputs":[{"name":"tokenId","type":"uint256","indexed":true,"internalType":"uint256"},{"name":"owner","type":"address","indexed":true,"internalType":"address"},{"name":"purchaseId","type":"uint256","indexed":true,"internalType":"uint256"},{"name":"treeNationId","type":"string","indexed":false,"internalType":"string"}],"anonymous":false},{"type":"event","name":"ContractPaused","inputs":[{"name":"by","type":"address","indexed":true,"internalType":"address"},{"name":"timestamp","type":"uint256","indexed":false,"internalType":"uint256"}],"anonymous":false},{"type":"event","name":"ContractUnpaused","inputs":[{"name":"by","type":"address","indexed":true,"internalType":"address"},{"name":"timestamp","type":"uint256","indexed":false,"internalType":"uint256"}],"anonymous":false},{"type":"event","name":"CooldownTimeUpdated","inputs":[{"name":"oldCooldown","type":"uint256","indexed":false,"internalType":"uint256"},{"name":"newCooldown","type":"uint256","indexed":false,"internalType":"uint256"}],"anonymous":false},{"type":"event","name":"FreeTreeClaimed","inputs":[{"name":"user","type":"address","indexed":true,"internalType":"address"},{"name":"timestamp","type":"uint256","indexed":false,"internalType":"uint256"}],"anonymous":false},{"type":"event","name":"Initialized","inputs":[{"name":"version","type":"uint64","indexed":false,"internalType":"uint64"}],"anonymous":false},{"type":"event","name":"MetadataUpdate","inputs":[{"name":"_tokenId","type":"uint256","indexed":false,"internalType":"uint256"}],"anonymous":false},{"type":"event","name":"MinPurchaseAmountUpdated","inputs":[{"name":"oldMin","type":"uint256","indexed":false,"internalType":"uint256"},{"name":"newMin","type":"uint256","indexed":false,"internalType":"uint256"}],"anonymous":false},{"type":"event","name":"OwnershipTransferred","inputs":[{"name":"previousOwner","type":"address","indexed":true,"internalType":"address"},{"name":"newOwner","type":"address","indexed":true,"internalType":"address"}],"anonymous":false},{"type":"event","name":"Paused","inputs":[{"name":"account","type":"address","indexed":false,"internalType":"address"}],"anonymous":false},{"type":"event","name":"PlantWatered","inputs":[{"name":"user","type":"address","indexed":true,"internalType":"address"},{"name":"newStreak","type":"uint256","indexed":false,"internalType":"uint256"},{"name":"totalWaterCount","type":"uint256","indexed":false,"internalType":"uint256"},{"name":"pointsEarned","type":"uint256","indexed":false,"internalType":"uint256"},{"name":"totalPoints","type":"uint256","indexed":false,"internalType":"uint256"},{"name":"timestamp","type":"uint256","indexed":false,"internalType":"uint256"}],"anonymous":false},{"type":"event","name":"PointsSettingsUpdated","inputs":[{"name":"pointsPerWater","type":"uint256","indexed":false,"internalType":"uint256"},{"name":"streakBonus","type":"uint256","indexed":false,"internalType":"uint256"},{"name":"maxStreak","type":"uint256","indexed":false,"internalType":"uint256"},{"name":"redeemCost","type":"uint256","indexed":false,"internalType":"uint256"}],"anonymous":false},{"type":"event","name":"Transfer","inputs":[{"name":"from","type":"address","indexed":true,"internalType":"address"},{"name":"to","type":"address","indexed":true,"internalType":"address"},{"name":"tokenId","type":"uint256","indexed":true,"internalType":"uint256"}],"anonymous":false},{"type":"event","name":"TreePurchased","inputs":[{"name":"purchaseId","type":"uint256","indexed":true,"internalType":"uint256"},{"name":"buyer","type":"address","indexed":true,"internalType":"address"},{"name":"speciesId","type":"uint256","indexed":false,"internalType":"uint256"},{"name":"projectId","type":"uint256","indexed":false,"internalType":"uint256"},{"name":"amountPaid","type":"uint256","indexed":false,"internalType":"uint256"},{"name":"timestamp","type":"uint256","indexed":false,"internalType":"uint256"}],"anonymous":false},{"type":"event","name":"Unpaused","inputs":[{"name":"account","type":"address","indexed":false,"internalType":"address"}],"anonymous":false},{"type":"event","name":"Upgraded","inputs":[{"name":"implementation","type":"address","indexed":true,"internalType":"address"}],"anonymous":false},{"type":"event","name":"VirtualTreeRedeemed","inputs":[{"name":"user","type":"address","indexed":true,"internalType":"address"},{"name":"pointsSpent","type":"uint256","indexed":false,"internalType":"uint256"},{"name":"newTreeCount","type":"uint256","indexed":false,"internalType":"uint256"},{"name":"timestamp","type":"uint256","indexed":false,"internalType":"uint256"}],"anonymous":false},{"type":"error","name":"AddressEmptyCode","inputs":[{"name":"target","type":"address","internalType":"address"}]},{"type":"error","name":"ERC1967InvalidImplementation","inputs":[{"name":"implementation","type":"address","internalType":"address"}]},{"type":"error","name":"ERC1967NonPayable","inputs":[]},{"type":"error","name":"ERC721IncorrectOwner","inputs":[{"name":"sender","type":"address","internalType":"address"},{"name":"tokenId","type":"uint256","internalType":"uint256"},{"name":"owner","type":"address","internalType":"address"}]},{"type":"error","name":"ERC721InsufficientApproval","inputs":[{"name":"operator","type":"address","internalType":"address"},{"name":"tokenId","type":"uint256","internalType":"uint256"}]},{"type":"error","name":"ERC721InvalidApprover","inputs":[{"name":"approver","type":"address","internalType":"address"}]},{"type":"error","name":"ERC721InvalidOperator","inputs":[{"name":"operator","type":"address","internalType":"address"}]},{"type":"error","name":"ERC721InvalidOwner","inputs":[{"name":"owner","type":"address","internalType":"address"}]},{"type":"error","name":"ERC721InvalidReceiver","inputs":[{"name":"receiver","type":"address","internalType":"address"}]},{"type":"error","name":"ERC721InvalidSender","inputs":[{"name":"sender","type":"address","internalType":"address"}]},{"type":"error","name":"ERC721NonexistentToken","inputs":[{"name":"tokenId","type":"uint256","internalType":"uint256"}]},{"type":"error","name":"EnforcedPause","inputs":[]},{"type":"error","name":"ExpectedPause","inputs":[]},{"type":"error","name":"FailedCall","inputs":[]},{"type":"error","name":"InvalidInitialization","inputs":[]},{"type":"error","name":"NotInitializing","inputs":[]},{"type":"error","name":"OwnableInvalidOwner","inputs":[{"name":"owner","type":"address","internalType":"address"}]},{"type":"error","name":"OwnableUnauthorizedAccount","inputs":[{"name":"account","type":"address","internalType":"address"}]},{"type":"error","name":"ReentrancyGuardReentrantCall","inputs":[]},{"type":"error","name":"UUPSUnauthorizedCallContext","inputs":[]},{"type":"error","name":"UUPSUnsupportedProxiableUUID","inputs":[{"name":"slot","type":"bytes32","internalType":"bytes32"}]}],"bytecode":{"object":"0x60a06040523060805234801562000014575f80fd5b5060017f9b779b17422d0df92223018b32b4d1fa46e071723d6817e2486d003becc55f00556200004362000049565b620000fd565b7ff0c57e16840df040f15088dc2f81fe391c3923bec73e23a9662efc9c229c6a00805468010000000000000000900460ff16156200009a5760405163f92ee8a960e01b815260040160405180910390fd5b80546001600160401b0390811614620000fa5780546001600160401b0319166001600160401b0390811782556040519081527fc7f505b2f371ae2175ee4913f4499e1f2633a7b5936321eed1cdaeb6115181d29060200160405180910390a15b50565b6080516136b3620001245f395f818161248e015281816124b701526125f601526136b35ff3fe608060405260043610610387575f3560e01c80638392fe31116101d3578063b74ff582116100fd578063d525eed51161009d578063e9d3fb781161006d578063e9d3fb7814610b9b578063f2fde38b14610bba578063f50ddbc714610bd9578063ffa1ad7414610c04575f80fd5b8063d525eed514610b34578063db2e21bc14610b49578063e8bec08f14610b5d578063e985e9c514610b7c575f80fd5b8063c4d66de8116100d8578063c4d66de814610aab578063c6e5d8f614610aca578063c87b56dd14610af6578063c8d3ab6414610b15575f80fd5b8063b74ff58214610a33578063b88d4fde14610a61578063c40585f914610a80575f80fd5b8063aaf10f4211610173578063b21c20c111610143578063b21c20c1146109e1578063b2eb53a1146109f5578063b319c6b714610a09578063b47dbf2214610a1e575f80fd5b8063aaf10f421461093d578063ad3cb1cc14610951578063ae8af90914610981578063b077a9a7146109c2575f80fd5b806391b96b63116101ae57806391b96b63146108a057806395d89b41146108d457806397a64469146108e8578063a22cb4651461091e575f80fd5b80638392fe31146108125780638456cb59146108785780638da5cb5b1461088c575f80fd5b80633b47775c116102b45780635962a9411161025457806370a082311161022457806370a0823114610777578063715018a614610796578063763bf2a7146107aa5780637cc31959146107f3575f80fd5b80635962a941146107025780635c975abb146107165780636352211e146107395780636ff7320114610758575f80fd5b80634d2f00121161028f5780634d2f00121461069d5780634f1ef286146106bc5780634fe16257146106cf57806352d1902d146106ee575f80fd5b80633b47775c146106325780633f4ba83a1461066a57806342842e0e1461067e575f80fd5b806323b872dd1161032a57806331545e6c116102fa57806331545e6c1461050057806336f716821461051f5780633742a9f7146105345780633910ba47146105dd575f80fd5b806323b872dd1461048457806327994aa4146104a3578063284fb88f146104c25780632bf500fe146104ed575f80fd5b8063095ea7b311610365578063095ea7b31461041757806309bf73fe1461043857806318160ddd1461045b5780632217674b1461046f575f80fd5b806301ffc9a71461038b57806306fdde03146103bf578063081812fc146103e0575b5f80fd5b348015610396575f80fd5b506103aa6103a5366004613022565b610c34565b60405190151581526020015b60405180910390f35b3480156103ca575f80fd5b506103d3610c5e565b6040516103b6919061308a565b3480156103eb575f80fd5b506103ff6103fa36600461309c565b610cff565b6040516001600160a01b0390911681526020016103b6565b348015610422575f80fd5b506104366104313660046130ce565b610d13565b005b348015610443575f80fd5b5061044d600b5481565b6040519081526020016103b6565b348015610466575f80fd5b5060055461044d565b34801561047a575f80fd5b5061044d600d5481565b34801561048f575f80fd5b5061043661049e3660046130f6565b610d22565b3480156104ae575f80fd5b506104366104bd3660046131cc565b610db0565b3480156104cd575f80fd5b5061044d6104dc366004613234565b60086020525f908152604090205481565b6104366104fb36600461324d565b610f5c565b34801561050b575f80fd5b5061043661051a36600461309c565b611248565b34801561052a575f80fd5b5061044d600c5481565b34801561053f575f80fd5b5061059a61054e36600461309c565b5f9081526002602081905260409091208054600182015492820154600383015460048401546005909401546001600160a01b039093169591939092909160ff8083169261010090041690565b604080516001600160a01b03909816885260208801969096529486019390935260608501919091526080840152151560a0830152151560c082015260e0016103b6565b3480156105e8575f80fd5b506106176105f7366004613234565b5f6020819052908152604090208054600182015460029092015490919083565b604080519384526020840192909252908201526060016103b6565b34801561063d575f80fd5b50600b54600c54600d54600e546040805194855260208501939093529183015260608201526080016103b6565b348015610675575f80fd5b50610436611303565b348015610689575f80fd5b506104366106983660046130f6565b61134b565b3480156106a8575f80fd5b506106176106b7366004613234565b61136a565b6104366106ca36600461326d565b611454565b3480156106da575f80fd5b5061044d6106e9366004613234565b61146f565b3480156106f9575f80fd5b5061044d6114a4565b34801561070d575f80fd5b5060045461044d565b348015610721575f80fd5b505f8051602061365e8339815191525460ff166103aa565b348015610744575f80fd5b506103ff61075336600461309c565b6114bf565b348015610763575f80fd5b5061043661077236600461309c565b6114c9565b348015610782575f80fd5b5061044d610791366004613234565b611554565b3480156107a1575f80fd5b506104366115ac565b3480156107b5575f80fd5b506107c96107c4366004613234565b6115bf565b6040805195865260208601949094529284019190915260608301521515608082015260a0016103b6565b3480156107fe575f80fd5b5061043661080d36600461309c565b611628565b34801561081d575f80fd5b5061059a61082c36600461309c565b600260208190525f91825260409091208054600182015492820154600383015460048401546005909401546001600160a01b039093169493919290919060ff8082169161010090041687565b348015610883575f80fd5b5061043661177a565b348015610897575f80fd5b506103ff6117bc565b3480156108ab575f80fd5b5061044d6108ba366004613234565b6001600160a01b03165f9081526003602052604090205490565b3480156108df575f80fd5b506103d36117ea565b3480156108f3575f80fd5b50610907610902366004613234565b611828565b6040805192151583526020830191909152016103b6565b348015610929575f80fd5b506104366109383660046132b8565b611880565b348015610948575f80fd5b506103ff61188b565b34801561095c575f80fd5b506103d3604051806040016040528060058152602001640352e302e360dc1b81525081565b34801561098c575f80fd5b5061061761099b366004613234565b6001600160a01b03165f908152602081905260409020805460018201546002909201549092565b3480156109cd575f80fd5b5061044d6109dc3660046130ce565b6118af565b3480156109ec575f80fd5b506104366118da565b348015610a00575f80fd5b5061043661199a565b348015610a14575f80fd5b5061044d60015481565b348015610a29575f80fd5b5061044d60075481565b348015610a3e575f80fd5b506103aa610a4d366004613234565b60096020525f908152604090205460ff1681565b348015610a6c575f80fd5b50610436610a7b3660046132f1565b611be2565b348015610a8b575f80fd5b5061044d610a9a36600461309c565b60066020525f908152604090205481565b348015610ab6575f80fd5b50610436610ac5366004613234565b611bfa565b348015610ad5575f80fd5b50610ae9610ae4366004613234565b611d92565b6040516103b69190613355565b348015610b01575f80fd5b506103d3610b1036600461309c565b611dfb565b348015610b20575f80fd5b50610436610b2f366004613398565b611f2a565b348015610b3f575f80fd5b5061044d600e5481565b348015610b54575f80fd5b50610436611f94565b348015610b68575f80fd5b50610436610b773660046130ce565b612037565b348015610b87575f80fd5b506103aa610b963660046133c7565b61206f565b348015610ba6575f80fd5b50610436610bb536600461309c565b6120bb565b348015610bc5575f80fd5b50610436610bd4366004613234565b612101565b348015610be4575f80fd5b5061044d610bf3366004613234565b600a6020525f908152604090205481565b348015610c0f575f80fd5b506103d3604051806040016040528060058152602001640312e302e360dc1b81525081565b5f6001600160e01b03198216632483248360e11b1480610c585750610c588261213b565b92915050565b5f8051602061361e8339815191528054606091908190610c7d906133f8565b80601f0160208091040260200160405190810160405280929190818152602001828054610ca9906133f8565b8015610cf45780601f10610ccb57610100808354040283529160200191610cf4565b820191905f5260205f20905b815481529060010190602001808311610cd757829003601f168201915b505050505091505090565b5f610d098261218a565b50610c58826121c1565b610d1e8282336121fa565b5050565b6001600160a01b038216610d5057604051633250574960e11b81525f60048201526024015b60405180910390fd5b5f610d5c838333612207565b9050836001600160a01b0316816001600160a01b031614610daa576040516364283d7b60e01b81526001600160a01b0380861660048301526024820184905282166044820152606401610d47565b50505050565b610db8612309565b5f83815260026020526040902080546001600160a01b0316610e115760405162461bcd60e51b8152602060048201526012602482015271141d5c98da185cd9481b9bdd08199bdd5b9960721b6044820152606401610d47565b600581015460ff16610e655760405162461bcd60e51b815260206004820152601a60248201527f5075726368617365206e6f74207965742070726f6365737365640000000000006044820152606401610d47565b6005810154610100900460ff1615610eb45760405162461bcd60e51b815260206004820152601260248201527113919508185b1c9958591e481b5a5b9d195960721b6044820152606401610d47565b60058054906001905f610ec78385613444565b90915550508154610ee1906001600160a01b03168261233b565b610eeb8185612354565b5f818152600660205260409081902086905560058301805461ff0019166101001790558254905186916001600160a01b03169083907fc634e044312eb7dc5719a0882979ef83fff07a9c7c0be5ed5d068b63a246729e90610f4d90889061308a565b60405180910390a45050505050565b610f646123c6565b610f6c6123f4565b600754341015610fbe5760405162461bcd60e51b815260206004820152601d60248201527f42656c6f77206d696e696d756d20707572636861736520616d6f756e740000006044820152606401610d47565b5f82116110025760405162461bcd60e51b8152602060048201526012602482015271125b9d985b1a59081cdc1958da595cc8125160721b6044820152606401610d47565b5f81116110465760405162461bcd60e51b8152602060048201526012602482015271125b9d985b1a59081c1c9bda9958dd08125160721b6044820152606401610d47565b60048054906001905f6110598385613444565b90915550506040805160e081018252338082526020808301878152838501878152346060860190815242608087019081525f60a0880181815260c089018281528b835260028089528b84209a518b546001600160a01b0319166001600160a01b03909116178b5596516001808c01919091559551968a019690965592516003808a019190915591516004890155915160059097018054945161ffff1990951697151561ff00191697909717610100941515949094029390931790955592845281529282208054918201815582529181209091018290556111376117bc565b6001600160a01b0316346040515f6040518083038185875af1925050503d805f811461117e576040519150601f19603f3d011682016040523d82523d5f602084013e611183565b606091505b50509050806111d45760405162461bcd60e51b815260206004820152601860248201527f5472616e7366657220746f206f776e6572206661696c656400000000000000006044820152606401610d47565b604080518581526020810185905234818301524260608201529051339184917ff0ecad32530d291c3888fa99b9e538d1d89178e5d31ce20914ae7e41359210849181900360800190a35050610d1e60017f9b779b17422d0df92223018b32b4d1fa46e071723d6817e2486d003becc55f0055565b611250612309565b5f81815260026020526040902080546001600160a01b03166112a95760405162461bcd60e51b8152602060048201526012602482015271141d5c98da185cd9481b9bdd08199bdd5b9960721b6044820152606401610d47565b600581015460ff16156112f25760405162461bcd60e51b8152602060048201526011602482015270105b1c9958591e481c1c9bd8d95cdcd959607a1b6044820152606401610d47565b600501805460ff1916600117905550565b61130b612309565b611313612424565b60405142815233907f107553d8191d85b405879cf752997865edd48d94e20bda4dd27223c94b31a7cc906020015b60405180910390a2565b61136583838360405180602001604052805f815250611be2565b505050565b6001600160a01b0381165f908152602081905260408120819081908161138f8661146f565b9050805f036113a8575f805f945094509450505061144d565b80600b546113b69190613457565b60018301548354919650905f036113cf57506001611406565b6001546113dd906002613457565b83546113e99190613444565b4211156113f857506001611406565b611403600182613444565b90505b600181111561143d575f61141b60018361346e565b9050600d5481111561142c5750600d545b600c546114399082613457565b9550505b6114478587613444565b93505050505b9193909250565b61145c612483565b61146582612527565b610d1e828261252f565b6001600160a01b0381165f90815260036020908152604080832054600890925282205461149c8183613444565b949350505050565b5f6114ad6125eb565b505f8051602061363e83398151915290565b5f610c588261218a565b6114d1612309565b5f811161150e5760405162461bcd60e51b815260206004820152600b60248201526a04d757374206265203e20360ac1b6044820152606401610d47565b600180549082905560408051828152602081018490527f4de458dc03da0c08fe90cb2839f5929d4127eb0d2509e74b195cb4ce6ec8717991015b60405180910390a15050565b5f5f8051602061361e8339815191526001600160a01b03831661158c576040516322718ad960e21b81525f6004820152602401610d47565b6001600160a01b039092165f908152600390920160205250604090205490565b6115b4612309565b6115bd5f612634565b565b6001600160a01b0381165f908152600860209081526040808320546003909252822054909180806115f08486613444565b6001600160a01b039096165f908152600a60209081526040808320546009909252909120549597949695909460ff9091169350915050565b6116306123f4565b5f811161167f5760405162461bcd60e51b815260206004820152601b60248201527f4d7573742072656465656d206174206c656173742031207472656500000000006044820152606401610d47565b5f81600e5461168e9190613457565b335f908152600a60205260409020549091508111156116e35760405162461bcd60e51b81526020600482015260116024820152704e6f7420656e6f75676820706f696e747360781b6044820152606401610d47565b335f908152600a60205260408120805483929061170190849061346e565b9091555050335f9081526008602052604081208054849290611724908490613444565b9091555050335f8181526008602090815260409182902054825185815291820152428183015290517f35c3d1b3513f5d529d75c941c41e19f01baabcea58e34245041a0dd7d1172b7c9181900360600190a25050565b611782612309565b61178a6126a4565b60405142815233907f80170b5fcdd2bf1e0660ef4b8851f86685f64d41b1a19de1471947ece8725aac90602001611341565b7f9016d09d72d40fdae2fd8ceac6b6234c7706214fd39c1cd1e609a0528c199300546001600160a01b031690565b7f80bb2b638cc20bc4d0a60d66940f3ab4a00c1d7b313497ca82fb0b4ab007930180546060915f8051602061361e83398151915291610c7d906133f8565b6001600160a01b0381165f908152602081905260408120600154815483929183916118539190613444565b90508042111561186a57506001945f945092505050565b5f611875428361346e565b935093505050915091565b610d1e3383836126ec565b5f6118aa5f8051602061363e833981519152546001600160a01b031690565b905090565b6003602052815f5260405f2081815481106118c8575f80fd5b905f5260205f20015f91509150505481565b6118e26123f4565b335f9081526009602052604090205460ff16156119415760405162461bcd60e51b815260206004820152601960248201527f416c726561647920636c61696d656420667265652074726565000000000000006044820152606401610d47565b335f818152600960209081526040808320805460ff1916600190811790915560089092529182902055517f99590b4a6bfd4761de07de73cb3222e9fe2f151516b15638a73d9af95cf95240906113419042815260200190565b6119a26123f4565b335f90815260208190526040902060015481546119bf9190613444565b4211611a055760405162461bcd60e51b815260206004820152601560248201527410dbdbdb191bdddb881b9bdd08199a5b9a5cda1959605a1b6044820152606401610d47565b5f611a0f3361146f565b90505f8111611a725760405162461bcd60e51b815260206004820152602960248201527f4e6f20747265657320746f2077617465722e20436c61696d206672656520747260448201526865652066697273742160b81b6064820152608401610d47565b81545f03611a8557600182810155611acb565b600154611a93906002613457565b8254611a9f9190613444565b421115611ab157600182810155611acb565b6001826001015f828254611ac59190613444565b90915550505b428255600282018054600191905f90611ae5908490613444565b9091555050600b545f90611afa908390613457565b90505f600184600101541115611b3e575f60018560010154611b1c919061346e565b9050600d54811115611b2d5750600d545b600c54611b3a9082613457565b9150505b5f611b498284613444565b335f908152600a6020526040812080549293508392909190611b6c908490613444565b909155505060018501546002860154335f818152600a60209081526040918290205482519586529085019390935283018490526060830191909152426080830152907f993fa49d7ae24235bb25973cf159eebb32ac13e8e0c528fd86911e30957f55129060a00160405180910390a25050505050565b611bed848484610d22565b610daa338585858561279b565b5f611c036128c1565b805490915060ff600160401b820416159067ffffffffffffffff165f81158015611c2a5750825b90505f8267ffffffffffffffff166001148015611c465750303b155b905081158015611c54575080155b15611c725760405163f92ee8a960e01b815260040160405180910390fd5b845467ffffffffffffffff191660011785558315611c9c57845460ff60401b1916600160401b1785555b611cf76040518060400160405280601a81526020017f4c756d61526f6f74732054726565204365727469666963617465000000000000815250604051806040016040528060048152602001634c52544360e01b8152506128e9565b611cff6128fb565b611d0886612903565b611d106128fb565b5f60058181556004919091556201518060015566038d7ea4c680006007908155600a600b55600c91909155600d556101f4600e558315611d8a57845460ff60401b19168555604051600181527fc7f505b2f371ae2175ee4913f4499e1f2633a7b5936321eed1cdaeb6115181d29060200160405180910390a15b505050505050565b6001600160a01b0381165f90815260036020908152604091829020805483518184028101840190945280845260609392830182828015611def57602002820191905f5260205f20905b815481526020019060010190808311611ddb575b50505050509050919050565b60607f0542a41881ee128a365a727b282c86fa859579490b9bb45aab8503648c8e7900611e278361218a565b505f8381526020829052604081208054611e40906133f8565b80601f0160208091040260200160405190810160405280929190818152602001828054611e6c906133f8565b8015611eb75780601f10611e8e57610100808354040283529160200191611eb7565b820191905f5260205f20905b815481529060010190602001808311611e9a57829003601f168201915b505050505090505f611ed360408051602081019091525f815290565b905080515f03611ee557509392505050565b815115611f18578082604051602001611eff929190613481565b6040516020818303038152906040529350505050919050565b611f2185612914565b95945050505050565b611f32612309565b600b849055600c839055600d829055600e8190556040805185815260208101859052908101839052606081018290527fb5bd8ce7b3cce8de451f98cf419726894581ae3aaaaa1cc75ffef1cdf82b9ede9060800160405180910390a150505050565b611f9c612309565b5f611fa56117bc565b6001600160a01b0316476040515f6040518083038185875af1925050503d805f8114611fec576040519150601f19603f3d011682016040523d82523d5f602084013e611ff1565b606091505b50509050806120345760405162461bcd60e51b815260206004820152600f60248201526e15da5d1a191c985dc819985a5b1959608a1b6044820152606401610d47565b50565b61203f612309565b6001600160a01b0382165f908152600a602052604081208054839290612066908490613444565b90915550505050565b6001600160a01b039182165f9081527f80bb2b638cc20bc4d0a60d66940f3ab4a00c1d7b313497ca82fb0b4ab00793056020908152604080832093909416825291909152205460ff1690565b6120c3612309565b600780549082905560408051828152602081018490527fa54bc6f2713eaf07389c9368c5847b13d220c53bc741a200c646f7381c2235529101611548565b612109612309565b6001600160a01b03811661213257604051631e4fbdf760e01b81525f6004820152602401610d47565b61203481612634565b5f6001600160e01b031982166380ac58cd60e01b148061216b57506001600160e01b03198216635b5e139f60e01b145b80610c5857506301ffc9a760e01b6001600160e01b0319831614610c58565b5f8061219583612985565b90506001600160a01b038116610c5857604051637e27328960e01b815260048101849052602401610d47565b5f9081527f80bb2b638cc20bc4d0a60d66940f3ab4a00c1d7b313497ca82fb0b4ab007930460205260409020546001600160a01b031690565b61136583838360016129be565b5f5f8051602061361e8339815191528161222085612985565b90506001600160a01b0384161561223c5761223c818587612ad1565b6001600160a01b03811615612278576122575f865f806129be565b6001600160a01b0381165f908152600383016020526040902080545f190190555b6001600160a01b038616156122a8576001600160a01b0386165f9081526003830160205260409020805460010190555b5f85815260028301602052604080822080546001600160a01b0319166001600160a01b038a811691821790925591518893918516917fddf252ad1be2c89b69c2b068fc378daa952ba7f163c4a11628f55a4df523b3ef91a495945050505050565b336123126117bc565b6001600160a01b0316146115bd5760405163118cdaa760e01b8152336004820152602401610d47565b610d1e828260405180602001604052805f815250612b35565b5f8281527f0542a41881ee128a365a727b282c86fa859579490b9bb45aab8503648c8e79006020819052604090912061238d83826134f3565b506040518381527ff8e1a15aba9398e019f0b49df1a4fde98ee17ae345cb5f6b5e2c27f5033e8ce79060200160405180910390a1505050565b6123ce612b4c565b60027f9b779b17422d0df92223018b32b4d1fa46e071723d6817e2486d003becc55f0055565b5f8051602061365e8339815191525460ff16156115bd5760405163d93c066560e01b815260040160405180910390fd5b61242c612b8e565b5f8051602061365e833981519152805460ff191681557f5db9ee0a495bf2e6ff9c91a7834c1ba4fdd244a5e8aa4e537bd38aeae4b073aa335b6040516001600160a01b03909116815260200160405180910390a150565b306001600160a01b037f000000000000000000000000000000000000000000000000000000000000000016148061250957507f00000000000000000000000000000000000000000000000000000000000000006001600160a01b03166124fd5f8051602061363e833981519152546001600160a01b031690565b6001600160a01b031614155b156115bd5760405163703e46dd60e11b815260040160405180910390fd5b612034612309565b816001600160a01b03166352d1902d6040518163ffffffff1660e01b8152600401602060405180830381865afa925050508015612589575060408051601f3d908101601f19168201909252612586918101906135af565b60015b6125b157604051634c9c8ce360e01b81526001600160a01b0383166004820152602401610d47565b5f8051602061363e83398151915281146125e157604051632a87526960e21b815260048101829052602401610d47565b6113658383612bbd565b306001600160a01b037f000000000000000000000000000000000000000000000000000000000000000016146115bd5760405163703e46dd60e11b815260040160405180910390fd5b7f9016d09d72d40fdae2fd8ceac6b6234c7706214fd39c1cd1e609a0528c19930080546001600160a01b031981166001600160a01b03848116918217845560405192169182907f8be0079c531659141344cd1fd0a4f28419497f9722a3daafe3b4186f6b6457e0905f90a3505050565b6126ac6123f4565b5f8051602061365e833981519152805460ff191660011781557f62e78cea01bee320cd4e420270b5ea74000d11b0c9f74754ebdbfc544b05a25833612465565b5f8051602061361e8339815191526001600160a01b03831661272c57604051630b61174360e31b81526001600160a01b0384166004820152602401610d47565b6001600160a01b038481165f818152600584016020908152604080832094881680845294825291829020805460ff191687151590811790915591519182527f17307eab39ab6107e8899845ad3d59bd9653f200f220920489ca2b5937696c31910160405180910390a350505050565b6001600160a01b0383163b156128ba57604051630a85bd0160e11b81526001600160a01b0384169063150b7a02906127dd9088908890879087906004016135c6565b6020604051808303815f875af1925050508015612817575060408051601f3d908101601f1916820190925261281491810190613602565b60015b61287e573d808015612844576040519150601f19603f3d011682016040523d82523d5f602084013e612849565b606091505b5080515f0361287657604051633250574960e11b81526001600160a01b0385166004820152602401610d47565b805160208201fd5b6001600160e01b03198116630a85bd0160e11b14611d8a57604051633250574960e11b81526001600160a01b0385166004820152602401610d47565b5050505050565b5f807ff0c57e16840df040f15088dc2f81fe391c3923bec73e23a9662efc9c229c6a00610c58565b6128f1612c12565b610d1e8282612c37565b6115bd612c12565b61290b612c12565b61203481612c67565b606061291f8261218a565b505f61293560408051602081019091525f815290565b90505f8151116129535760405180602001604052805f81525061297e565b8061295d84612c6f565b60405160200161296e929190613481565b6040516020818303038152906040525b9392505050565b5f9081527f80bb2b638cc20bc4d0a60d66940f3ab4a00c1d7b313497ca82fb0b4ab007930260205260409020546001600160a01b031690565b5f8051602061361e83398151915281806129e057506001600160a01b03831615155b15612aa1575f6129ef8561218a565b90506001600160a01b03841615801590612a1b5750836001600160a01b0316816001600160a01b031614155b8015612a2e5750612a2c818561206f565b155b15612a575760405163a9fbf51f60e01b81526001600160a01b0385166004820152602401610d47565b8215612a9f5784866001600160a01b0316826001600160a01b03167f8c5be1e5ebec7d5bd14f71427d1e84f3dd0314c0f7b2291e5b200ac8c7c3b92560405160405180910390a45b505b5f93845260040160205250506040902080546001600160a01b0319166001600160a01b0392909216919091179055565b612adc838383612cff565b611365576001600160a01b038316612b0a57604051637e27328960e01b815260048101829052602401610d47565b60405163177e802f60e01b81526001600160a01b038316600482015260248101829052604401610d47565b612b3f8383612d63565b611365335f85858561279b565b7f9b779b17422d0df92223018b32b4d1fa46e071723d6817e2486d003becc55f00546002036115bd57604051633ee5aeb560e01b815260040160405180910390fd5b5f8051602061365e8339815191525460ff166115bd57604051638dfc202b60e01b815260040160405180910390fd5b612bc682612dc4565b6040516001600160a01b038316907fbc7cd75a20ee27fd9adebab32041f755214dbc6bffa90cc0225b39da2e5c2d3b905f90a2805115612c0a576113658282612e27565b610d1e612ec7565b612c1a612ee6565b6115bd57604051631afcd79f60e31b815260040160405180910390fd5b612c3f612c12565b5f8051602061361e83398151915280612c5884826134f3565b5060018101610daa83826134f3565b612109612c12565b60605f612c7b83612eff565b60010190505f8167ffffffffffffffff811115612c9a57612c9a61312f565b6040519080825280601f01601f191660200182016040528015612cc4576020820181803683370190505b5090508181016020015b5f19016f181899199a1a9b1b9c1cb0b131b232b360811b600a86061a8153600a8504945084612cce57509392505050565b5f6001600160a01b0383161580159061149c5750826001600160a01b0316846001600160a01b03161480612d385750612d38848461206f565b8061149c5750826001600160a01b0316612d51836121c1565b6001600160a01b031614949350505050565b6001600160a01b038216612d8c57604051633250574960e11b81525f6004820152602401610d47565b5f612d9883835f612207565b90506001600160a01b03811615611365576040516339e3563760e11b81525f6004820152602401610d47565b806001600160a01b03163b5f03612df957604051634c9c8ce360e01b81526001600160a01b0382166004820152602401610d47565b5f8051602061363e83398151915280546001600160a01b0319166001600160a01b0392909216919091179055565b60605f612e348484612fd6565b9050808015612e5557505f3d1180612e5557505f846001600160a01b03163b115b15612e6a57612e62612fe9565b915050610c58565b8015612e9457604051639996b31560e01b81526001600160a01b0385166004820152602401610d47565b3d15612ea757612ea2613002565b612ec0565b60405163d6bda27560e01b815260040160405180910390fd5b5092915050565b34156115bd5760405163b398979f60e01b815260040160405180910390fd5b5f612eef6128c1565b54600160401b900460ff16919050565b5f8072184f03e93ff9f4daa797ed6e38ed64bf6a1f0160401b8310612f3d5772184f03e93ff9f4daa797ed6e38ed64bf6a1f0160401b830492506040015b6d04ee2d6d415b85acef81000000008310612f69576d04ee2d6d415b85acef8100000000830492506020015b662386f26fc100008310612f8757662386f26fc10000830492506010015b6305f5e1008310612f9f576305f5e100830492506008015b6127108310612fb357612710830492506004015b60648310612fc5576064830492506002015b600a8310610c585760010192915050565b5f805f835160208501865af49392505050565b6040513d81523d5f602083013e3d602001810160405290565b6040513d5f823e3d81fd5b6001600160e01b031981168114612034575f80fd5b5f60208284031215613032575f80fd5b813561297e8161300d565b5f5b8381101561305757818101518382015260200161303f565b50505f910152565b5f815180845261307681602086016020860161303d565b601f01601f19169290920160200192915050565b602081525f61297e602083018461305f565b5f602082840312156130ac575f80fd5b5035919050565b80356001600160a01b03811681146130c9575f80fd5b919050565b5f80604083850312156130df575f80fd5b6130e8836130b3565b946020939093013593505050565b5f805f60608486031215613108575f80fd5b613111846130b3565b925061311f602085016130b3565b9150604084013590509250925092565b634e487b7160e01b5f52604160045260245ffd5b5f82601f830112613152575f80fd5b813567ffffffffffffffff8082111561316d5761316d61312f565b604051601f8301601f19908116603f011681019082821181831017156131955761319561312f565b816040528381528660208588010111156131ad575f80fd5b836020870160208301375f602085830101528094505050505092915050565b5f805f606084860312156131de575f80fd5b83359250602084013567ffffffffffffffff808211156131fc575f80fd5b61320887838801613143565b9350604086013591508082111561321d575f80fd5b5061322a86828701613143565b9150509250925092565b5f60208284031215613244575f80fd5b61297e826130b3565b5f806040838503121561325e575f80fd5b50508035926020909101359150565b5f806040838503121561327e575f80fd5b613287836130b3565b9150602083013567ffffffffffffffff8111156132a2575f80fd5b6132ae85828601613143565b9150509250929050565b5f80604083850312156132c9575f80fd5b6132d2836130b3565b9150602083013580151581146132e6575f80fd5b809150509250929050565b5f805f8060808587031215613304575f80fd5b61330d856130b3565b935061331b602086016130b3565b925060408501359150606085013567ffffffffffffffff81111561333d575f80fd5b61334987828801613143565b91505092959194509250565b602080825282518282018190525f9190848201906040850190845b8181101561338c57835183529284019291840191600101613370565b50909695505050505050565b5f805f80608085870312156133ab575f80fd5b5050823594602084013594506040840135936060013592509050565b5f80604083850312156133d8575f80fd5b6133e1836130b3565b91506133ef602084016130b3565b90509250929050565b600181811c9082168061340c57607f821691505b60208210810361342a57634e487b7160e01b5f52602260045260245ffd5b50919050565b634e487b7160e01b5f52601160045260245ffd5b80820180821115610c5857610c58613430565b8082028115828204841417610c5857610c58613430565b81810381811115610c5857610c58613430565b5f835161349281846020880161303d565b8351908301906134a681836020880161303d565b01949350505050565b601f82111561136557805f5260205f20601f840160051c810160208510156134d45750805b601f840160051c820191505b818110156128ba575f81556001016134e0565b815167ffffffffffffffff81111561350d5761350d61312f565b6135218161351b84546133f8565b846134af565b602080601f831160018114613554575f841561353d5750858301515b5f19600386901b1c1916600185901b178555611d8a565b5f85815260208120601f198616915b8281101561358257888601518255948401946001909101908401613563565b508582101561359f57878501515f19600388901b60f8161c191681555b5050505050600190811b01905550565b5f602082840312156135bf575f80fd5b5051919050565b6001600160a01b03858116825284166020820152604081018390526080606082018190525f906135f89083018461305f565b9695505050505050565b5f60208284031215613612575f80fd5b815161297e8161300d56fe80bb2b638cc20bc4d0a60d66940f3ab4a00c1d7b313497ca82fb0b4ab0079300360894a13ba1a3210667c828492db98dca3e2076cc3735a920a3ca505d382bbccd5ed15c6e187e77e9aee88184c21f4f2182ab5827cb3b7e07fbedcd63f03300a26469706673582212201bedac450b514db4abbab81a81024aaf41a9098baa935aa265bd975325292ba864736f6c63430008180033","linkReferences":{}},"methodIdentifiers":{"UPGRADE_INTERFACE_VERSION()":"ad3cb1cc","VERSION()":"ffa1ad74","approve(address,uint256)":"095ea7b3","awardPoints(address,uint256)":"e8bec08f","balanceOf(address)":"70a08231","calculateWaterPoints(address)":"4d2f0012","canWaterNow(address)":"97a64469","claimFreeTree()":"b21c20c1","cooldownTime()":"b319c6b7","emergencyWithdraw()":"db2e21bc","getApproved(uint256)":"081812fc","getImplementation()":"aaf10f42","getPointsSettings()":"3b47775c","getPurchase(uint256)":"3742a9f7","getTotalTreeCount(address)":"4fe16257","getUserForest(address)":"763bf2a7","getUserPlant(address)":"ae8af909","getUserPurchaseCount(address)":"91b96b63","getUserPurchases(address)":"c6e5d8f6","hasClaimedFreeTree(address)":"b74ff582","initialize(address)":"c4d66de8","isApprovedForAll(address,address)":"e985e9c5","markPurchaseProcessed(uint256)":"31545e6c","maxStreakBonus()":"2217674b","minPurchaseAmount()":"b47dbf22","mintCertificate(uint256,string,string)":"27994aa4","name()":"06fdde03","owner()":"8da5cb5b","ownerOf(uint256)":"6352211e","pause()":"8456cb59","paused()":"5c975abb","pointsPerVirtualTree()":"d525eed5","pointsPerWater()":"09bf73fe","proxiableUUID()":"52d1902d","purchaseTree(uint256,uint256)":"2bf500fe","purchases(uint256)":"8392fe31","redeemPointsForTree(uint256)":"7cc31959","renounceOwnership()":"715018a6","safeTransferFrom(address,address,uint256)":"42842e0e","safeTransferFrom(address,address,uint256,bytes)":"b88d4fde","setApprovalForAll(address,bool)":"a22cb465","setCooldownTime(uint256)":"6ff73201","setMinPurchaseAmount(uint256)":"e9d3fb78","setPointsSettings(uint256,uint256,uint256,uint256)":"c8d3ab64","streakBonusPoints()":"36f71682","supportsInterface(bytes4)":"01ffc9a7","symbol()":"95d89b41","tokenIdToPurchaseId(uint256)":"c40585f9","tokenURI(uint256)":"c87b56dd","totalPurchases()":"5962a941","totalSupply()":"18160ddd","transferFrom(address,address,uint256)":"23b872dd","transferOwnership(address)":"f2fde38b","unpause()":"3f4ba83a","upgradeToAndCall(address,bytes)":"4f1ef286","userPlants(address)":"3910ba47","userPoints(address)":"f50ddbc7","userPurchaseIds(address,uint256)":"b077a9a7","virtualTreeCount(address)":"284fb88f","waterPlant()":"b2eb53a1"},"id":53}