{"abi":[{"type":"constructor","inputs":[],"stateMutability":"nonpayable"},{"type":"function","name":"UPGRADE_INTERFACE_VERSION","inputs":[],"outputs":[{"name":"","type":"string","internalType":"string"}],"stateMutability":"view"},{"type":"function","name":"VERSION","inputs":[],"outputs":[{"name":"","type":"string","internalType":"string"}],"stateMutability":"view"},{"type":"function","name":"approve","inputs":[{"name":"to","type":"address","internalType":"address"},{"name":"tokenId","type":"uint256","internalType":"uint256"}],"outputs":[],"stateMutability":"nonpayable"},{"type":"function","name":"balanceOf","inputs":[{"name":"owner","type":"address","internalType":"address"}],"outputs":[{"name":"","type":"uint256","internalType":"uint256"}],"stateMutability":"view"},{"type":"function","name":"canWaterNow","inputs":[{"name":"user","type":"address","internalType":"address"}],"outputs":[{"name":"canWater","type":"bool","internalType":"bool"},{"name":"timeRemaining","type":"uint256","internalType":"uint256"}],"stateMutability":"view"},{"type":"function","name":"cooldownTime","inputs":[],"outputs":[{"name":"","type":"uint256","internalType":"uint256"}],"stateMutability":"view"},{"type":"function","name":"emergencyWithdraw","inputs":[],"outputs":[],"stateMutability":"nonpayable"},{"type":"function","name":"getApproved","inputs":[{"name":"tokenId","type":"uint256","internalType":"uint256"}],"outputs":[{"name":"","type":"address","internalType":"address"}],"stateMutability":"view"},{"type":"function","name":"getImplementation","inputs":[],"outputs":[{"name":"","type":"address","internalType":"address"}],"stateMutability":"view"},{"type":"function","name":"getPurchase","inputs":[{"name":"purchaseId","type":"uint256","internalType":"uint256"}],"outputs":[{"name":"buyer","type":"address","internalType":"address"},{"name":"speciesId","type":"uint256","internalType":"uint256"},{"name":"projectId","type":"uint256","internalType":"uint256"},{"name":"amountPaid","type":"uint256","internalType":"uint256"},{"name":"priceEUR","type":"uint256","internalType":"uint256"},{"name":"timestamp","type":"uint256","internalType":"uint256"},{"name":"processed","type":"bool","internalType":"bool"},{"name":"nftMinted","type":"bool","internalType":"bool"}],"stateMutability":"view"},{"type":"function","name":"getUserPlant","inputs":[{"name":"user","type":"address","internalType":"address"}],"outputs":[{"name":"lastWaterTime","type":"uint256","internalType":"uint256"},{"name":"waterStreak","type":"uint256","internalType":"uint256"},{"name":"totalWaterCount","type":"uint256","internalType":"uint256"}],"stateMutability":"view"},{"type":"function","name":"getUserPurchaseCount","inputs":[{"name":"user","type":"address","internalType":"address"}],"outputs":[{"name":"","type":"uint256","internalType":"uint256"}],"stateMutability":"view"},{"type":"function","name":"getUserPurchases","inputs":[{"name":"user","type":"address","internalType":"address"}],"outputs":[{"name":"","type":"uint256[]","internalType":"uint256[]"}],"stateMutability":"view"},{"type":"function","name":"initialize","inputs":[{"name":"initialOwner","type":"address","internalType":"address"}],"outputs":[],"stateMutability":"nonpayable"},{"type":"function","name":"isApprovedForAll","inputs":[{"name":"owner","type":"address","internalType":"address"},{"name":"operator","type":"address","internalType":"address"}],"outputs":[{"name":"","type":"bool","internalType":"bool"}],"stateMutability":"view"},{"type":"function","name":"markPurchaseProcessed","inputs":[{"name":"purchaseId","type":"uint256","internalType":"uint256"}],"outputs":[],"stateMutability":"nonpayable"},{"type":"function","name":"minPurchaseAmount","inputs":[],"outputs":[{"name":"","type":"uint256","internalType":"uint256"}],"stateMutability":"view"},{"type":"function","name":"mintCertificate","inputs":[{"name":"purchaseId","type":"uint256","internalType":"uint256"},{"name":"tokenURI","type":"string","internalType":"string"},{"name":"treeNationId","type":"string","internalType":"string"}],"outputs":[],"stateMutability":"nonpayable"},{"type":"function","name":"name","inputs":[],"outputs":[{"name":"","type":"string","internalType":"string"}],"stateMutability":"view"},{"type":"function","name":"owner","inputs":[],"outputs":[{"name":"","type":"address","internalType":"address"}],"stateMutability":"view"},{"type":"function","name":"ownerOf","inputs":[{"name":"tokenId","type":"uint256","internalType":"uint256"}],"outputs":[{"name":"","type":"address","internalType":"address"}],"stateMutability":"view"},{"type":"function","name":"proxiableUUID","inputs":[],"outputs":[{"name":"","type":"bytes32","internalType":"bytes32"}],"stateMutability":"view"},{"type":"function","name":"purchaseTree","inputs":[{"name":"speciesId","type":"uint256","internalType":"uint256"},{"name":"projectId","type":"uint256","internalType":"uint256"},{"name":"priceEUR","type":"uint256","internalType":"uint256"}],"outputs":[],"stateMutability":"payable"},{"type":"function","name":"purchases","inputs":[{"name":"","type":"uint256","internalType":"uint256"}],"outputs":[{"name":"buyer","type":"address","internalType":"address"},{"name":"speciesId","type":"uint256","internalType":"uint256"},{"name":"projectId","type":"uint256","internalType":"uint256"},{"name":"amountPaid","type":"uint256","internalType":"uint256"},{"name":"priceEUR","type":"uint256","internalType":"uint256"},{"name":"timestamp","type":"uint256","internalType":"uint256"},{"name":"processed","type":"bool","internalType":"bool"},{"name":"nftMinted","type":"bool","internalType":"bool"}],"stateMutability":"view"},{"type":"function","name":"renounceOwnership","inputs":[],"outputs":[],"stateMutability":"nonpayable"},{"type":"function","name":"safeTransferFrom","inputs":[{"name":"from","type":"address","internalType":"address"},{"name":"to","type":"address","internalType":"address"},{"name":"tokenId","type":"uint256","internalType":"uint256"}],"outputs":[],"stateMutability":"nonpayable"},{"type":"function","name":"safeTransferFrom","inputs":[{"name":"from","type":"address","internalType":"address"},{"name":"to","type":"address","internalType":"address"},{"name":"tokenId","type":"uint256","internalType":"uint256"},{"name":"data","type":"bytes","internalType":"bytes"}],"outputs":[],"stateMutability":"nonpayable"},{"type":"function","name":"setApprovalForAll","inputs":[{"name":"operator","type":"address","internalType":"address"},{"name":"approved","type":"bool","internalType":"bool"}],"outputs":[],"stateMutability":"nonpayable"},{"type":"function","name":"setCooldownTime","inputs":[{"name":"_seconds","type":"uint256","internalType":"uint256"}],"outputs":[],"stateMutability":"nonpayable"},{"type":"function","name":"setMinPurchaseAmount","inputs":[{"name":"_amount","type":"uint256","internalType":"uint256"}],"outputs":[],"stateMutability":"nonpayable"},{"type":"function","name":"supportsInterface","inputs":[{"name":"interfaceId","type":"bytes4","internalType":"bytes4"}],"outputs":[{"name":"","type":"bool","internalType":"bool"}],"stateMutability":"view"},{"type":"function","name":"symbol","inputs":[],"outputs":[{"name":"","type":"string","internalType":"string"}],"stateMutability":"view"},{"type":"function","name":"tokenIdToPurchaseId","inputs":[{"name":"","type":"uint256","internalType":"uint256"}],"outputs":[{"name":"","type":"uint256","internalType":"uint256"}],"stateMutability":"view"},{"type":"function","name":"tokenURI","inputs":[{"name":"tokenId","type":"uint256","internalType":"uint256"}],"outputs":[{"name":"","type":"string","internalType":"string"}],"stateMutability":"view"},{"type":"function","name":"totalPurchases","inputs":[],"outputs":[{"name":"","type":"uint256","internalType":"uint256"}],"stateMutability":"view"},{"type":"function","name":"totalSupply","inputs":[],"outputs":[{"name":"","type":"uint256","internalType":"uint256"}],"stateMutability":"view"},{"type":"function","name":"transferFrom","inputs":[{"name":"from","type":"address","internalType":"address"},{"name":"to","type":"address","internalType":"address"},{"name":"tokenId","type":"uint256","internalType":"uint256"}],"outputs":[],"stateMutability":"nonpayable"},{"type":"function","name":"transferOwnership","inputs":[{"name":"newOwner","type":"address","internalType":"address"}],"outputs":[],"stateMutability":"nonpayable"},{"type":"function","name":"upgradeToAndCall","inputs":[{"name":"newImplementation","type":"address","internalType":"address"},{"name":"data","type":"bytes","internalType":"bytes"}],"outputs":[],"stateMutability":"payable"},{"type":"function","name":"userPlants","inputs":[{"name":"","type":"address","internalType":"address"}],"outputs":[{"name":"lastWaterTime","type":"uint256","internalType":"uint256"},{"name":"waterStreak","type":"uint256","internalType":"uint256"},{"name":"totalWaterCount","type":"uint256","internalType":"uint256"}],"stateMutability":"view"},{"type":"function","name":"userPurchaseIds","inputs":[{"name":"","type":"address","internalType":"address"},{"name":"","type":"uint256","internalType":"uint256"}],"outputs":[{"name":"","type":"uint256","internalType":"uint256"}],"stateMutability":"view"},{"type":"function","name":"waterPlant","inputs":[],"outputs":[],"stateMutability":"nonpayable"},{"type":"event","name":"Approval","inputs":[{"name":"owner","type":"address","indexed":true,"internalType":"address"},{"name":"approved","type":"address","indexed":true,"internalType":"address"},{"name":"tokenId","type":"uint256","indexed":true,"internalType":"uint256"}],"anonymous":false},{"type":"event","name":"ApprovalForAll","inputs":[{"name":"owner","type":"address","indexed":true,"internalType":"address"},{"name":"operator","type":"address","indexed":true,"internalType":"address"},{"name":"approved","type":"bool","indexed":false,"internalType":"bool"}],"anonymous":false},{"type":"event","name":"BatchMetadataUpdate","inputs":[{"name":"_fromTokenId","type":"uint256","indexed":false,"internalType":"uint256"},{"name":"_toTokenId","type":"uint256","indexed":false,"internalType":"uint256"}],"anonymous":false},{"type":"event","name":"CertificateMinted","inputs":[{"name":"tokenId","type":"uint256","indexed":true,"internalType":"uint256"},{"name":"owner","type":"address","indexed":true,"internalType":"address"},{"name":"purchaseId","type":"uint256","indexed":true,"internalType":"uint256"},{"name":"treeNationId","type":"string","indexed":false,"internalType":"string"}],"anonymous":false},{"type":"event","name":"CooldownTimeUpdated","inputs":[{"name":"oldCooldown","type":"uint256","indexed":false,"internalType":"uint256"},{"name":"newCooldown","type":"uint256","indexed":false,"internalType":"uint256"}],"anonymous":false},{"type":"event","name":"Initialized","inputs":[{"name":"version","type":"uint64","indexed":false,"internalType":"uint64"}],"anonymous":false},{"type":"event","name":"MetadataUpdate","inputs":[{"name":"_tokenId","type":"uint256","indexed":false,"internalType":"uint256"}],"anonymous":false},{"type":"event","name":"MinPurchaseAmountUpdated","inputs":[{"name":"oldMin","type":"uint256","indexed":false,"internalType":"uint256"},{"name":"newMin","type":"uint256","indexed":false,"internalType":"uint256"}],"anonymous":false},{"type":"event","name":"OwnershipTransferred","inputs":[{"name":"previousOwner","type":"address","indexed":true,"internalType":"address"},{"name":"newOwner","type":"address","indexed":true,"internalType":"address"}],"anonymous":false},{"type":"event","name":"PlantWatered","inputs":[{"name":"user","type":"address","indexed":true,"internalType":"address"},{"name":"newStreak","type":"uint256","indexed":false,"internalType":"uint256"},{"name":"totalWaterCount","type":"uint256","indexed":false,"internalType":"uint256"},{"name":"timestamp","type":"uint256","indexed":false,"internalType":"uint256"}],"anonymous":false},{"type":"event","name":"Transfer","inputs":[{"name":"from","type":"address","indexed":true,"internalType":"address"},{"name":"to","type":"address","indexed":true,"internalType":"address"},{"name":"tokenId","type":"uint256","indexed":true,"internalType":"uint256"}],"anonymous":false},{"type":"event","name":"TreePurchased","inputs":[{"name":"purchaseId","type":"uint256","indexed":true,"internalType":"uint256"},{"name":"buyer","type":"address","indexed":true,"internalType":"address"},{"name":"speciesId","type":"uint256","indexed":false,"internalType":"uint256"},{"name":"projectId","type":"uint256","indexed":false,"internalType":"uint256"},{"name":"amountPaid","type":"uint256","indexed":false,"internalType":"uint256"},{"name":"priceEUR","type":"uint256","indexed":false,"internalType":"uint256"},{"name":"timestamp","type":"uint256","indexed":false,"internalType":"uint256"}],"anonymous":false},{"type":"event","name":"Upgraded","inputs":[{"name":"implementation","type":"address","indexed":true,"internalType":"address"}],"anonymous":false},{"type":"error","name":"AddressEmptyCode","inputs":[{"name":"target","type":"address","internalType":"address"}]},{"type":"error","name":"ERC1967InvalidImplementation","inputs":[{"name":"implementation","type":"address","internalType":"address"}]},{"type":"error","name":"ERC1967NonPayable","inputs":[]},{"type":"error","name":"ERC721IncorrectOwner","inputs":[{"name":"sender","type":"address","internalType":"address"},{"name":"tokenId","type":"uint256","internalType":"uint256"},{"name":"owner","type":"address","internalType":"address"}]},{"type":"error","name":"ERC721InsufficientApproval","inputs":[{"name":"operator","type":"address","internalType":"address"},{"name":"tokenId","type":"uint256","internalType":"uint256"}]},{"type":"error","name":"ERC721InvalidApprover","inputs":[{"name":"approver","type":"address","internalType":"address"}]},{"type":"error","name":"ERC721InvalidOperator","inputs":[{"name":"operator","type":"address","internalType":"address"}]},{"type":"error","name":"ERC721InvalidOwner","inputs":[{"name":"owner","type":"address","internalType":"address"}]},{"type":"error","name":"ERC721InvalidReceiver","inputs":[{"name":"receiver","type":"address","internalType":"address"}]},{"type":"error","name":"ERC721InvalidSender","inputs":[{"name":"sender","type":"address","internalType":"address"}]},{"type":"error","name":"ERC721NonexistentToken","inputs":[{"name":"tokenId","type":"uint256","internalType":"uint256"}]},{"type":"error","name":"FailedCall","inputs":[]},{"type":"error","name":"InvalidInitialization","inputs":[]},{"type":"error","name":"NotInitializing","inputs":[]},{"type":"error","name":"OwnableInvalidOwner","inputs":[{"name":"owner","type":"address","internalType":"address"}]},{"type":"error","name":"OwnableUnauthorizedAccount","inputs":[{"name":"account","type":"address","internalType":"address"}]},{"type":"error","name":"ReentrancyGuardReentrantCall","inputs":[]},{"type":"error","name":"UUPSUnauthorizedCallContext","inputs":[]},{"type":"error","name":"UUPSUnsupportedProxiableUUID","inputs":[{"name":"slot","type":"bytes32","internalType":"bytes32"}]}],"bytecode":{"object":"0x60a06040523060805234801562000014575f80fd5b5060017f9b779b17422d0df92223018b32b4d1fa46e071723d6817e2486d003becc55f00556200004362000049565b620000fd565b7ff0c57e16840df040f15088dc2f81fe391c3923bec73e23a9662efc9c229c6a00805468010000000000000000900460ff16156200009a5760405163f92ee8a960e01b815260040160405180910390fd5b80546001600160401b0390811614620000fa5780546001600160401b0319166001600160401b0390811782556040519081527fc7f505b2f371ae2175ee4913f4499e1f2633a7b5936321eed1cdaeb6115181d29060200160405180910390a15b50565b608051612be9620001245f395f8181611a5201528181611a7b0152611bba0152612be95ff3fe608060405260043610610249575f3560e01c806391b96b6311610134578063b47dbf22116100b3578063c87b56dd11610078578063c87b56dd146107f0578063db2e21bc1461080f578063e985e9c514610823578063e9d3fb7814610842578063f2fde38b14610861578063ffa1ad7414610880575f80fd5b8063b47dbf2214610746578063b88d4fde1461075b578063c40585f91461077a578063c4d66de8146107a5578063c6e5d8f6146107c4575f80fd5b8063ad3cb1cc116100f9578063ad3cb1cc1461068d578063ae8af909146106bd578063b077a9a7146106fe578063b2eb53a11461071d578063b319c6b714610731575f80fd5b806391b96b63146105dc57806395d89b411461061057806397a6446914610624578063a22cb4651461065a578063aaf10f4214610679575f80fd5b806342842e0e116101cb5780636ff73201116101905780636ff73201146104f757806370a0823114610516578063715018a614610535578063832e34a7146105495780638392fe311461055c5780638da5cb5b146105c8575f80fd5b806342842e0e1461047e5780634f1ef2861461049d57806352d1902d146104b05780635962a941146104c45780636352211e146104d8575f80fd5b806323b872dd1161021157806323b872dd1461031857806327994aa41461033757806331545e6c146103565780633742a9f7146103755780633910ba4714610429575f80fd5b806301ffc9a71461024d57806306fdde0314610281578063081812fc146102a2578063095ea7b3146102d957806318160ddd146102fa575b5f80fd5b348015610258575f80fd5b5061026c61026736600461259e565b6108b0565b60405190151581526020015b60405180910390f35b34801561028c575f80fd5b506102956108da565b6040516102789190612606565b3480156102ad575f80fd5b506102c16102bc366004612618565b61097b565b6040516001600160a01b039091168152602001610278565b3480156102e4575f80fd5b506102f86102f336600461264a565b61098f565b005b348015610305575f80fd5b506005545b604051908152602001610278565b348015610323575f80fd5b506102f8610332366004612672565b61099e565b348015610342575f80fd5b506102f8610351366004612748565b610a2c565b348015610361575f80fd5b506102f8610370366004612618565b610bd8565b348015610380575f80fd5b506103e061038f366004612618565b5f90815260026020819052604090912080546001820154928201546003830154600484015460058501546006909501546001600160a01b039094169692949193909260ff8083169261010090041690565b604080516001600160a01b0390991689526020890197909752958701949094526060860192909252608085015260a0840152151560c0830152151560e082015261010001610278565b348015610434575f80fd5b506104636104433660046127b0565b5f6020819052908152604090208054600182015460029092015490919083565b60408051938452602084019290925290820152606001610278565b348015610489575f80fd5b506102f8610498366004612672565b610c93565b6102f86104ab3660046127c9565b610cb2565b3480156104bb575f80fd5b5061030a610ccd565b3480156104cf575f80fd5b5060045461030a565b3480156104e3575f80fd5b506102c16104f2366004612618565b610ce8565b348015610502575f80fd5b506102f8610511366004612618565b610cf2565b348015610521575f80fd5b5061030a6105303660046127b0565b610d7d565b348015610540575f80fd5b506102f8610dd5565b6102f8610557366004612814565b610de8565b348015610567575f80fd5b506103e0610576366004612618565b600260208190525f918252604090912080546001820154928201546003830154600484015460058501546006909501546001600160a01b03909416959492939192909160ff8082169161010090041688565b3480156105d3575f80fd5b506102c16110dd565b3480156105e7575f80fd5b5061030a6105f63660046127b0565b6001600160a01b03165f9081526003602052604090205490565b34801561061b575f80fd5b5061029561110b565b34801561062f575f80fd5b5061064361063e3660046127b0565b611149565b604080519215158352602083019190915201610278565b348015610665575f80fd5b506102f861067436600461283d565b6111a1565b348015610684575f80fd5b506102c16111ac565b348015610698575f80fd5b50610295604051806040016040528060058152602001640352e302e360dc1b81525081565b3480156106c8575f80fd5b506104636106d73660046127b0565b6001600160a01b03165f908152602081905260409020805460018201546002909201549092565b348015610709575f80fd5b5061030a61071836600461264a565b6111d0565b348015610728575f80fd5b506102f86111fb565b34801561073c575f80fd5b5061030a60015481565b348015610751575f80fd5b5061030a60075481565b348015610766575f80fd5b506102f8610775366004612876565b611326565b348015610785575f80fd5b5061030a610794366004612618565b60066020525f908152604090205481565b3480156107b0575f80fd5b506102f86107bf3660046127b0565b61133e565b3480156107cf575f80fd5b506107e36107de3660046127b0565b6114b5565b60405161027891906128da565b3480156107fb575f80fd5b5061029561080a366004612618565b61151e565b34801561081a575f80fd5b506102f861164d565b34801561082e575f80fd5b5061026c61083d36600461291d565b6116f0565b34801561084d575f80fd5b506102f861085c366004612618565b61173c565b34801561086c575f80fd5b506102f861087b3660046127b0565b611782565b34801561088b575f80fd5b50610295604051806040016040528060058152602001640312e302e360dc1b81525081565b5f6001600160e01b03198216632483248360e11b14806108d457506108d4826117bc565b92915050565b5f80516020612b7483398151915280546060919081906108f99061294e565b80601f01602080910402602001604051908101604052809291908181526020018280546109259061294e565b80156109705780601f1061094757610100808354040283529160200191610970565b820191905f5260205f20905b81548152906001019060200180831161095357829003601f168201915b505050505091505090565b5f6109858261180b565b506108d482611842565b61099a82823361187b565b5050565b6001600160a01b0382166109cc57604051633250574960e11b81525f60048201526024015b60405180910390fd5b5f6109d8838333611888565b9050836001600160a01b0316816001600160a01b031614610a26576040516364283d7b60e01b81526001600160a01b03808616600483015260248201849052821660448201526064016109c3565b50505050565b610a3461198a565b5f83815260026020526040902080546001600160a01b0316610a8d5760405162461bcd60e51b8152602060048201526012602482015271141d5c98da185cd9481b9bdd08199bdd5b9960721b60448201526064016109c3565b600681015460ff16610ae15760405162461bcd60e51b815260206004820152601a60248201527f5075726368617365206e6f74207965742070726f63657373656400000000000060448201526064016109c3565b6006810154610100900460ff1615610b305760405162461bcd60e51b815260206004820152601260248201527113919508185b1c9958591e481b5a5b9d195960721b60448201526064016109c3565b60058054906001905f610b43838561299a565b90915550508154610b5d906001600160a01b0316826119bc565b610b6781856119d5565b5f818152600660208190526040918290208790558301805461ff0019166101001790558254905186916001600160a01b03169083907fc634e044312eb7dc5719a0882979ef83fff07a9c7c0be5ed5d068b63a246729e90610bc9908890612606565b60405180910390a45050505050565b610be061198a565b5f81815260026020526040902080546001600160a01b0316610c395760405162461bcd60e51b8152602060048201526012602482015271141d5c98da185cd9481b9bdd08199bdd5b9960721b60448201526064016109c3565b600681015460ff1615610c825760405162461bcd60e51b8152602060048201526011602482015270105b1c9958591e481c1c9bd8d95cdcd959607a1b60448201526064016109c3565b600601805460ff1916600117905550565b610cad83838360405180602001604052805f815250611326565b505050565b610cba611a47565b610cc382611aeb565b61099a8282611af3565b5f610cd6611baf565b505f80516020612b9483398151915290565b5f6108d48261180b565b610cfa61198a565b5f8111610d375760405162461bcd60e51b815260206004820152600b60248201526a04d757374206265203e20360ac1b60448201526064016109c3565b600180549082905560408051828152602081018490527f4de458dc03da0c08fe90cb2839f5929d4127eb0d2509e74b195cb4ce6ec8717991015b60405180910390a15050565b5f5f80516020612b748339815191526001600160a01b038316610db5576040516322718ad960e21b81525f60048201526024016109c3565b6001600160a01b039092165f908152600390920160205250604090205490565b610ddd61198a565b610de65f611bf8565b565b610df0611c68565b600754341015610e425760405162461bcd60e51b815260206004820152601d60248201527f42656c6f77206d696e696d756d20707572636861736520616d6f756e7400000060448201526064016109c3565b5f8311610e865760405162461bcd60e51b8152602060048201526012602482015271125b9d985b1a59081cdc1958da595cc8125160721b60448201526064016109c3565b5f8211610eca5760405162461bcd60e51b8152602060048201526012602482015271125b9d985b1a59081c1c9bda9958dd08125160721b60448201526064016109c3565b60048054906001905f610edd838561299a565b90915550506040805161010080820183523380835260208084018981528486018981523460608701908152608087018a81524260a089019081525f60c08a0181815260e08b018281528d83526002808a528d84209c518d546001600160a01b0319166001600160a01b03909116178d5597516001808e01919091559651978c019790975593516003808c0191909155925160048b0155905160058a0155915160069098018054945161ffff1990951698151561ff0019169890981793151590960292909217909555918252918252928320805492830181558352822001829055610fc56110dd565b6001600160a01b0316346040515f6040518083038185875af1925050503d805f811461100c576040519150601f19603f3d011682016040523d82523d5f602084013e611011565b606091505b50509050806110625760405162461bcd60e51b815260206004820152601860248201527f5472616e7366657220746f206f776e6572206661696c6564000000000000000060448201526064016109c3565b60408051868152602081018690523481830152606081018590524260808201529051339184917f911be2cd16382523d81842f46c40471e61d654b6e45667d36e530e620363dc359181900360a00190a35050610cad60017f9b779b17422d0df92223018b32b4d1fa46e071723d6817e2486d003becc55f0055565b7f9016d09d72d40fdae2fd8ceac6b6234c7706214fd39c1cd1e609a0528c199300546001600160a01b031690565b7f80bb2b638cc20bc4d0a60d66940f3ab4a00c1d7b313497ca82fb0b4ab007930180546060915f80516020612b74833981519152916108f99061294e565b6001600160a01b0381165f90815260208190526040812060015481548392918391611174919061299a565b90508042111561118b57506001945f945092505050565b5f61119642836129ad565b935093505050915091565b61099a338383611c96565b5f6111cb5f80516020612b94833981519152546001600160a01b031690565b905090565b6003602052815f5260405f2081815481106111e9575f80fd5b905f5260205f20015f91509150505481565b335f9081526020819052604090206001548154611218919061299a565b421161125e5760405162461bcd60e51b815260206004820152601560248201527410dbdbdb191bdddb881b9bdd08199a5b9a5cda1959605a1b60448201526064016109c3565b80545f03611271576001818101556112b7565b60015461127f9060026129c0565b815461128b919061299a565b42111561129d576001818101556112b7565b6001816001015f8282546112b1919061299a565b90915550505b428155600281018054600191905f906112d190849061299a565b909155505060018101546002820154604080519283526020830191909152429082015233907f28bd529ca9e7a7497984f7028798cb5ae1d62e5dc3a8f16b68d8a7196c5f1ba89060600160405180910390a250565b61133184848461099e565b610a263385858585611d45565b5f611347611e6b565b805490915060ff600160401b820416159067ffffffffffffffff165f8115801561136e5750825b90505f8267ffffffffffffffff16600114801561138a5750303b155b905081158015611398575080155b156113b65760405163f92ee8a960e01b815260040160405180910390fd5b845467ffffffffffffffff1916600117855583156113e057845460ff60401b1916600160401b1785555b61143b6040518060400160405280601a81526020017f4c756d61526f6f74732054726565204365727469666963617465000000000000815250604051806040016040528060048152602001634c52544360e01b815250611e93565b611443611ea5565b61144c86611ead565b5f60058190556004556201518060015566038d7ea4c6800060075583156114ad57845460ff60401b19168555604051600181527fc7f505b2f371ae2175ee4913f4499e1f2633a7b5936321eed1cdaeb6115181d29060200160405180910390a15b505050505050565b6001600160a01b0381165f9081526003602090815260409182902080548351818402810184019094528084526060939283018282801561151257602002820191905f5260205f20905b8154815260200190600101908083116114fe575b50505050509050919050565b60607f0542a41881ee128a365a727b282c86fa859579490b9bb45aab8503648c8e790061154a8361180b565b505f83815260208290526040812080546115639061294e565b80601f016020809104026020016040519081016040528092919081815260200182805461158f9061294e565b80156115da5780601f106115b1576101008083540402835291602001916115da565b820191905f5260205f20905b8154815290600101906020018083116115bd57829003601f168201915b505050505090505f6115f660408051602081019091525f815290565b905080515f0361160857509392505050565b81511561163b5780826040516020016116229291906129d7565b6040516020818303038152906040529350505050919050565b61164485611ebe565b95945050505050565b61165561198a565b5f61165e6110dd565b6001600160a01b0316476040515f6040518083038185875af1925050503d805f81146116a5576040519150601f19603f3d011682016040523d82523d5f602084013e6116aa565b606091505b50509050806116ed5760405162461bcd60e51b815260206004820152600f60248201526e15da5d1a191c985dc819985a5b1959608a1b60448201526064016109c3565b50565b6001600160a01b039182165f9081527f80bb2b638cc20bc4d0a60d66940f3ab4a00c1d7b313497ca82fb0b4ab00793056020908152604080832093909416825291909152205460ff1690565b61174461198a565b600780549082905560408051828152602081018490527fa54bc6f2713eaf07389c9368c5847b13d220c53bc741a200c646f7381c2235529101610d71565b61178a61198a565b6001600160a01b0381166117b357604051631e4fbdf760e01b81525f60048201526024016109c3565b6116ed81611bf8565b5f6001600160e01b031982166380ac58cd60e01b14806117ec57506001600160e01b03198216635b5e139f60e01b145b806108d457506301ffc9a760e01b6001600160e01b03198316146108d4565b5f8061181683611f2f565b90506001600160a01b0381166108d457604051637e27328960e01b8152600481018490526024016109c3565b5f9081527f80bb2b638cc20bc4d0a60d66940f3ab4a00c1d7b313497ca82fb0b4ab007930460205260409020546001600160a01b031690565b610cad8383836001611f68565b5f5f80516020612b74833981519152816118a185611f2f565b90506001600160a01b038416156118bd576118bd81858761207b565b6001600160a01b038116156118f9576118d85f865f80611f68565b6001600160a01b0381165f908152600383016020526040902080545f190190555b6001600160a01b03861615611929576001600160a01b0386165f9081526003830160205260409020805460010190555b5f85815260028301602052604080822080546001600160a01b0319166001600160a01b038a811691821790925591518893918516917fddf252ad1be2c89b69c2b068fc378daa952ba7f163c4a11628f55a4df523b3ef91a495945050505050565b336119936110dd565b6001600160a01b031614610de65760405163118cdaa760e01b81523360048201526024016109c3565b61099a828260405180602001604052805f8152506120df565b5f8281527f0542a41881ee128a365a727b282c86fa859579490b9bb45aab8503648c8e790060208190526040909120611a0e8382612a49565b506040518381527ff8e1a15aba9398e019f0b49df1a4fde98ee17ae345cb5f6b5e2c27f5033e8ce79060200160405180910390a1505050565b306001600160a01b037f0000000000000000000000000000000000000000000000000000000000000000161480611acd57507f00000000000000000000000000000000000000000000000000000000000000006001600160a01b0316611ac15f80516020612b94833981519152546001600160a01b031690565b6001600160a01b031614155b15610de65760405163703e46dd60e11b815260040160405180910390fd5b6116ed61198a565b816001600160a01b03166352d1902d6040518163ffffffff1660e01b8152600401602060405180830381865afa925050508015611b4d575060408051601f3d908101601f19168201909252611b4a91810190612b05565b60015b611b7557604051634c9c8ce360e01b81526001600160a01b03831660048201526024016109c3565b5f80516020612b948339815191528114611ba557604051632a87526960e21b8152600481018290526024016109c3565b610cad83836120f6565b306001600160a01b037f00000000000000000000000000000000000000000000000000000000000000001614610de65760405163703e46dd60e11b815260040160405180910390fd5b7f9016d09d72d40fdae2fd8ceac6b6234c7706214fd39c1cd1e609a0528c19930080546001600160a01b031981166001600160a01b03848116918217845560405192169182907f8be0079c531659141344cd1fd0a4f28419497f9722a3daafe3b4186f6b6457e0905f90a3505050565b611c7061214b565b60027f9b779b17422d0df92223018b32b4d1fa46e071723d6817e2486d003becc55f0055565b5f80516020612b748339815191526001600160a01b038316611cd657604051630b61174360e31b81526001600160a01b03841660048201526024016109c3565b6001600160a01b038481165f818152600584016020908152604080832094881680845294825291829020805460ff191687151590811790915591519182527f17307eab39ab6107e8899845ad3d59bd9653f200f220920489ca2b5937696c31910160405180910390a350505050565b6001600160a01b0383163b15611e6457604051630a85bd0160e11b81526001600160a01b0384169063150b7a0290611d87908890889087908790600401612b1c565b6020604051808303815f875af1925050508015611dc1575060408051601f3d908101601f19168201909252611dbe91810190612b58565b60015b611e28573d808015611dee576040519150601f19603f3d011682016040523d82523d5f602084013e611df3565b606091505b5080515f03611e2057604051633250574960e11b81526001600160a01b03851660048201526024016109c3565b805160208201fd5b6001600160e01b03198116630a85bd0160e11b146114ad57604051633250574960e11b81526001600160a01b03851660048201526024016109c3565b5050505050565b5f807ff0c57e16840df040f15088dc2f81fe391c3923bec73e23a9662efc9c229c6a006108d4565b611e9b61218d565b61099a82826121b2565b610de661218d565b611eb561218d565b6116ed816121e2565b6060611ec98261180b565b505f611edf60408051602081019091525f815290565b90505f815111611efd5760405180602001604052805f815250611f28565b80611f07846121ea565b604051602001611f189291906129d7565b6040516020818303038152906040525b9392505050565b5f9081527f80bb2b638cc20bc4d0a60d66940f3ab4a00c1d7b313497ca82fb0b4ab007930260205260409020546001600160a01b031690565b5f80516020612b748339815191528180611f8a57506001600160a01b03831615155b1561204b575f611f998561180b565b90506001600160a01b03841615801590611fc55750836001600160a01b0316816001600160a01b031614155b8015611fd85750611fd681856116f0565b155b156120015760405163a9fbf51f60e01b81526001600160a01b03851660048201526024016109c3565b82156120495784866001600160a01b0316826001600160a01b03167f8c5be1e5ebec7d5bd14f71427d1e84f3dd0314c0f7b2291e5b200ac8c7c3b92560405160405180910390a45b505b5f93845260040160205250506040902080546001600160a01b0319166001600160a01b0392909216919091179055565b61208683838361227a565b610cad576001600160a01b0383166120b457604051637e27328960e01b8152600481018290526024016109c3565b60405163177e802f60e01b81526001600160a01b0383166004820152602481018290526044016109c3565b6120e983836122df565b610cad335f858585611d45565b6120ff82612340565b6040516001600160a01b038316907fbc7cd75a20ee27fd9adebab32041f755214dbc6bffa90cc0225b39da2e5c2d3b905f90a280511561214357610cad82826123a3565b61099a612443565b7f9b779b17422d0df92223018b32b4d1fa46e071723d6817e2486d003becc55f0054600203610de657604051633ee5aeb560e01b815260040160405180910390fd5b612195612462565b610de657604051631afcd79f60e31b815260040160405180910390fd5b6121ba61218d565b5f80516020612b74833981519152806121d38482612a49565b5060018101610a268382612a49565b61178a61218d565b60605f6121f68361247b565b60010190505f8167ffffffffffffffff811115612215576122156126ab565b6040519080825280601f01601f19166020018201604052801561223f576020820181803683370190505b5090508181016020015b5f19016f181899199a1a9b1b9c1cb0b131b232b360811b600a86061a8153600a850494508461224957509392505050565b5f6001600160a01b038316158015906122d75750826001600160a01b0316846001600160a01b031614806122b357506122b384846116f0565b806122d75750826001600160a01b03166122cc83611842565b6001600160a01b0316145b949350505050565b6001600160a01b03821661230857604051633250574960e11b81525f60048201526024016109c3565b5f61231483835f611888565b90506001600160a01b03811615610cad576040516339e3563760e11b81525f60048201526024016109c3565b806001600160a01b03163b5f0361237557604051634c9c8ce360e01b81526001600160a01b03821660048201526024016109c3565b5f80516020612b9483398151915280546001600160a01b0319166001600160a01b0392909216919091179055565b60605f6123b08484612552565b90508080156123d157505f3d11806123d157505f846001600160a01b03163b115b156123e6576123de612565565b9150506108d4565b801561241057604051639996b31560e01b81526001600160a01b03851660048201526024016109c3565b3d156124235761241e61257e565b61243c565b60405163d6bda27560e01b815260040160405180910390fd5b5092915050565b3415610de65760405163b398979f60e01b815260040160405180910390fd5b5f61246b611e6b565b54600160401b900460ff16919050565b5f8072184f03e93ff9f4daa797ed6e38ed64bf6a1f0160401b83106124b95772184f03e93ff9f4daa797ed6e38ed64bf6a1f0160401b830492506040015b6d04ee2d6d415b85acef810000000083106124e5576d04ee2d6d415b85acef8100000000830492506020015b662386f26fc10000831061250357662386f26fc10000830492506010015b6305f5e100831061251b576305f5e100830492506008015b612710831061252f57612710830492506004015b60648310612541576064830492506002015b600a83106108d45760010192915050565b5f805f835160208501865af49392505050565b6040513d81523d5f602083013e3d602001810160405290565b6040513d5f823e3d81fd5b6001600160e01b0319811681146116ed575f80fd5b5f602082840312156125ae575f80fd5b8135611f2881612589565b5f5b838110156125d35781810151838201526020016125bb565b50505f910152565b5f81518084526125f28160208601602086016125b9565b601f01601f19169290920160200192915050565b602081525f611f2860208301846125db565b5f60208284031215612628575f80fd5b5035919050565b80356001600160a01b0381168114612645575f80fd5b919050565b5f806040838503121561265b575f80fd5b6126648361262f565b946020939093013593505050565b5f805f60608486031215612684575f80fd5b61268d8461262f565b925061269b6020850161262f565b9150604084013590509250925092565b634e487b7160e01b5f52604160045260245ffd5b5f82601f8301126126ce575f80fd5b813567ffffffffffffffff808211156126e9576126e96126ab565b604051601f8301601f19908116603f01168101908282118183101715612711576127116126ab565b81604052838152866020858801011115612729575f80fd5b836020870160208301375f602085830101528094505050505092915050565b5f805f6060848603121561275a575f80fd5b83359250602084013567ffffffffffffffff80821115612778575f80fd5b612784878388016126bf565b93506040860135915080821115612799575f80fd5b506127a6868287016126bf565b9150509250925092565b5f602082840312156127c0575f80fd5b611f288261262f565b5f80604083850312156127da575f80fd5b6127e38361262f565b9150602083013567ffffffffffffffff8111156127fe575f80fd5b61280a858286016126bf565b9150509250929050565b5f805f60608486031215612826575f80fd5b505081359360208301359350604090920135919050565b5f806040838503121561284e575f80fd5b6128578361262f565b91506020830135801515811461286b575f80fd5b809150509250929050565b5f805f8060808587031215612889575f80fd5b6128928561262f565b93506128a06020860161262f565b925060408501359150606085013567ffffffffffffffff8111156128c2575f80fd5b6128ce878288016126bf565b91505092959194509250565b602080825282518282018190525f9190848201906040850190845b81811015612911578351835292840192918401916001016128f5565b50909695505050505050565b5f806040838503121561292e575f80fd5b6129378361262f565b91506129456020840161262f565b90509250929050565b600181811c9082168061296257607f821691505b60208210810361298057634e487b7160e01b5f52602260045260245ffd5b50919050565b634e487b7160e01b5f52601160045260245ffd5b808201808211156108d4576108d4612986565b818103818111156108d4576108d4612986565b80820281158282048414176108d4576108d4612986565b5f83516129e88184602088016125b9565b8351908301906129fc8183602088016125b9565b01949350505050565b601f821115610cad57805f5260205f20601f840160051c81016020851015612a2a5750805b601f840160051c820191505b81811015611e64575f8155600101612a36565b815167ffffffffffffffff811115612a6357612a636126ab565b612a7781612a71845461294e565b84612a05565b602080601f831160018114612aaa575f8415612a935750858301515b5f19600386901b1c1916600185901b1785556114ad565b5f85815260208120601f198616915b82811015612ad857888601518255948401946001909101908401612ab9565b5085821015612af557878501515f19600388901b60f8161c191681555b5050505050600190811b01905550565b5f60208284031215612b15575f80fd5b5051919050565b6001600160a01b03858116825284166020820152604081018390526080606082018190525f90612b4e908301846125db565b9695505050505050565b5f60208284031215612b68575f80fd5b8151611f288161258956fe80bb2b638cc20bc4d0a60d66940f3ab4a00c1d7b313497ca82fb0b4ab0079300360894a13ba1a3210667c828492db98dca3e2076cc3735a920a3ca505d382bbca2646970667358221220706afc2aa5f61642ee2331f235ba2f90d49aefd00197fc4f28e666d95cf5d35264736f6c63430008180033","linkReferences":{}},"methodIdentifiers":{"UPGRADE_INTERFACE_VERSION()":"ad3cb1cc","VERSION()":"ffa1ad74","approve(address,uint256)":"095ea7b3","balanceOf(address)":"70a08231","canWaterNow(address)":"97a64469","cooldownTime()":"b319c6b7","emergencyWithdraw()":"db2e21bc","getApproved(uint256)":"081812fc","getImplementation()":"aaf10f42","getPurchase(uint256)":"3742a9f7","getUserPlant(address)":"ae8af909","getUserPurchaseCount(address)":"91b96b63","getUserPurchases(address)":"c6e5d8f6","initialize(address)":"c4d66de8","isApprovedForAll(address,address)":"e985e9c5","markPurchaseProcessed(uint256)":"31545e6c","minPurchaseAmount()":"b47dbf22","mintCertificate(uint256,string,string)":"27994aa4","name()":"06fdde03","owner()":"8da5cb5b","ownerOf(uint256)":"6352211e","proxiableUUID()":"52d1902d","purchaseTree(uint256,uint256,uint256)":"832e34a7","purchases(uint256)":"8392fe31","renounceOwnership()":"715018a6","safeTransferFrom(address,address,uint256)":"42842e0e","safeTransferFrom(address,address,uint256,bytes)":"b88d4fde","setApprovalForAll(address,bool)":"a22cb465","setCooldownTime(uint256)":"6ff73201","setMinPurchaseAmount(uint256)":"e9d3fb78","supportsInterface(bytes4)":"01ffc9a7","symbol()":"95d89b41","tokenIdToPurchaseId(uint256)":"c40585f9","tokenURI(uint256)":"c87b56dd","totalPurchases()":"5962a941","totalSupply()":"18160ddd","transferFrom(address,address,uint256)":"23b872dd","transferOwnership(address)":"f2fde38b","upgradeToAndCall(address,bytes)":"4f1ef286","userPlants(address)":"3910ba47","userPurchaseIds(address,uint256)":"b077a9a7","waterPlant()":"b2eb53a1"},"id":32}