{"abi":[{"type":"constructor","inputs":[],"stateMutability":"nonpayable"},{"type":"function","name":"approve","inputs":[{"name":"to","type":"address","internalType":"address"},{"name":"tokenId","type":"uint256","internalType":"uint256"}],"outputs":[],"stateMutability":"nonpayable"},{"type":"function","name":"balanceOf","inputs":[{"name":"owner","type":"address","internalType":"address"}],"outputs":[{"name":"","type":"uint256","internalType":"uint256"}],"stateMutability":"view"},{"type":"function","name":"canWaterNow","inputs":[{"name":"user","type":"address","internalType":"address"}],"outputs":[{"name":"canWater","type":"bool","internalType":"bool"},{"name":"timeRemaining","type":"uint256","internalType":"uint256"}],"stateMutability":"view"},{"type":"function","name":"cooldownTime","inputs":[],"outputs":[{"name":"","type":"uint256","internalType":"uint256"}],"stateMutability":"view"},{"type":"function","name":"emergencyWithdraw","inputs":[],"outputs":[],"stateMutability":"nonpayable"},{"type":"function","name":"getApproved","inputs":[{"name":"tokenId","type":"uint256","internalType":"uint256"}],"outputs":[{"name":"","type":"address","internalType":"address"}],"stateMutability":"view"},{"type":"function","name":"getPurchase","inputs":[{"name":"purchaseId","type":"uint256","internalType":"uint256"}],"outputs":[{"name":"buyer","type":"address","internalType":"address"},{"name":"speciesId","type":"uint256","internalType":"uint256"},{"name":"projectId","type":"uint256","internalType":"uint256"},{"name":"amountPaid","type":"uint256","internalType":"uint256"},{"name":"priceEUR","type":"uint256","internalType":"uint256"},{"name":"timestamp","type":"uint256","internalType":"uint256"},{"name":"processed","type":"bool","internalType":"bool"},{"name":"nftMinted","type":"bool","internalType":"bool"}],"stateMutability":"view"},{"type":"function","name":"getUserPlant","inputs":[{"name":"user","type":"address","internalType":"address"}],"outputs":[{"name":"lastWaterTime","type":"uint256","internalType":"uint256"},{"name":"waterStreak","type":"uint256","internalType":"uint256"},{"name":"totalWaterCount","type":"uint256","internalType":"uint256"}],"stateMutability":"view"},{"type":"function","name":"getUserPurchaseCount","inputs":[{"name":"user","type":"address","internalType":"address"}],"outputs":[{"name":"","type":"uint256","internalType":"uint256"}],"stateMutability":"view"},{"type":"function","name":"getUserPurchases","inputs":[{"name":"user","type":"address","internalType":"address"}],"outputs":[{"name":"","type":"uint256[]","internalType":"uint256[]"}],"stateMutability":"view"},{"type":"function","name":"isApprovedForAll","inputs":[{"name":"owner","type":"address","internalType":"address"},{"name":"operator","type":"address","internalType":"address"}],"outputs":[{"name":"","type":"bool","internalType":"bool"}],"stateMutability":"view"},{"type":"function","name":"markPurchaseProcessed","inputs":[{"name":"purchaseId","type":"uint256","internalType":"uint256"}],"outputs":[],"stateMutability":"nonpayable"},{"type":"function","name":"minPurchaseAmount","inputs":[],"outputs":[{"name":"","type":"uint256","internalType":"uint256"}],"stateMutability":"view"},{"type":"function","name":"mintCertificate","inputs":[{"name":"purchaseId","type":"uint256","internalType":"uint256"},{"name":"tokenURI","type":"string","internalType":"string"},{"name":"treeNationId","type":"string","internalType":"string"}],"outputs":[],"stateMutability":"nonpayable"},{"type":"function","name":"name","inputs":[],"outputs":[{"name":"","type":"string","internalType":"string"}],"stateMutability":"view"},{"type":"function","name":"owner","inputs":[],"outputs":[{"name":"","type":"address","internalType":"address"}],"stateMutability":"view"},{"type":"function","name":"ownerOf","inputs":[{"name":"tokenId","type":"uint256","internalType":"uint256"}],"outputs":[{"name":"","type":"address","internalType":"address"}],"stateMutability":"view"},{"type":"function","name":"purchaseTree","inputs":[{"name":"speciesId","type":"uint256","internalType":"uint256"},{"name":"projectId","type":"uint256","internalType":"uint256"},{"name":"priceEUR","type":"uint256","internalType":"uint256"}],"outputs":[],"stateMutability":"payable"},{"type":"function","name":"purchases","inputs":[{"name":"","type":"uint256","internalType":"uint256"}],"outputs":[{"name":"buyer","type":"address","internalType":"address"},{"name":"speciesId","type":"uint256","internalType":"uint256"},{"name":"projectId","type":"uint256","internalType":"uint256"},{"name":"amountPaid","type":"uint256","internalType":"uint256"},{"name":"priceEUR","type":"uint256","internalType":"uint256"},{"name":"timestamp","type":"uint256","internalType":"uint256"},{"name":"processed","type":"bool","internalType":"bool"},{"name":"nftMinted","type":"bool","internalType":"bool"}],"stateMutability":"view"},{"type":"function","name":"renounceOwnership","inputs":[],"outputs":[],"stateMutability":"nonpayable"},{"type":"function","name":"safeTransferFrom","inputs":[{"name":"from","type":"address","internalType":"address"},{"name":"to","type":"address","internalType":"address"},{"name":"tokenId","type":"uint256","internalType":"uint256"}],"outputs":[],"stateMutability":"nonpayable"},{"type":"function","name":"safeTransferFrom","inputs":[{"name":"from","type":"address","internalType":"address"},{"name":"to","type":"address","internalType":"address"},{"name":"tokenId","type":"uint256","internalType":"uint256"},{"name":"data","type":"bytes","internalType":"bytes"}],"outputs":[],"stateMutability":"nonpayable"},{"type":"function","name":"setApprovalForAll","inputs":[{"name":"operator","type":"address","internalType":"address"},{"name":"approved","type":"bool","internalType":"bool"}],"outputs":[],"stateMutability":"nonpayable"},{"type":"function","name":"setCooldownTime","inputs":[{"name":"_seconds","type":"uint256","internalType":"uint256"}],"outputs":[],"stateMutability":"nonpayable"},{"type":"function","name":"setMinPurchaseAmount","inputs":[{"name":"_amount","type":"uint256","internalType":"uint256"}],"outputs":[],"stateMutability":"nonpayable"},{"type":"function","name":"supportsInterface","inputs":[{"name":"interfaceId","type":"bytes4","internalType":"bytes4"}],"outputs":[{"name":"","type":"bool","internalType":"bool"}],"stateMutability":"view"},{"type":"function","name":"symbol","inputs":[],"outputs":[{"name":"","type":"string","internalType":"string"}],"stateMutability":"view"},{"type":"function","name":"tokenIdToPurchaseId","inputs":[{"name":"","type":"uint256","internalType":"uint256"}],"outputs":[{"name":"","type":"uint256","internalType":"uint256"}],"stateMutability":"view"},{"type":"function","name":"tokenURI","inputs":[{"name":"tokenId","type":"uint256","internalType":"uint256"}],"outputs":[{"name":"","type":"string","internalType":"string"}],"stateMutability":"view"},{"type":"function","name":"totalPurchases","inputs":[],"outputs":[{"name":"","type":"uint256","internalType":"uint256"}],"stateMutability":"view"},{"type":"function","name":"totalSupply","inputs":[],"outputs":[{"name":"","type":"uint256","internalType":"uint256"}],"stateMutability":"view"},{"type":"function","name":"transferFrom","inputs":[{"name":"from","type":"address","internalType":"address"},{"name":"to","type":"address","internalType":"address"},{"name":"tokenId","type":"uint256","internalType":"uint256"}],"outputs":[],"stateMutability":"nonpayable"},{"type":"function","name":"transferOwnership","inputs":[{"name":"newOwner","type":"address","internalType":"address"}],"outputs":[],"stateMutability":"nonpayable"},{"type":"function","name":"userPlants","inputs":[{"name":"","type":"address","internalType":"address"}],"outputs":[{"name":"lastWaterTime","type":"uint256","internalType":"uint256"},{"name":"waterStreak","type":"uint256","internalType":"uint256"},{"name":"totalWaterCount","type":"uint256","internalType":"uint256"}],"stateMutability":"view"},{"type":"function","name":"userPurchaseIds","inputs":[{"name":"","type":"address","internalType":"address"},{"name":"","type":"uint256","internalType":"uint256"}],"outputs":[{"name":"","type":"uint256","internalType":"uint256"}],"stateMutability":"view"},{"type":"function","name":"waterPlant","inputs":[],"outputs":[],"stateMutability":"nonpayable"},{"type":"event","name":"Approval","inputs":[{"name":"owner","type":"address","indexed":true,"internalType":"address"},{"name":"approved","type":"address","indexed":true,"internalType":"address"},{"name":"tokenId","type":"uint256","indexed":true,"internalType":"uint256"}],"anonymous":false},{"type":"event","name":"ApprovalForAll","inputs":[{"name":"owner","type":"address","indexed":true,"internalType":"address"},{"name":"operator","type":"address","indexed":true,"internalType":"address"},{"name":"approved","type":"bool","indexed":false,"internalType":"bool"}],"anonymous":false},{"type":"event","name":"BatchMetadataUpdate","inputs":[{"name":"_fromTokenId","type":"uint256","indexed":false,"internalType":"uint256"},{"name":"_toTokenId","type":"uint256","indexed":false,"internalType":"uint256"}],"anonymous":false},{"type":"event","name":"CertificateMinted","inputs":[{"name":"tokenId","type":"uint256","indexed":true,"internalType":"uint256"},{"name":"owner","type":"address","indexed":true,"internalType":"address"},{"name":"purchaseId","type":"uint256","indexed":true,"internalType":"uint256"},{"name":"treeNationId","type":"string","indexed":false,"internalType":"string"}],"anonymous":false},{"type":"event","name":"CooldownTimeUpdated","inputs":[{"name":"oldCooldown","type":"uint256","indexed":false,"internalType":"uint256"},{"name":"newCooldown","type":"uint256","indexed":false,"internalType":"uint256"}],"anonymous":false},{"type":"event","name":"MetadataUpdate","inputs":[{"name":"_tokenId","type":"uint256","indexed":false,"internalType":"uint256"}],"anonymous":false},{"type":"event","name":"MinPurchaseAmountUpdated","inputs":[{"name":"oldMin","type":"uint256","indexed":false,"internalType":"uint256"},{"name":"newMin","type":"uint256","indexed":false,"internalType":"uint256"}],"anonymous":false},{"type":"event","name":"OwnershipTransferred","inputs":[{"name":"previousOwner","type":"address","indexed":true,"internalType":"address"},{"name":"newOwner","type":"address","indexed":true,"internalType":"address"}],"anonymous":false},{"type":"event","name":"PlantWatered","inputs":[{"name":"user","type":"address","indexed":true,"internalType":"address"},{"name":"newStreak","type":"uint256","indexed":false,"internalType":"uint256"},{"name":"totalWaterCount","type":"uint256","indexed":false,"internalType":"uint256"},{"name":"timestamp","type":"uint256","indexed":false,"internalType":"uint256"}],"anonymous":false},{"type":"event","name":"Transfer","inputs":[{"name":"from","type":"address","indexed":true,"internalType":"address"},{"name":"to","type":"address","indexed":true,"internalType":"address"},{"name":"tokenId","type":"uint256","indexed":true,"internalType":"uint256"}],"anonymous":false},{"type":"event","name":"TreePurchased","inputs":[{"name":"purchaseId","type":"uint256","indexed":true,"internalType":"uint256"},{"name":"buyer","type":"address","indexed":true,"internalType":"address"},{"name":"speciesId","type":"uint256","indexed":false,"internalType":"uint256"},{"name":"projectId","type":"uint256","indexed":false,"internalType":"uint256"},{"name":"amountPaid","type":"uint256","indexed":false,"internalType":"uint256"},{"name":"priceEUR","type":"uint256","indexed":false,"internalType":"uint256"},{"name":"timestamp","type":"uint256","indexed":false,"internalType":"uint256"}],"anonymous":false},{"type":"error","name":"ERC721IncorrectOwner","inputs":[{"name":"sender","type":"address","internalType":"address"},{"name":"tokenId","type":"uint256","internalType":"uint256"},{"name":"owner","type":"address","internalType":"address"}]},{"type":"error","name":"ERC721InsufficientApproval","inputs":[{"name":"operator","type":"address","internalType":"address"},{"name":"tokenId","type":"uint256","internalType":"uint256"}]},{"type":"error","name":"ERC721InvalidApprover","inputs":[{"name":"approver","type":"address","internalType":"address"}]},{"type":"error","name":"ERC721InvalidOperator","inputs":[{"name":"operator","type":"address","internalType":"address"}]},{"type":"error","name":"ERC721InvalidOwner","inputs":[{"name":"owner","type":"address","internalType":"address"}]},{"type":"error","name":"ERC721InvalidReceiver","inputs":[{"name":"receiver","type":"address","internalType":"address"}]},{"type":"error","name":"ERC721InvalidSender","inputs":[{"name":"sender","type":"address","internalType":"address"}]},{"type":"error","name":"ERC721NonexistentToken","inputs":[{"name":"tokenId","type":"uint256","internalType":"uint256"}]},{"type":"error","name":"OwnableInvalidOwner","inputs":[{"name":"owner","type":"address","internalType":"address"}]},{"type":"error","name":"OwnableUnauthorizedAccount","inputs":[{"name":"account","type":"address","internalType":"address"}]},{"type":"error","name":"ReentrancyGuardReentrantCall","inputs":[]}],"bytecode":{"object":"0x60806040526201518060095566038d7ea4c68000600f5534801562000022575f80fd5b50336040518060400160405280601a81526020017f4c756d61526f6f74732054726565204365727469666963617465000000000000815250604051806040016040528060048152602001634c52544360e01b815250815f9081620000879190620001f5565b506001620000968282620001f5565b5050506001600160a01b038116620000c757604051631e4fbdf760e01b81525f600482015260240160405180910390fd5b620000d28162000106565b5060017f9b779b17422d0df92223018b32b4d1fa46e071723d6817e2486d003becc55f00555f600d819055600c55620002c1565b600780546001600160a01b038381166001600160a01b0319831681179093556040519116919082907f8be0079c531659141344cd1fd0a4f28419497f9722a3daafe3b4186f6b6457e0905f90a35050565b634e487b7160e01b5f52604160045260245ffd5b600181811c908216806200018057607f821691505b6020821081036200019f57634e487b7160e01b5f52602260045260245ffd5b50919050565b601f821115620001f057805f5260205f20601f840160051c81016020851015620001cc5750805b601f840160051c820191505b81811015620001ed575f8155600101620001d8565b50505b505050565b81516001600160401b0381111562000211576200021162000157565b62000229816200022284546200016b565b84620001a5565b602080601f8311600181146200025f575f8415620002475750858301515b5f19600386901b1c1916600185901b178555620002b9565b5f85815260208120601f198616915b828110156200028f578886015182559484019460019091019084016200026e565b5085821015620002ad57878501515f19600388901b60f8161c191681555b505060018460011b0185555b505050505050565b6122d780620002cf5f395ff3fe608060405260043610610207575f3560e01c80638da5cb5b11610113578063b47dbf221161009d578063c87b56dd1161006d578063c87b56dd1461072f578063db2e21bc1461074e578063e985e9c514610762578063e9d3fb7814610781578063f2fde38b146107a0575f80fd5b8063b47dbf22146106a4578063b88d4fde146106b9578063c40585f9146106d8578063c6e5d8f614610703575f80fd5b8063a22cb465116100e3578063a22cb465146105fc578063ae8af9091461061b578063b077a9a71461065c578063b2eb53a11461067b578063b319c6b71461068f575f80fd5b80638da5cb5b1461056157806391b96b631461057e57806395d89b41146105b257806397a64469146105c6575f80fd5b80633910ba47116101945780636ff73201116101645780636ff732011461049057806370a08231146104af578063715018a6146104ce578063832e34a7146104e25780638392fe31146104f5575f80fd5b80633910ba47146103e957806342842e0e1461043e5780635962a9411461045d5780636352211e14610471575f80fd5b806318160ddd116101da57806318160ddd146102b857806323b872dd146102d657806327994aa4146102f557806331545e6c146103145780633742a9f714610333575f80fd5b806301ffc9a71461020b57806306fdde031461023f578063081812fc14610260578063095ea7b314610297575b5f80fd5b348015610216575f80fd5b5061022a610225366004611d13565b6107bf565b60405190151581526020015b60405180910390f35b34801561024a575f80fd5b506102536107e9565b6040516102369190611d7b565b34801561026b575f80fd5b5061027f61027a366004611d8d565b610878565b6040516001600160a01b039091168152602001610236565b3480156102a2575f80fd5b506102b66102b1366004611dbf565b61089f565b005b3480156102c3575f80fd5b50600d545b604051908152602001610236565b3480156102e1575f80fd5b506102b66102f0366004611de7565b6108ae565b348015610300575f80fd5b506102b661030f366004611ec5565b61093c565b34801561031f575f80fd5b506102b661032e366004611d8d565b610ae8565b34801561033e575f80fd5b506103a061034d366004611d8d565b5f908152600a602052604090208054600182015460028301546003840154600485015460058601546006909601546001600160a01b039095169693959294919390929160ff808216926101009092041690565b604080516001600160a01b0390991689526020890197909752958701949094526060860192909252608085015260a0840152151560c0830152151560e082015261010001610236565b3480156103f4575f80fd5b50610423610403366004611f2d565b60086020525f908152604090208054600182015460029092015490919083565b60408051938452602084019290925290820152606001610236565b348015610449575f80fd5b506102b6610458366004611de7565b610ba3565b348015610468575f80fd5b50600c546102c8565b34801561047c575f80fd5b5061027f61048b366004611d8d565b610bc2565b34801561049b575f80fd5b506102b66104aa366004611d8d565b610bcc565b3480156104ba575f80fd5b506102c86104c9366004611f2d565b610c57565b3480156104d9575f80fd5b506102b6610c9c565b6102b66104f0366004611f46565b610caf565b348015610500575f80fd5b506103a061050f366004611d8d565b600a6020525f908152604090208054600182015460028301546003840154600485015460058601546006909601546001600160a01b039095169593949293919290919060ff8082169161010090041688565b34801561056c575f80fd5b506007546001600160a01b031661027f565b348015610589575f80fd5b506102c8610598366004611f2d565b6001600160a01b03165f908152600b602052604090205490565b3480156105bd575f80fd5b50610253610f9c565b3480156105d1575f80fd5b506105e56105e0366004611f2d565b610fab565b604080519215158352602083019190915201610236565b348015610607575f80fd5b506102b6610616366004611f6f565b611003565b348015610626575f80fd5b50610423610635366004611f2d565b6001600160a01b03165f908152600860205260409020805460018201546002909201549092565b348015610667575f80fd5b506102c8610676366004611dbf565b61100e565b348015610686575f80fd5b506102b6611039565b34801561069a575f80fd5b506102c860095481565b3480156106af575f80fd5b506102c8600f5481565b3480156106c4575f80fd5b506102b66106d3366004611fa8565b611164565b3480156106e3575f80fd5b506102c86106f2366004611d8d565b600e6020525f908152604090205481565b34801561070e575f80fd5b5061072261071d366004611f2d565b61117c565b604051610236919061201f565b34801561073a575f80fd5b50610253610749366004611d8d565b6111e5565b348015610759575f80fd5b506102b66112f0565b34801561076d575f80fd5b5061022a61077c366004612062565b61139d565b34801561078c575f80fd5b506102b661079b366004611d8d565b6113ca565b3480156107ab575f80fd5b506102b66107ba366004611f2d565b611410565b5f6001600160e01b03198216632483248360e11b14806107e357506107e38261144a565b92915050565b60605f80546107f790612093565b80601f016020809104026020016040519081016040528092919081815260200182805461082390612093565b801561086e5780601f106108455761010080835404028352916020019161086e565b820191905f5260205f20905b81548152906001019060200180831161085157829003601f168201915b5050505050905090565b5f61088282611499565b505f828152600460205260409020546001600160a01b03166107e3565b6108aa8282336114d1565b5050565b6001600160a01b0382166108dc57604051633250574960e11b81525f60048201526024015b60405180910390fd5b5f6108e88383336114de565b9050836001600160a01b0316816001600160a01b031614610936576040516364283d7b60e01b81526001600160a01b03808616600483015260248201849052821660448201526064016108d3565b50505050565b6109446115d0565b5f838152600a6020526040902080546001600160a01b031661099d5760405162461bcd60e51b8152602060048201526012602482015271141d5c98da185cd9481b9bdd08199bdd5b9960721b60448201526064016108d3565b600681015460ff166109f15760405162461bcd60e51b815260206004820152601a60248201527f5075726368617365206e6f74207965742070726f63657373656400000000000060448201526064016108d3565b6006810154610100900460ff1615610a405760405162461bcd60e51b815260206004820152601260248201527113919508185b1c9958591e481b5a5b9d195960721b60448201526064016108d3565b600d8054906001905f610a5383856120df565b90915550508154610a6d906001600160a01b0316826115fd565b610a778185611616565b5f818152600e60205260409081902086905560068301805461ff0019166101001790558254905186916001600160a01b03169083907fc634e044312eb7dc5719a0882979ef83fff07a9c7c0be5ed5d068b63a246729e90610ad9908890611d7b565b60405180910390a45050505050565b610af06115d0565b5f818152600a6020526040902080546001600160a01b0316610b495760405162461bcd60e51b8152602060048201526012602482015271141d5c98da185cd9481b9bdd08199bdd5b9960721b60448201526064016108d3565b600681015460ff1615610b925760405162461bcd60e51b8152602060048201526011602482015270105b1c9958591e481c1c9bd8d95cdcd959607a1b60448201526064016108d3565b600601805460ff1916600117905550565b610bbd83838360405180602001604052805f815250611164565b505050565b5f6107e382611499565b610bd46115d0565b5f8111610c115760405162461bcd60e51b815260206004820152600b60248201526a04d757374206265203e20360ac1b60448201526064016108d3565b600980549082905560408051828152602081018490527f4de458dc03da0c08fe90cb2839f5929d4127eb0d2509e74b195cb4ce6ec8717991015b60405180910390a15050565b5f6001600160a01b038216610c81576040516322718ad960e21b81525f60048201526024016108d3565b506001600160a01b03165f9081526003602052604090205490565b610ca46115d0565b610cad5f61165e565b565b610cb76116af565b600f54341015610d095760405162461bcd60e51b815260206004820152601d60248201527f42656c6f77206d696e696d756d20707572636861736520616d6f756e7400000060448201526064016108d3565b5f8311610d4d5760405162461bcd60e51b8152602060048201526012602482015271125b9d985b1a59081cdc1958da595cc8125160721b60448201526064016108d3565b5f8211610d915760405162461bcd60e51b8152602060048201526012602482015271125b9d985b1a59081c1c9bda9958dd08125160721b60448201526064016108d3565b600c8054906001905f610da483856120df565b90915550506040805161010080820183523380835260208084018981528486018981523460608701908152608087018a81524260a089019081525f60c08a0181815260e08b018281528d8352600a89528c83209b518c546001600160a01b0319166001600160a01b03918216178d5597516001808e0191909155965160028d0155945160038c0155925160048b0155905160058a0155905160069098018054925161ffff1990931698151561ff0019169890981791151590960217909555918352600b81529382208054938401815582529281209091018390556007549091166001600160a01b0316346040515f6040518083038185875af1925050503d805f8114610ecb576040519150601f19603f3d011682016040523d82523d5f602084013e610ed0565b606091505b5050905080610f215760405162461bcd60e51b815260206004820152601860248201527f5472616e7366657220746f206f776e6572206661696c6564000000000000000060448201526064016108d3565b60408051868152602081018690523481830152606081018590524260808201529051339184917f911be2cd16382523d81842f46c40471e61d654b6e45667d36e530e620363dc359181900360a00190a35050610bbd60017f9b779b17422d0df92223018b32b4d1fa46e071723d6817e2486d003becc55f0055565b6060600180546107f790612093565b6001600160a01b0381165f90815260086020526040812060095481548392918391610fd691906120df565b905080421115610fed57506001945f945092505050565b5f610ff842836120f2565b935093505050915091565b6108aa3383836116dd565b600b602052815f5260405f208181548110611027575f80fd5b905f5260205f20015f91509150505481565b335f908152600860205260409020600954815461105691906120df565b421161109c5760405162461bcd60e51b815260206004820152601560248201527410dbdbdb191bdddb881b9bdd08199a5b9a5cda1959605a1b60448201526064016108d3565b80545f036110af576001818101556110f5565b6009546110bd906002612105565b81546110c991906120df565b4211156110db576001818101556110f5565b6001816001015f8282546110ef91906120df565b90915550505b428155600281018054600191905f9061110f9084906120df565b909155505060018101546002820154604080519283526020830191909152429082015233907f28bd529ca9e7a7497984f7028798cb5ae1d62e5dc3a8f16b68d8a7196c5f1ba89060600160405180910390a250565b61116f8484846108ae565b610936338585858561177b565b6001600160a01b0381165f908152600b60209081526040918290208054835181840281018401909452808452606093928301828280156111d957602002820191905f5260205f20905b8154815260200190600101908083116111c5575b50505050509050919050565b60606111f082611499565b505f828152600660205260408120805461120990612093565b80601f016020809104026020016040519081016040528092919081815260200182805461123590612093565b80156112805780601f1061125757610100808354040283529160200191611280565b820191905f5260205f20905b81548152906001019060200180831161126357829003601f168201915b505050505090505f61129c60408051602081019091525f815290565b905080515f036112ad575092915050565b8151156112df5780826040516020016112c792919061211c565b60405160208183030381529060405292505050919050565b6112e8846118a3565b949350505050565b6112f86115d0565b5f61130b6007546001600160a01b031690565b6001600160a01b0316476040515f6040518083038185875af1925050503d805f8114611352576040519150601f19603f3d011682016040523d82523d5f602084013e611357565b606091505b505090508061139a5760405162461bcd60e51b815260206004820152600f60248201526e15da5d1a191c985dc819985a5b1959608a1b60448201526064016108d3565b50565b6001600160a01b039182165f90815260056020908152604080832093909416825291909152205460ff1690565b6113d26115d0565b600f80549082905560408051828152602081018490527fa54bc6f2713eaf07389c9368c5847b13d220c53bc741a200c646f7381c2235529101610c4b565b6114186115d0565b6001600160a01b03811661144157604051631e4fbdf760e01b81525f60048201526024016108d3565b61139a8161165e565b5f6001600160e01b031982166380ac58cd60e01b148061147a57506001600160e01b03198216635b5e139f60e01b145b806107e357506301ffc9a760e01b6001600160e01b03198316146107e3565b5f818152600260205260408120546001600160a01b0316806107e357604051637e27328960e01b8152600481018490526024016108d3565b610bbd8383836001611914565b5f828152600260205260408120546001600160a01b039081169083161561150a5761150a818486611a18565b6001600160a01b03811615611544576115255f855f80611914565b6001600160a01b0381165f90815260036020526040902080545f190190555b6001600160a01b03851615611572576001600160a01b0385165f908152600360205260409020805460010190555b5f8481526002602052604080822080546001600160a01b0319166001600160a01b0389811691821790925591518793918516917fddf252ad1be2c89b69c2b068fc378daa952ba7f163c4a11628f55a4df523b3ef91a4949350505050565b6007546001600160a01b03163314610cad5760405163118cdaa760e01b81523360048201526024016108d3565b6108aa828260405180602001604052805f815250611a7c565b5f82815260066020526040902061162d828261218e565b506040518281527ff8e1a15aba9398e019f0b49df1a4fde98ee17ae345cb5f6b5e2c27f5033e8ce790602001610c4b565b600780546001600160a01b038381166001600160a01b0319831681179093556040519116919082907f8be0079c531659141344cd1fd0a4f28419497f9722a3daafe3b4186f6b6457e0905f90a35050565b6116b7611a93565b60027f9b779b17422d0df92223018b32b4d1fa46e071723d6817e2486d003becc55f0055565b6001600160a01b03821661170f57604051630b61174360e31b81526001600160a01b03831660048201526024016108d3565b6001600160a01b038381165f81815260056020908152604080832094871680845294825291829020805460ff191686151590811790915591519182527f17307eab39ab6107e8899845ad3d59bd9653f200f220920489ca2b5937696c31910160405180910390a3505050565b6001600160a01b0383163b1561189c57604051630a85bd0160e11b81526001600160a01b0384169063150b7a02906117bd90889088908790879060040161224a565b6020604051808303815f875af19250505080156117f7575060408051601f3d908101601f191682019092526117f491810190612286565b60015b61185e573d808015611824576040519150601f19603f3d011682016040523d82523d5f602084013e611829565b606091505b5080515f0361185657604051633250574960e11b81526001600160a01b03851660048201526024016108d3565b805160208201fd5b6001600160e01b03198116630a85bd0160e11b1461189a57604051633250574960e11b81526001600160a01b03851660048201526024016108d3565b505b5050505050565b60606118ae82611499565b505f6118c460408051602081019091525f815290565b90505f8151116118e25760405180602001604052805f81525061190d565b806118ec84611ad5565b6040516020016118fd92919061211c565b6040516020818303038152906040525b9392505050565b808061192857506001600160a01b03821615155b156119e9575f61193784611499565b90506001600160a01b038316158015906119635750826001600160a01b0316816001600160a01b031614155b80156119765750611974818461139d565b155b1561199f5760405163a9fbf51f60e01b81526001600160a01b03841660048201526024016108d3565b81156119e75783856001600160a01b0316826001600160a01b03167f8c5be1e5ebec7d5bd14f71427d1e84f3dd0314c0f7b2291e5b200ac8c7c3b92560405160405180910390a45b505b50505f90815260046020526040902080546001600160a01b0319166001600160a01b0392909216919091179055565b611a23838383611b65565b610bbd576001600160a01b038316611a5157604051637e27328960e01b8152600481018290526024016108d3565b60405163177e802f60e01b81526001600160a01b0383166004820152602481018290526044016108d3565b611a868383611bc6565b610bbd335f85858561177b565b7f9b779b17422d0df92223018b32b4d1fa46e071723d6817e2486d003becc55f0054600203610cad57604051633ee5aeb560e01b815260040160405180910390fd5b60605f611ae183611c27565b60010190505f8167ffffffffffffffff811115611b0057611b00611e20565b6040519080825280601f01601f191660200182016040528015611b2a576020820181803683370190505b5090508181016020015b5f19016f181899199a1a9b1b9c1cb0b131b232b360811b600a86061a8153600a8504945084611b3457509392505050565b5f6001600160a01b038316158015906112e85750826001600160a01b0316846001600160a01b03161480611b9e5750611b9e848461139d565b806112e85750505f908152600460205260409020546001600160a01b03908116911614919050565b6001600160a01b038216611bef57604051633250574960e11b81525f60048201526024016108d3565b5f611bfb83835f6114de565b90506001600160a01b03811615610bbd576040516339e3563760e11b81525f60048201526024016108d3565b5f8072184f03e93ff9f4daa797ed6e38ed64bf6a1f0160401b8310611c655772184f03e93ff9f4daa797ed6e38ed64bf6a1f0160401b830492506040015b6d04ee2d6d415b85acef81000000008310611c91576d04ee2d6d415b85acef8100000000830492506020015b662386f26fc100008310611caf57662386f26fc10000830492506010015b6305f5e1008310611cc7576305f5e100830492506008015b6127108310611cdb57612710830492506004015b60648310611ced576064830492506002015b600a83106107e35760010192915050565b6001600160e01b03198116811461139a575f80fd5b5f60208284031215611d23575f80fd5b813561190d81611cfe565b5f5b83811015611d48578181015183820152602001611d30565b50505f910152565b5f8151808452611d67816020860160208601611d2e565b601f01601f19169290920160200192915050565b602081525f61190d6020830184611d50565b5f60208284031215611d9d575f80fd5b5035919050565b80356001600160a01b0381168114611dba575f80fd5b919050565b5f8060408385031215611dd0575f80fd5b611dd983611da4565b946020939093013593505050565b5f805f60608486031215611df9575f80fd5b611e0284611da4565b9250611e1060208501611da4565b9150604084013590509250925092565b634e487b7160e01b5f52604160045260245ffd5b5f67ffffffffffffffff80841115611e4e57611e4e611e20565b604051601f8501601f19908116603f01168101908282118183101715611e7657611e76611e20565b81604052809350858152868686011115611e8e575f80fd5b858560208301375f602087830101525050509392505050565b5f82601f830112611eb6575f80fd5b61190d83833560208501611e34565b5f805f60608486031215611ed7575f80fd5b83359250602084013567ffffffffffffffff80821115611ef5575f80fd5b611f0187838801611ea7565b93506040860135915080821115611f16575f80fd5b50611f2386828701611ea7565b9150509250925092565b5f60208284031215611f3d575f80fd5b61190d82611da4565b5f805f60608486031215611f58575f80fd5b505081359360208301359350604090920135919050565b5f8060408385031215611f80575f80fd5b611f8983611da4565b915060208301358015158114611f9d575f80fd5b809150509250929050565b5f805f8060808587031215611fbb575f80fd5b611fc485611da4565b9350611fd260208601611da4565b925060408501359150606085013567ffffffffffffffff811115611ff4575f80fd5b8501601f81018713612004575f80fd5b61201387823560208401611e34565b91505092959194509250565b602080825282518282018190525f9190848201906040850190845b818110156120565783518352928401929184019160010161203a565b50909695505050505050565b5f8060408385031215612073575f80fd5b61207c83611da4565b915061208a60208401611da4565b90509250929050565b600181811c908216806120a757607f821691505b6020821081036120c557634e487b7160e01b5f52602260045260245ffd5b50919050565b634e487b7160e01b5f52601160045260245ffd5b808201808211156107e3576107e36120cb565b818103818111156107e3576107e36120cb565b80820281158282048414176107e3576107e36120cb565b5f835161212d818460208801611d2e565b835190830190612141818360208801611d2e565b01949350505050565b601f821115610bbd57805f5260205f20601f840160051c8101602085101561216f5750805b601f840160051c820191505b8181101561189c575f815560010161217b565b815167ffffffffffffffff8111156121a8576121a8611e20565b6121bc816121b68454612093565b8461214a565b602080601f8311600181146121ef575f84156121d85750858301515b5f19600386901b1c1916600185901b17855561189a565b5f85815260208120601f198616915b8281101561221d578886015182559484019460019091019084016121fe565b508582101561223a57878501515f19600388901b60f8161c191681555b5050505050600190811b01905550565b6001600160a01b03858116825284166020820152604081018390526080606082018190525f9061227c90830184611d50565b9695505050505050565b5f60208284031215612296575f80fd5b815161190d81611cfe56fea2646970667358221220318eb9f8dc115bf4dd7e0287ea5f5b7dc35cf632f8eadf8c8b7854340e9d1dd364736f6c63430008180033","linkReferences":{}},"methodIdentifiers":{"approve(address,uint256)":"095ea7b3","balanceOf(address)":"70a08231","canWaterNow(address)":"97a64469","cooldownTime()":"b319c6b7","emergencyWithdraw()":"db2e21bc","getApproved(uint256)":"081812fc","getPurchase(uint256)":"3742a9f7","getUserPlant(address)":"ae8af909","getUserPurchaseCount(address)":"91b96b63","getUserPurchases(address)":"c6e5d8f6","isApprovedForAll(address,address)":"e985e9c5","markPurchaseProcessed(uint256)":"31545e6c","minPurchaseAmount()":"b47dbf22","mintCertificate(uint256,string,string)":"27994aa4","name()":"06fdde03","owner()":"8da5cb5b","ownerOf(uint256)":"6352211e","purchaseTree(uint256,uint256,uint256)":"832e34a7","purchases(uint256)":"8392fe31","renounceOwnership()":"715018a6","safeTransferFrom(address,address,uint256)":"42842e0e","safeTransferFrom(address,address,uint256,bytes)":"b88d4fde","setApprovalForAll(address,bool)":"a22cb465","setCooldownTime(uint256)":"6ff73201","setMinPurchaseAmount(uint256)":"e9d3fb78","supportsInterface(bytes4)":"01ffc9a7","symbol()":"95d89b41","tokenIdToPurchaseId(uint256)":"c40585f9","tokenURI(uint256)":"c87b56dd","totalPurchases()":"5962a941","totalSupply()":"18160ddd","transferFrom(address,address,uint256)":"23b872dd","transferOwnership(address)":"f2fde38b","userPlants(address)":"3910ba47","userPurchaseIds(address,uint256)":"b077a9a7","waterPlant()":"b2eb53a1"},"id":41}