{"abi":[{"type":"constructor","inputs":[{"name":"initialPrice","type":"int256","internalType":"int256"}],"stateMutability":"nonpayable"},{"type":"function","name":"decimals","inputs":[],"outputs":[{"name":"","type":"uint8","internalType":"uint8"}],"stateMutability":"pure"},{"type":"function","name":"description","inputs":[],"outputs":[{"name":"","type":"string","internalType":"string"}],"stateMutability":"view"},{"type":"function","name":"getRequiredMnt","inputs":[{"name":"priceInUsdCents","type":"uint256","internalType":"uint256"}],"outputs":[{"name":"","type":"uint256","internalType":"uint256"}],"stateMutability":"view"},{"type":"function","name":"latestAnswer","inputs":[],"outputs":[{"name":"","type":"int256","internalType":"int256"}],"stateMutability":"view"},{"type":"function","name":"latestRoundData","inputs":[],"outputs":[{"name":"roundId","type":"uint80","internalType":"uint80"},{"name":"answer","type":"int256","internalType":"int256"},{"name":"startedAt","type":"uint256","internalType":"uint256"},{"name":"updatedAt","type":"uint256","internalType":"uint256"},{"name":"answeredInRound","type":"uint80","internalType":"uint80"}],"stateMutability":"view"},{"type":"function","name":"mntToUsd","inputs":[{"name":"mntAmount","type":"uint256","internalType":"uint256"}],"outputs":[{"name":"","type":"uint256","internalType":"uint256"}],"stateMutability":"view"},{"type":"function","name":"owner","inputs":[],"outputs":[{"name":"","type":"address","internalType":"address"}],"stateMutability":"view"},{"type":"function","name":"renounceOwnership","inputs":[],"outputs":[],"stateMutability":"nonpayable"},{"type":"function","name":"transferOwnership","inputs":[{"name":"newOwner","type":"address","internalType":"address"}],"outputs":[],"stateMutability":"nonpayable"},{"type":"function","name":"updatePrice","inputs":[{"name":"newPrice","type":"int256","internalType":"int256"}],"outputs":[],"stateMutability":"nonpayable"},{"type":"function","name":"usdToMnt","inputs":[{"name":"usdAmount","type":"uint256","internalType":"uint256"}],"outputs":[{"name":"","type":"uint256","internalType":"uint256"}],"stateMutability":"view"},{"type":"event","name":"OwnershipTransferred","inputs":[{"name":"previousOwner","type":"address","indexed":true,"internalType":"address"},{"name":"newOwner","type":"address","indexed":true,"internalType":"address"}],"anonymous":false},{"type":"event","name":"PriceUpdated","inputs":[{"name":"oldPrice","type":"int256","indexed":false,"internalType":"int256"},{"name":"newPrice","type":"int256","indexed":false,"internalType":"int256"},{"name":"timestamp","type":"uint256","indexed":false,"internalType":"uint256"}],"anonymous":false},{"type":"error","name":"OwnableInvalidOwner","inputs":[{"name":"owner","type":"address","internalType":"address"}]},{"type":"error","name":"OwnableUnauthorizedAccount","inputs":[{"name":"account","type":"address","internalType":"address"}]}],"bytecode":{"object":"0x60c060405260096080908152681554d1080bc813539560ba1b60a05260039061002890826101c5565b50348015610034575f80fd5b5060405161098338038061098383398101604081905261005391610284565b338061007957604051631e4fbdf760e01b81525f60048201526024015b60405180910390fd5b610082816100de565b505f81136100d25760405162461bcd60e51b815260206004820152601660248201527f5072696365206d75737420626520706f736974697665000000000000000000006044820152606401610070565b6001554260025561029b565b5f80546001600160a01b038381166001600160a01b0319831681178455604051919092169283917f8be0079c531659141344cd1fd0a4f28419497f9722a3daafe3b4186f6b6457e09190a35050565b634e487b7160e01b5f52604160045260245ffd5b600181811c9082168061015557607f821691505b60208210810361017357634e487b7160e01b5f52602260045260245ffd5b50919050565b601f8211156101c057805f5260205f20601f840160051c8101602085101561019e5750805b601f840160051c820191505b818110156101bd575f81556001016101aa565b50505b505050565b81516001600160401b038111156101de576101de61012d565b6101f2816101ec8454610141565b84610179565b602080601f831160018114610225575f841561020e5750858301515b5f19600386901b1c1916600185901b17855561027c565b5f85815260208120601f198616915b8281101561025357888601518255948401946001909101908401610234565b508582101561027057878501515f19600388901b60f8161c191681555b505060018460011b0185555b505050505050565b5f60208284031215610294575f80fd5b5051919050565b6106db806102a85f395ff3fe608060405234801561000f575f80fd5b50600436106100a6575f3560e01c80637284e4161161006e5780637284e416146101045780638da5cb5b146101195780639ffcee2a14610133578063d4c19bda14610146578063f2fde38b14610159578063feaf968c1461016c575f80fd5b8063313ce567146100aa57806337cd06a8146100be57806350d25bcd146100df57806367a0e5c2146100e7578063715018a6146100fa575b5f80fd5b604051600881526020015b60405180910390f35b6100d16100cc3660046104ac565b61019c565b6040519081526020016100b5565b6001546100d1565b6100d16100f53660046104ac565b61020c565b610102610258565b005b61010c61026b565b6040516100b591906104c3565b5f546040516001600160a01b0390911681526020016100b5565b6100d16101413660046104ac565b6102f7565b6101026101543660046104ac565b610352565b61010261016736600461050f565b6103f4565b6001805460025460408051848152602081019390935282018190526060820152608081019190915260a0016100b5565b5f80600154136101e35760405162461bcd60e51b815260206004820152600d60248201526c496e76616c696420707269636560981b60448201526064015b60405180910390fd5b6001546101f26008600a610629565b6101fc9084610637565b610206919061064e565b92915050565b5f80606461022284670de0b6b3a7640000610637565b61022c919061064e565b905061023a6008600a610629565b6001546102479083610637565b610251919061064e565b9392505050565b610260610431565b6102695f61045d565b565b600380546102789061066d565b80601f01602080910402602001604051908101604052809291908181526020018280546102a49061066d565b80156102ef5780601f106102c6576101008083540402835291602001916102ef565b820191905f5260205f20905b8154815290600101906020018083116102d257829003601f168201915b505050505081565b5f80600154136103395760405162461bcd60e51b815260206004820152600d60248201526c496e76616c696420707269636560981b60448201526064016101da565b6103456008600a610629565b6001546101fc9084610637565b61035a610431565b5f81136103a25760405162461bcd60e51b81526020600482015260166024820152755072696365206d75737420626520706f73697469766560501b60448201526064016101da565b6001805490829055426002819055604080518381526020810185905280820192909252517fa7a1bd56a6084f147ea8bb7abf8f457d3582df5cbe01da98e27030c2332866919181900360600190a15050565b6103fc610431565b6001600160a01b03811661042557604051631e4fbdf760e01b81525f60048201526024016101da565b61042e8161045d565b50565b5f546001600160a01b031633146102695760405163118cdaa760e01b81523360048201526024016101da565b5f80546001600160a01b038381166001600160a01b0319831681178455604051919092169283917f8be0079c531659141344cd1fd0a4f28419497f9722a3daafe3b4186f6b6457e09190a35050565b5f602082840312156104bc575f80fd5b5035919050565b5f602080835283518060208501525f5b818110156104ef578581018301518582016040015282016104d3565b505f604082860101526040601f19601f8301168501019250505092915050565b5f6020828403121561051f575f80fd5b81356001600160a01b0381168114610251575f80fd5b634e487b7160e01b5f52601160045260245ffd5b600181815b8085111561058357815f190482111561056957610569610535565b8085161561057657918102915b93841c939080029061054e565b509250929050565b5f8261059957506001610206565b816105a557505f610206565b81600181146105bb57600281146105c5576105e1565b6001915050610206565b60ff8411156105d6576105d6610535565b50506001821b610206565b5060208310610133831016604e8410600b8410161715610604575081810a610206565b61060e8383610549565b805f190482111561062157610621610535565b029392505050565b5f61025160ff84168361058b565b808202811582820484141761020657610206610535565b5f8261066857634e487b7160e01b5f52601260045260245ffd5b500490565b600181811c9082168061068157607f821691505b60208210810361069f57634e487b7160e01b5f52602260045260245ffd5b5091905056fea264697066735822122051b3990dcdfc1cfbbbbd458b8d2c70438d754b6a53cedf699c7be248f65b4d3d64736f6c63430008180033","linkReferences":{}},"methodIdentifiers":{"decimals()":"313ce567","description()":"7284e416","getRequiredMnt(uint256)":"67a0e5c2","latestAnswer()":"50d25bcd","latestRoundData()":"feaf968c","mntToUsd(uint256)":"37cd06a8","owner()":"8da5cb5b","renounceOwnership()":"715018a6","transferOwnership(address)":"f2fde38b","updatePrice(int256)":"d4c19bda","usdToMnt(uint256)":"9ffcee2a"},"id":54}